
LinearAntrieb-uC.elf:     file format elf32-littlearm

Sections:
Idx Name          Size      VMA       LMA       File off  Algn
  0 .isr_vector   000001c4  08000000  08000000  00010000  2**0
                  CONTENTS, ALLOC, LOAD, READONLY, DATA
  1 .text         0000e11c  080001d0  080001d0  000101d0  2**4
                  CONTENTS, ALLOC, LOAD, READONLY, CODE
  2 .rodata       00000314  0800e2f0  0800e2f0  0001e2f0  2**3
                  CONTENTS, ALLOC, LOAD, READONLY, DATA
  3 .ARM.extab    00000000  0800e604  0800e604  00020364  2**0
                  CONTENTS
  4 .ARM          00000008  0800e604  0800e604  0001e604  2**2
                  CONTENTS, ALLOC, LOAD, READONLY, DATA
  5 .preinit_array 00000000  0800e60c  0800e60c  00020364  2**0
                  CONTENTS, ALLOC, LOAD, DATA
  6 .init_array   00000004  0800e60c  0800e60c  0001e60c  2**2
                  CONTENTS, ALLOC, LOAD, DATA
  7 .fini_array   00000004  0800e610  0800e610  0001e610  2**2
                  CONTENTS, ALLOC, LOAD, DATA
  8 .data         00000364  20000000  0800e614  00020000  2**2
                  CONTENTS, ALLOC, LOAD, DATA
  9 .bss          00000f00  20000364  0800e978  00020364  2**2
                  ALLOC
 10 ._user_heap_stack 00000604  20001264  0800e978  00021264  2**0
                  ALLOC
 11 .ARM.attributes 00000030  00000000  00000000  00020364  2**0
                  CONTENTS, READONLY
 12 .debug_info   00025946  00000000  00000000  00020394  2**0
                  CONTENTS, READONLY, DEBUGGING
 13 .debug_abbrev 00004241  00000000  00000000  00045cda  2**0
                  CONTENTS, READONLY, DEBUGGING
 14 .debug_aranges 000013e8  00000000  00000000  00049f20  2**3
                  CONTENTS, READONLY, DEBUGGING
 15 .debug_ranges 00001220  00000000  00000000  0004b308  2**3
                  CONTENTS, READONLY, DEBUGGING
 16 .debug_macro  0002666f  00000000  00000000  0004c528  2**0
                  CONTENTS, READONLY, DEBUGGING
 17 .debug_line   00013f39  00000000  00000000  00072b97  2**0
                  CONTENTS, READONLY, DEBUGGING
 18 .debug_str    000d435b  00000000  00000000  00086ad0  2**0
                  CONTENTS, READONLY, DEBUGGING
 19 .comment      0000007b  00000000  00000000  0015ae2b  2**0
                  CONTENTS, READONLY
 20 .debug_frame  00005fa0  00000000  00000000  0015aea8  2**2
                  CONTENTS, READONLY, DEBUGGING

Disassembly of section .text:

080001d0 <__do_global_dtors_aux>:
 80001d0:	b510      	push	{r4, lr}
 80001d2:	4c05      	ldr	r4, [pc, #20]	; (80001e8 <__do_global_dtors_aux+0x18>)
 80001d4:	7823      	ldrb	r3, [r4, #0]
 80001d6:	b933      	cbnz	r3, 80001e6 <__do_global_dtors_aux+0x16>
 80001d8:	4b04      	ldr	r3, [pc, #16]	; (80001ec <__do_global_dtors_aux+0x1c>)
 80001da:	b113      	cbz	r3, 80001e2 <__do_global_dtors_aux+0x12>
 80001dc:	4804      	ldr	r0, [pc, #16]	; (80001f0 <__do_global_dtors_aux+0x20>)
 80001de:	f3af 8000 	nop.w
 80001e2:	2301      	movs	r3, #1
 80001e4:	7023      	strb	r3, [r4, #0]
 80001e6:	bd10      	pop	{r4, pc}
 80001e8:	20000364 	.word	0x20000364
 80001ec:	00000000 	.word	0x00000000
 80001f0:	0800e2d4 	.word	0x0800e2d4

080001f4 <frame_dummy>:
 80001f4:	b508      	push	{r3, lr}
 80001f6:	4b03      	ldr	r3, [pc, #12]	; (8000204 <frame_dummy+0x10>)
 80001f8:	b11b      	cbz	r3, 8000202 <frame_dummy+0xe>
 80001fa:	4903      	ldr	r1, [pc, #12]	; (8000208 <frame_dummy+0x14>)
 80001fc:	4803      	ldr	r0, [pc, #12]	; (800020c <frame_dummy+0x18>)
 80001fe:	f3af 8000 	nop.w
 8000202:	bd08      	pop	{r3, pc}
 8000204:	00000000 	.word	0x00000000
 8000208:	20000368 	.word	0x20000368
 800020c:	0800e2d4 	.word	0x0800e2d4

08000210 <strlen>:
 8000210:	4603      	mov	r3, r0
 8000212:	f813 2b01 	ldrb.w	r2, [r3], #1
 8000216:	2a00      	cmp	r2, #0
 8000218:	d1fb      	bne.n	8000212 <strlen+0x2>
 800021a:	1a18      	subs	r0, r3, r0
 800021c:	3801      	subs	r0, #1
 800021e:	4770      	bx	lr

08000220 <memchr>:
 8000220:	f001 01ff 	and.w	r1, r1, #255	; 0xff
 8000224:	2a10      	cmp	r2, #16
 8000226:	db2b      	blt.n	8000280 <memchr+0x60>
 8000228:	f010 0f07 	tst.w	r0, #7
 800022c:	d008      	beq.n	8000240 <memchr+0x20>
 800022e:	f810 3b01 	ldrb.w	r3, [r0], #1
 8000232:	3a01      	subs	r2, #1
 8000234:	428b      	cmp	r3, r1
 8000236:	d02d      	beq.n	8000294 <memchr+0x74>
 8000238:	f010 0f07 	tst.w	r0, #7
 800023c:	b342      	cbz	r2, 8000290 <memchr+0x70>
 800023e:	d1f6      	bne.n	800022e <memchr+0xe>
 8000240:	b4f0      	push	{r4, r5, r6, r7}
 8000242:	ea41 2101 	orr.w	r1, r1, r1, lsl #8
 8000246:	ea41 4101 	orr.w	r1, r1, r1, lsl #16
 800024a:	f022 0407 	bic.w	r4, r2, #7
 800024e:	f07f 0700 	mvns.w	r7, #0
 8000252:	2300      	movs	r3, #0
 8000254:	e8f0 5602 	ldrd	r5, r6, [r0], #8
 8000258:	3c08      	subs	r4, #8
 800025a:	ea85 0501 	eor.w	r5, r5, r1
 800025e:	ea86 0601 	eor.w	r6, r6, r1
 8000262:	fa85 f547 	uadd8	r5, r5, r7
 8000266:	faa3 f587 	sel	r5, r3, r7
 800026a:	fa86 f647 	uadd8	r6, r6, r7
 800026e:	faa5 f687 	sel	r6, r5, r7
 8000272:	b98e      	cbnz	r6, 8000298 <memchr+0x78>
 8000274:	d1ee      	bne.n	8000254 <memchr+0x34>
 8000276:	bcf0      	pop	{r4, r5, r6, r7}
 8000278:	f001 01ff 	and.w	r1, r1, #255	; 0xff
 800027c:	f002 0207 	and.w	r2, r2, #7
 8000280:	b132      	cbz	r2, 8000290 <memchr+0x70>
 8000282:	f810 3b01 	ldrb.w	r3, [r0], #1
 8000286:	3a01      	subs	r2, #1
 8000288:	ea83 0301 	eor.w	r3, r3, r1
 800028c:	b113      	cbz	r3, 8000294 <memchr+0x74>
 800028e:	d1f8      	bne.n	8000282 <memchr+0x62>
 8000290:	2000      	movs	r0, #0
 8000292:	4770      	bx	lr
 8000294:	3801      	subs	r0, #1
 8000296:	4770      	bx	lr
 8000298:	2d00      	cmp	r5, #0
 800029a:	bf06      	itte	eq
 800029c:	4635      	moveq	r5, r6
 800029e:	3803      	subeq	r0, #3
 80002a0:	3807      	subne	r0, #7
 80002a2:	f015 0f01 	tst.w	r5, #1
 80002a6:	d107      	bne.n	80002b8 <memchr+0x98>
 80002a8:	3001      	adds	r0, #1
 80002aa:	f415 7f80 	tst.w	r5, #256	; 0x100
 80002ae:	bf02      	ittt	eq
 80002b0:	3001      	addeq	r0, #1
 80002b2:	f415 3fc0 	tsteq.w	r5, #98304	; 0x18000
 80002b6:	3001      	addeq	r0, #1
 80002b8:	bcf0      	pop	{r4, r5, r6, r7}
 80002ba:	3801      	subs	r0, #1
 80002bc:	4770      	bx	lr
 80002be:	bf00      	nop

080002c0 <__aeabi_drsub>:
 80002c0:	f081 4100 	eor.w	r1, r1, #2147483648	; 0x80000000
 80002c4:	e002      	b.n	80002cc <__adddf3>
 80002c6:	bf00      	nop

080002c8 <__aeabi_dsub>:
 80002c8:	f083 4300 	eor.w	r3, r3, #2147483648	; 0x80000000

080002cc <__adddf3>:
 80002cc:	b530      	push	{r4, r5, lr}
 80002ce:	ea4f 0441 	mov.w	r4, r1, lsl #1
 80002d2:	ea4f 0543 	mov.w	r5, r3, lsl #1
 80002d6:	ea94 0f05 	teq	r4, r5
 80002da:	bf08      	it	eq
 80002dc:	ea90 0f02 	teqeq	r0, r2
 80002e0:	bf1f      	itttt	ne
 80002e2:	ea54 0c00 	orrsne.w	ip, r4, r0
 80002e6:	ea55 0c02 	orrsne.w	ip, r5, r2
 80002ea:	ea7f 5c64 	mvnsne.w	ip, r4, asr #21
 80002ee:	ea7f 5c65 	mvnsne.w	ip, r5, asr #21
 80002f2:	f000 80e2 	beq.w	80004ba <__adddf3+0x1ee>
 80002f6:	ea4f 5454 	mov.w	r4, r4, lsr #21
 80002fa:	ebd4 5555 	rsbs	r5, r4, r5, lsr #21
 80002fe:	bfb8      	it	lt
 8000300:	426d      	neglt	r5, r5
 8000302:	dd0c      	ble.n	800031e <__adddf3+0x52>
 8000304:	442c      	add	r4, r5
 8000306:	ea80 0202 	eor.w	r2, r0, r2
 800030a:	ea81 0303 	eor.w	r3, r1, r3
 800030e:	ea82 0000 	eor.w	r0, r2, r0
 8000312:	ea83 0101 	eor.w	r1, r3, r1
 8000316:	ea80 0202 	eor.w	r2, r0, r2
 800031a:	ea81 0303 	eor.w	r3, r1, r3
 800031e:	2d36      	cmp	r5, #54	; 0x36
 8000320:	bf88      	it	hi
 8000322:	bd30      	pophi	{r4, r5, pc}
 8000324:	f011 4f00 	tst.w	r1, #2147483648	; 0x80000000
 8000328:	ea4f 3101 	mov.w	r1, r1, lsl #12
 800032c:	f44f 1c80 	mov.w	ip, #1048576	; 0x100000
 8000330:	ea4c 3111 	orr.w	r1, ip, r1, lsr #12
 8000334:	d002      	beq.n	800033c <__adddf3+0x70>
 8000336:	4240      	negs	r0, r0
 8000338:	eb61 0141 	sbc.w	r1, r1, r1, lsl #1
 800033c:	f013 4f00 	tst.w	r3, #2147483648	; 0x80000000
 8000340:	ea4f 3303 	mov.w	r3, r3, lsl #12
 8000344:	ea4c 3313 	orr.w	r3, ip, r3, lsr #12
 8000348:	d002      	beq.n	8000350 <__adddf3+0x84>
 800034a:	4252      	negs	r2, r2
 800034c:	eb63 0343 	sbc.w	r3, r3, r3, lsl #1
 8000350:	ea94 0f05 	teq	r4, r5
 8000354:	f000 80a7 	beq.w	80004a6 <__adddf3+0x1da>
 8000358:	f1a4 0401 	sub.w	r4, r4, #1
 800035c:	f1d5 0e20 	rsbs	lr, r5, #32
 8000360:	db0d      	blt.n	800037e <__adddf3+0xb2>
 8000362:	fa02 fc0e 	lsl.w	ip, r2, lr
 8000366:	fa22 f205 	lsr.w	r2, r2, r5
 800036a:	1880      	adds	r0, r0, r2
 800036c:	f141 0100 	adc.w	r1, r1, #0
 8000370:	fa03 f20e 	lsl.w	r2, r3, lr
 8000374:	1880      	adds	r0, r0, r2
 8000376:	fa43 f305 	asr.w	r3, r3, r5
 800037a:	4159      	adcs	r1, r3
 800037c:	e00e      	b.n	800039c <__adddf3+0xd0>
 800037e:	f1a5 0520 	sub.w	r5, r5, #32
 8000382:	f10e 0e20 	add.w	lr, lr, #32
 8000386:	2a01      	cmp	r2, #1
 8000388:	fa03 fc0e 	lsl.w	ip, r3, lr
 800038c:	bf28      	it	cs
 800038e:	f04c 0c02 	orrcs.w	ip, ip, #2
 8000392:	fa43 f305 	asr.w	r3, r3, r5
 8000396:	18c0      	adds	r0, r0, r3
 8000398:	eb51 71e3 	adcs.w	r1, r1, r3, asr #31
 800039c:	f001 4500 	and.w	r5, r1, #2147483648	; 0x80000000
 80003a0:	d507      	bpl.n	80003b2 <__adddf3+0xe6>
 80003a2:	f04f 0e00 	mov.w	lr, #0
 80003a6:	f1dc 0c00 	rsbs	ip, ip, #0
 80003aa:	eb7e 0000 	sbcs.w	r0, lr, r0
 80003ae:	eb6e 0101 	sbc.w	r1, lr, r1
 80003b2:	f5b1 1f80 	cmp.w	r1, #1048576	; 0x100000
 80003b6:	d31b      	bcc.n	80003f0 <__adddf3+0x124>
 80003b8:	f5b1 1f00 	cmp.w	r1, #2097152	; 0x200000
 80003bc:	d30c      	bcc.n	80003d8 <__adddf3+0x10c>
 80003be:	0849      	lsrs	r1, r1, #1
 80003c0:	ea5f 0030 	movs.w	r0, r0, rrx
 80003c4:	ea4f 0c3c 	mov.w	ip, ip, rrx
 80003c8:	f104 0401 	add.w	r4, r4, #1
 80003cc:	ea4f 5244 	mov.w	r2, r4, lsl #21
 80003d0:	f512 0f80 	cmn.w	r2, #4194304	; 0x400000
 80003d4:	f080 809a 	bcs.w	800050c <__adddf3+0x240>
 80003d8:	f1bc 4f00 	cmp.w	ip, #2147483648	; 0x80000000
 80003dc:	bf08      	it	eq
 80003de:	ea5f 0c50 	movseq.w	ip, r0, lsr #1
 80003e2:	f150 0000 	adcs.w	r0, r0, #0
 80003e6:	eb41 5104 	adc.w	r1, r1, r4, lsl #20
 80003ea:	ea41 0105 	orr.w	r1, r1, r5
 80003ee:	bd30      	pop	{r4, r5, pc}
 80003f0:	ea5f 0c4c 	movs.w	ip, ip, lsl #1
 80003f4:	4140      	adcs	r0, r0
 80003f6:	eb41 0101 	adc.w	r1, r1, r1
 80003fa:	f411 1f80 	tst.w	r1, #1048576	; 0x100000
 80003fe:	f1a4 0401 	sub.w	r4, r4, #1
 8000402:	d1e9      	bne.n	80003d8 <__adddf3+0x10c>
 8000404:	f091 0f00 	teq	r1, #0
 8000408:	bf04      	itt	eq
 800040a:	4601      	moveq	r1, r0
 800040c:	2000      	moveq	r0, #0
 800040e:	fab1 f381 	clz	r3, r1
 8000412:	bf08      	it	eq
 8000414:	3320      	addeq	r3, #32
 8000416:	f1a3 030b 	sub.w	r3, r3, #11
 800041a:	f1b3 0220 	subs.w	r2, r3, #32
 800041e:	da0c      	bge.n	800043a <__adddf3+0x16e>
 8000420:	320c      	adds	r2, #12
 8000422:	dd08      	ble.n	8000436 <__adddf3+0x16a>
 8000424:	f102 0c14 	add.w	ip, r2, #20
 8000428:	f1c2 020c 	rsb	r2, r2, #12
 800042c:	fa01 f00c 	lsl.w	r0, r1, ip
 8000430:	fa21 f102 	lsr.w	r1, r1, r2
 8000434:	e00c      	b.n	8000450 <__adddf3+0x184>
 8000436:	f102 0214 	add.w	r2, r2, #20
 800043a:	bfd8      	it	le
 800043c:	f1c2 0c20 	rsble	ip, r2, #32
 8000440:	fa01 f102 	lsl.w	r1, r1, r2
 8000444:	fa20 fc0c 	lsr.w	ip, r0, ip
 8000448:	bfdc      	itt	le
 800044a:	ea41 010c 	orrle.w	r1, r1, ip
 800044e:	4090      	lslle	r0, r2
 8000450:	1ae4      	subs	r4, r4, r3
 8000452:	bfa2      	ittt	ge
 8000454:	eb01 5104 	addge.w	r1, r1, r4, lsl #20
 8000458:	4329      	orrge	r1, r5
 800045a:	bd30      	popge	{r4, r5, pc}
 800045c:	ea6f 0404 	mvn.w	r4, r4
 8000460:	3c1f      	subs	r4, #31
 8000462:	da1c      	bge.n	800049e <__adddf3+0x1d2>
 8000464:	340c      	adds	r4, #12
 8000466:	dc0e      	bgt.n	8000486 <__adddf3+0x1ba>
 8000468:	f104 0414 	add.w	r4, r4, #20
 800046c:	f1c4 0220 	rsb	r2, r4, #32
 8000470:	fa20 f004 	lsr.w	r0, r0, r4
 8000474:	fa01 f302 	lsl.w	r3, r1, r2
 8000478:	ea40 0003 	orr.w	r0, r0, r3
 800047c:	fa21 f304 	lsr.w	r3, r1, r4
 8000480:	ea45 0103 	orr.w	r1, r5, r3
 8000484:	bd30      	pop	{r4, r5, pc}
 8000486:	f1c4 040c 	rsb	r4, r4, #12
 800048a:	f1c4 0220 	rsb	r2, r4, #32
 800048e:	fa20 f002 	lsr.w	r0, r0, r2
 8000492:	fa01 f304 	lsl.w	r3, r1, r4
 8000496:	ea40 0003 	orr.w	r0, r0, r3
 800049a:	4629      	mov	r1, r5
 800049c:	bd30      	pop	{r4, r5, pc}
 800049e:	fa21 f004 	lsr.w	r0, r1, r4
 80004a2:	4629      	mov	r1, r5
 80004a4:	bd30      	pop	{r4, r5, pc}
 80004a6:	f094 0f00 	teq	r4, #0
 80004aa:	f483 1380 	eor.w	r3, r3, #1048576	; 0x100000
 80004ae:	bf06      	itte	eq
 80004b0:	f481 1180 	eoreq.w	r1, r1, #1048576	; 0x100000
 80004b4:	3401      	addeq	r4, #1
 80004b6:	3d01      	subne	r5, #1
 80004b8:	e74e      	b.n	8000358 <__adddf3+0x8c>
 80004ba:	ea7f 5c64 	mvns.w	ip, r4, asr #21
 80004be:	bf18      	it	ne
 80004c0:	ea7f 5c65 	mvnsne.w	ip, r5, asr #21
 80004c4:	d029      	beq.n	800051a <__adddf3+0x24e>
 80004c6:	ea94 0f05 	teq	r4, r5
 80004ca:	bf08      	it	eq
 80004cc:	ea90 0f02 	teqeq	r0, r2
 80004d0:	d005      	beq.n	80004de <__adddf3+0x212>
 80004d2:	ea54 0c00 	orrs.w	ip, r4, r0
 80004d6:	bf04      	itt	eq
 80004d8:	4619      	moveq	r1, r3
 80004da:	4610      	moveq	r0, r2
 80004dc:	bd30      	pop	{r4, r5, pc}
 80004de:	ea91 0f03 	teq	r1, r3
 80004e2:	bf1e      	ittt	ne
 80004e4:	2100      	movne	r1, #0
 80004e6:	2000      	movne	r0, #0
 80004e8:	bd30      	popne	{r4, r5, pc}
 80004ea:	ea5f 5c54 	movs.w	ip, r4, lsr #21
 80004ee:	d105      	bne.n	80004fc <__adddf3+0x230>
 80004f0:	0040      	lsls	r0, r0, #1
 80004f2:	4149      	adcs	r1, r1
 80004f4:	bf28      	it	cs
 80004f6:	f041 4100 	orrcs.w	r1, r1, #2147483648	; 0x80000000
 80004fa:	bd30      	pop	{r4, r5, pc}
 80004fc:	f514 0480 	adds.w	r4, r4, #4194304	; 0x400000
 8000500:	bf3c      	itt	cc
 8000502:	f501 1180 	addcc.w	r1, r1, #1048576	; 0x100000
 8000506:	bd30      	popcc	{r4, r5, pc}
 8000508:	f001 4500 	and.w	r5, r1, #2147483648	; 0x80000000
 800050c:	f045 41fe 	orr.w	r1, r5, #2130706432	; 0x7f000000
 8000510:	f441 0170 	orr.w	r1, r1, #15728640	; 0xf00000
 8000514:	f04f 0000 	mov.w	r0, #0
 8000518:	bd30      	pop	{r4, r5, pc}
 800051a:	ea7f 5c64 	mvns.w	ip, r4, asr #21
 800051e:	bf1a      	itte	ne
 8000520:	4619      	movne	r1, r3
 8000522:	4610      	movne	r0, r2
 8000524:	ea7f 5c65 	mvnseq.w	ip, r5, asr #21
 8000528:	bf1c      	itt	ne
 800052a:	460b      	movne	r3, r1
 800052c:	4602      	movne	r2, r0
 800052e:	ea50 3401 	orrs.w	r4, r0, r1, lsl #12
 8000532:	bf06      	itte	eq
 8000534:	ea52 3503 	orrseq.w	r5, r2, r3, lsl #12
 8000538:	ea91 0f03 	teqeq	r1, r3
 800053c:	f441 2100 	orrne.w	r1, r1, #524288	; 0x80000
 8000540:	bd30      	pop	{r4, r5, pc}
 8000542:	bf00      	nop

08000544 <__aeabi_ui2d>:
 8000544:	f090 0f00 	teq	r0, #0
 8000548:	bf04      	itt	eq
 800054a:	2100      	moveq	r1, #0
 800054c:	4770      	bxeq	lr
 800054e:	b530      	push	{r4, r5, lr}
 8000550:	f44f 6480 	mov.w	r4, #1024	; 0x400
 8000554:	f104 0432 	add.w	r4, r4, #50	; 0x32
 8000558:	f04f 0500 	mov.w	r5, #0
 800055c:	f04f 0100 	mov.w	r1, #0
 8000560:	e750      	b.n	8000404 <__adddf3+0x138>
 8000562:	bf00      	nop

08000564 <__aeabi_i2d>:
 8000564:	f090 0f00 	teq	r0, #0
 8000568:	bf04      	itt	eq
 800056a:	2100      	moveq	r1, #0
 800056c:	4770      	bxeq	lr
 800056e:	b530      	push	{r4, r5, lr}
 8000570:	f44f 6480 	mov.w	r4, #1024	; 0x400
 8000574:	f104 0432 	add.w	r4, r4, #50	; 0x32
 8000578:	f010 4500 	ands.w	r5, r0, #2147483648	; 0x80000000
 800057c:	bf48      	it	mi
 800057e:	4240      	negmi	r0, r0
 8000580:	f04f 0100 	mov.w	r1, #0
 8000584:	e73e      	b.n	8000404 <__adddf3+0x138>
 8000586:	bf00      	nop

08000588 <__aeabi_f2d>:
 8000588:	0042      	lsls	r2, r0, #1
 800058a:	ea4f 01e2 	mov.w	r1, r2, asr #3
 800058e:	ea4f 0131 	mov.w	r1, r1, rrx
 8000592:	ea4f 7002 	mov.w	r0, r2, lsl #28
 8000596:	bf1f      	itttt	ne
 8000598:	f012 437f 	andsne.w	r3, r2, #4278190080	; 0xff000000
 800059c:	f093 4f7f 	teqne	r3, #4278190080	; 0xff000000
 80005a0:	f081 5160 	eorne.w	r1, r1, #939524096	; 0x38000000
 80005a4:	4770      	bxne	lr
 80005a6:	f032 427f 	bics.w	r2, r2, #4278190080	; 0xff000000
 80005aa:	bf08      	it	eq
 80005ac:	4770      	bxeq	lr
 80005ae:	f093 4f7f 	teq	r3, #4278190080	; 0xff000000
 80005b2:	bf04      	itt	eq
 80005b4:	f441 2100 	orreq.w	r1, r1, #524288	; 0x80000
 80005b8:	4770      	bxeq	lr
 80005ba:	b530      	push	{r4, r5, lr}
 80005bc:	f44f 7460 	mov.w	r4, #896	; 0x380
 80005c0:	f001 4500 	and.w	r5, r1, #2147483648	; 0x80000000
 80005c4:	f021 4100 	bic.w	r1, r1, #2147483648	; 0x80000000
 80005c8:	e71c      	b.n	8000404 <__adddf3+0x138>
 80005ca:	bf00      	nop

080005cc <__aeabi_ul2d>:
 80005cc:	ea50 0201 	orrs.w	r2, r0, r1
 80005d0:	bf08      	it	eq
 80005d2:	4770      	bxeq	lr
 80005d4:	b530      	push	{r4, r5, lr}
 80005d6:	f04f 0500 	mov.w	r5, #0
 80005da:	e00a      	b.n	80005f2 <__aeabi_l2d+0x16>

080005dc <__aeabi_l2d>:
 80005dc:	ea50 0201 	orrs.w	r2, r0, r1
 80005e0:	bf08      	it	eq
 80005e2:	4770      	bxeq	lr
 80005e4:	b530      	push	{r4, r5, lr}
 80005e6:	f011 4500 	ands.w	r5, r1, #2147483648	; 0x80000000
 80005ea:	d502      	bpl.n	80005f2 <__aeabi_l2d+0x16>
 80005ec:	4240      	negs	r0, r0
 80005ee:	eb61 0141 	sbc.w	r1, r1, r1, lsl #1
 80005f2:	f44f 6480 	mov.w	r4, #1024	; 0x400
 80005f6:	f104 0432 	add.w	r4, r4, #50	; 0x32
 80005fa:	ea5f 5c91 	movs.w	ip, r1, lsr #22
 80005fe:	f43f aed8 	beq.w	80003b2 <__adddf3+0xe6>
 8000602:	f04f 0203 	mov.w	r2, #3
 8000606:	ea5f 0cdc 	movs.w	ip, ip, lsr #3
 800060a:	bf18      	it	ne
 800060c:	3203      	addne	r2, #3
 800060e:	ea5f 0cdc 	movs.w	ip, ip, lsr #3
 8000612:	bf18      	it	ne
 8000614:	3203      	addne	r2, #3
 8000616:	eb02 02dc 	add.w	r2, r2, ip, lsr #3
 800061a:	f1c2 0320 	rsb	r3, r2, #32
 800061e:	fa00 fc03 	lsl.w	ip, r0, r3
 8000622:	fa20 f002 	lsr.w	r0, r0, r2
 8000626:	fa01 fe03 	lsl.w	lr, r1, r3
 800062a:	ea40 000e 	orr.w	r0, r0, lr
 800062e:	fa21 f102 	lsr.w	r1, r1, r2
 8000632:	4414      	add	r4, r2
 8000634:	e6bd      	b.n	80003b2 <__adddf3+0xe6>
 8000636:	bf00      	nop

08000638 <__aeabi_dmul>:
 8000638:	b570      	push	{r4, r5, r6, lr}
 800063a:	f04f 0cff 	mov.w	ip, #255	; 0xff
 800063e:	f44c 6ce0 	orr.w	ip, ip, #1792	; 0x700
 8000642:	ea1c 5411 	ands.w	r4, ip, r1, lsr #20
 8000646:	bf1d      	ittte	ne
 8000648:	ea1c 5513 	andsne.w	r5, ip, r3, lsr #20
 800064c:	ea94 0f0c 	teqne	r4, ip
 8000650:	ea95 0f0c 	teqne	r5, ip
 8000654:	f000 f8de 	bleq	8000814 <__aeabi_dmul+0x1dc>
 8000658:	442c      	add	r4, r5
 800065a:	ea81 0603 	eor.w	r6, r1, r3
 800065e:	ea21 514c 	bic.w	r1, r1, ip, lsl #21
 8000662:	ea23 534c 	bic.w	r3, r3, ip, lsl #21
 8000666:	ea50 3501 	orrs.w	r5, r0, r1, lsl #12
 800066a:	bf18      	it	ne
 800066c:	ea52 3503 	orrsne.w	r5, r2, r3, lsl #12
 8000670:	f441 1180 	orr.w	r1, r1, #1048576	; 0x100000
 8000674:	f443 1380 	orr.w	r3, r3, #1048576	; 0x100000
 8000678:	d038      	beq.n	80006ec <__aeabi_dmul+0xb4>
 800067a:	fba0 ce02 	umull	ip, lr, r0, r2
 800067e:	f04f 0500 	mov.w	r5, #0
 8000682:	fbe1 e502 	umlal	lr, r5, r1, r2
 8000686:	f006 4200 	and.w	r2, r6, #2147483648	; 0x80000000
 800068a:	fbe0 e503 	umlal	lr, r5, r0, r3
 800068e:	f04f 0600 	mov.w	r6, #0
 8000692:	fbe1 5603 	umlal	r5, r6, r1, r3
 8000696:	f09c 0f00 	teq	ip, #0
 800069a:	bf18      	it	ne
 800069c:	f04e 0e01 	orrne.w	lr, lr, #1
 80006a0:	f1a4 04ff 	sub.w	r4, r4, #255	; 0xff
 80006a4:	f5b6 7f00 	cmp.w	r6, #512	; 0x200
 80006a8:	f564 7440 	sbc.w	r4, r4, #768	; 0x300
 80006ac:	d204      	bcs.n	80006b8 <__aeabi_dmul+0x80>
 80006ae:	ea5f 0e4e 	movs.w	lr, lr, lsl #1
 80006b2:	416d      	adcs	r5, r5
 80006b4:	eb46 0606 	adc.w	r6, r6, r6
 80006b8:	ea42 21c6 	orr.w	r1, r2, r6, lsl #11
 80006bc:	ea41 5155 	orr.w	r1, r1, r5, lsr #21
 80006c0:	ea4f 20c5 	mov.w	r0, r5, lsl #11
 80006c4:	ea40 505e 	orr.w	r0, r0, lr, lsr #21
 80006c8:	ea4f 2ece 	mov.w	lr, lr, lsl #11
 80006cc:	f1b4 0cfd 	subs.w	ip, r4, #253	; 0xfd
 80006d0:	bf88      	it	hi
 80006d2:	f5bc 6fe0 	cmphi.w	ip, #1792	; 0x700
 80006d6:	d81e      	bhi.n	8000716 <__aeabi_dmul+0xde>
 80006d8:	f1be 4f00 	cmp.w	lr, #2147483648	; 0x80000000
 80006dc:	bf08      	it	eq
 80006de:	ea5f 0e50 	movseq.w	lr, r0, lsr #1
 80006e2:	f150 0000 	adcs.w	r0, r0, #0
 80006e6:	eb41 5104 	adc.w	r1, r1, r4, lsl #20
 80006ea:	bd70      	pop	{r4, r5, r6, pc}
 80006ec:	f006 4600 	and.w	r6, r6, #2147483648	; 0x80000000
 80006f0:	ea46 0101 	orr.w	r1, r6, r1
 80006f4:	ea40 0002 	orr.w	r0, r0, r2
 80006f8:	ea81 0103 	eor.w	r1, r1, r3
 80006fc:	ebb4 045c 	subs.w	r4, r4, ip, lsr #1
 8000700:	bfc2      	ittt	gt
 8000702:	ebd4 050c 	rsbsgt	r5, r4, ip
 8000706:	ea41 5104 	orrgt.w	r1, r1, r4, lsl #20
 800070a:	bd70      	popgt	{r4, r5, r6, pc}
 800070c:	f441 1180 	orr.w	r1, r1, #1048576	; 0x100000
 8000710:	f04f 0e00 	mov.w	lr, #0
 8000714:	3c01      	subs	r4, #1
 8000716:	f300 80ab 	bgt.w	8000870 <__aeabi_dmul+0x238>
 800071a:	f114 0f36 	cmn.w	r4, #54	; 0x36
 800071e:	bfde      	ittt	le
 8000720:	2000      	movle	r0, #0
 8000722:	f001 4100 	andle.w	r1, r1, #2147483648	; 0x80000000
 8000726:	bd70      	pople	{r4, r5, r6, pc}
 8000728:	f1c4 0400 	rsb	r4, r4, #0
 800072c:	3c20      	subs	r4, #32
 800072e:	da35      	bge.n	800079c <__aeabi_dmul+0x164>
 8000730:	340c      	adds	r4, #12
 8000732:	dc1b      	bgt.n	800076c <__aeabi_dmul+0x134>
 8000734:	f104 0414 	add.w	r4, r4, #20
 8000738:	f1c4 0520 	rsb	r5, r4, #32
 800073c:	fa00 f305 	lsl.w	r3, r0, r5
 8000740:	fa20 f004 	lsr.w	r0, r0, r4
 8000744:	fa01 f205 	lsl.w	r2, r1, r5
 8000748:	ea40 0002 	orr.w	r0, r0, r2
 800074c:	f001 4200 	and.w	r2, r1, #2147483648	; 0x80000000
 8000750:	f021 4100 	bic.w	r1, r1, #2147483648	; 0x80000000
 8000754:	eb10 70d3 	adds.w	r0, r0, r3, lsr #31
 8000758:	fa21 f604 	lsr.w	r6, r1, r4
 800075c:	eb42 0106 	adc.w	r1, r2, r6
 8000760:	ea5e 0e43 	orrs.w	lr, lr, r3, lsl #1
 8000764:	bf08      	it	eq
 8000766:	ea20 70d3 	biceq.w	r0, r0, r3, lsr #31
 800076a:	bd70      	pop	{r4, r5, r6, pc}
 800076c:	f1c4 040c 	rsb	r4, r4, #12
 8000770:	f1c4 0520 	rsb	r5, r4, #32
 8000774:	fa00 f304 	lsl.w	r3, r0, r4
 8000778:	fa20 f005 	lsr.w	r0, r0, r5
 800077c:	fa01 f204 	lsl.w	r2, r1, r4
 8000780:	ea40 0002 	orr.w	r0, r0, r2
 8000784:	f001 4100 	and.w	r1, r1, #2147483648	; 0x80000000
 8000788:	eb10 70d3 	adds.w	r0, r0, r3, lsr #31
 800078c:	f141 0100 	adc.w	r1, r1, #0
 8000790:	ea5e 0e43 	orrs.w	lr, lr, r3, lsl #1
 8000794:	bf08      	it	eq
 8000796:	ea20 70d3 	biceq.w	r0, r0, r3, lsr #31
 800079a:	bd70      	pop	{r4, r5, r6, pc}
 800079c:	f1c4 0520 	rsb	r5, r4, #32
 80007a0:	fa00 f205 	lsl.w	r2, r0, r5
 80007a4:	ea4e 0e02 	orr.w	lr, lr, r2
 80007a8:	fa20 f304 	lsr.w	r3, r0, r4
 80007ac:	fa01 f205 	lsl.w	r2, r1, r5
 80007b0:	ea43 0302 	orr.w	r3, r3, r2
 80007b4:	fa21 f004 	lsr.w	r0, r1, r4
 80007b8:	f001 4100 	and.w	r1, r1, #2147483648	; 0x80000000
 80007bc:	fa21 f204 	lsr.w	r2, r1, r4
 80007c0:	ea20 0002 	bic.w	r0, r0, r2
 80007c4:	eb00 70d3 	add.w	r0, r0, r3, lsr #31
 80007c8:	ea5e 0e43 	orrs.w	lr, lr, r3, lsl #1
 80007cc:	bf08      	it	eq
 80007ce:	ea20 70d3 	biceq.w	r0, r0, r3, lsr #31
 80007d2:	bd70      	pop	{r4, r5, r6, pc}
 80007d4:	f094 0f00 	teq	r4, #0
 80007d8:	d10f      	bne.n	80007fa <__aeabi_dmul+0x1c2>
 80007da:	f001 4600 	and.w	r6, r1, #2147483648	; 0x80000000
 80007de:	0040      	lsls	r0, r0, #1
 80007e0:	eb41 0101 	adc.w	r1, r1, r1
 80007e4:	f411 1f80 	tst.w	r1, #1048576	; 0x100000
 80007e8:	bf08      	it	eq
 80007ea:	3c01      	subeq	r4, #1
 80007ec:	d0f7      	beq.n	80007de <__aeabi_dmul+0x1a6>
 80007ee:	ea41 0106 	orr.w	r1, r1, r6
 80007f2:	f095 0f00 	teq	r5, #0
 80007f6:	bf18      	it	ne
 80007f8:	4770      	bxne	lr
 80007fa:	f003 4600 	and.w	r6, r3, #2147483648	; 0x80000000
 80007fe:	0052      	lsls	r2, r2, #1
 8000800:	eb43 0303 	adc.w	r3, r3, r3
 8000804:	f413 1f80 	tst.w	r3, #1048576	; 0x100000
 8000808:	bf08      	it	eq
 800080a:	3d01      	subeq	r5, #1
 800080c:	d0f7      	beq.n	80007fe <__aeabi_dmul+0x1c6>
 800080e:	ea43 0306 	orr.w	r3, r3, r6
 8000812:	4770      	bx	lr
 8000814:	ea94 0f0c 	teq	r4, ip
 8000818:	ea0c 5513 	and.w	r5, ip, r3, lsr #20
 800081c:	bf18      	it	ne
 800081e:	ea95 0f0c 	teqne	r5, ip
 8000822:	d00c      	beq.n	800083e <__aeabi_dmul+0x206>
 8000824:	ea50 0641 	orrs.w	r6, r0, r1, lsl #1
 8000828:	bf18      	it	ne
 800082a:	ea52 0643 	orrsne.w	r6, r2, r3, lsl #1
 800082e:	d1d1      	bne.n	80007d4 <__aeabi_dmul+0x19c>
 8000830:	ea81 0103 	eor.w	r1, r1, r3
 8000834:	f001 4100 	and.w	r1, r1, #2147483648	; 0x80000000
 8000838:	f04f 0000 	mov.w	r0, #0
 800083c:	bd70      	pop	{r4, r5, r6, pc}
 800083e:	ea50 0641 	orrs.w	r6, r0, r1, lsl #1
 8000842:	bf06      	itte	eq
 8000844:	4610      	moveq	r0, r2
 8000846:	4619      	moveq	r1, r3
 8000848:	ea52 0643 	orrsne.w	r6, r2, r3, lsl #1
 800084c:	d019      	beq.n	8000882 <__aeabi_dmul+0x24a>
 800084e:	ea94 0f0c 	teq	r4, ip
 8000852:	d102      	bne.n	800085a <__aeabi_dmul+0x222>
 8000854:	ea50 3601 	orrs.w	r6, r0, r1, lsl #12
 8000858:	d113      	bne.n	8000882 <__aeabi_dmul+0x24a>
 800085a:	ea95 0f0c 	teq	r5, ip
 800085e:	d105      	bne.n	800086c <__aeabi_dmul+0x234>
 8000860:	ea52 3603 	orrs.w	r6, r2, r3, lsl #12
 8000864:	bf1c      	itt	ne
 8000866:	4610      	movne	r0, r2
 8000868:	4619      	movne	r1, r3
 800086a:	d10a      	bne.n	8000882 <__aeabi_dmul+0x24a>
 800086c:	ea81 0103 	eor.w	r1, r1, r3
 8000870:	f001 4100 	and.w	r1, r1, #2147483648	; 0x80000000
 8000874:	f041 41fe 	orr.w	r1, r1, #2130706432	; 0x7f000000
 8000878:	f441 0170 	orr.w	r1, r1, #15728640	; 0xf00000
 800087c:	f04f 0000 	mov.w	r0, #0
 8000880:	bd70      	pop	{r4, r5, r6, pc}
 8000882:	f041 41fe 	orr.w	r1, r1, #2130706432	; 0x7f000000
 8000886:	f441 0178 	orr.w	r1, r1, #16252928	; 0xf80000
 800088a:	bd70      	pop	{r4, r5, r6, pc}

0800088c <__aeabi_ddiv>:
 800088c:	b570      	push	{r4, r5, r6, lr}
 800088e:	f04f 0cff 	mov.w	ip, #255	; 0xff
 8000892:	f44c 6ce0 	orr.w	ip, ip, #1792	; 0x700
 8000896:	ea1c 5411 	ands.w	r4, ip, r1, lsr #20
 800089a:	bf1d      	ittte	ne
 800089c:	ea1c 5513 	andsne.w	r5, ip, r3, lsr #20
 80008a0:	ea94 0f0c 	teqne	r4, ip
 80008a4:	ea95 0f0c 	teqne	r5, ip
 80008a8:	f000 f8a7 	bleq	80009fa <__aeabi_ddiv+0x16e>
 80008ac:	eba4 0405 	sub.w	r4, r4, r5
 80008b0:	ea81 0e03 	eor.w	lr, r1, r3
 80008b4:	ea52 3503 	orrs.w	r5, r2, r3, lsl #12
 80008b8:	ea4f 3101 	mov.w	r1, r1, lsl #12
 80008bc:	f000 8088 	beq.w	80009d0 <__aeabi_ddiv+0x144>
 80008c0:	ea4f 3303 	mov.w	r3, r3, lsl #12
 80008c4:	f04f 5580 	mov.w	r5, #268435456	; 0x10000000
 80008c8:	ea45 1313 	orr.w	r3, r5, r3, lsr #4
 80008cc:	ea43 6312 	orr.w	r3, r3, r2, lsr #24
 80008d0:	ea4f 2202 	mov.w	r2, r2, lsl #8
 80008d4:	ea45 1511 	orr.w	r5, r5, r1, lsr #4
 80008d8:	ea45 6510 	orr.w	r5, r5, r0, lsr #24
 80008dc:	ea4f 2600 	mov.w	r6, r0, lsl #8
 80008e0:	f00e 4100 	and.w	r1, lr, #2147483648	; 0x80000000
 80008e4:	429d      	cmp	r5, r3
 80008e6:	bf08      	it	eq
 80008e8:	4296      	cmpeq	r6, r2
 80008ea:	f144 04fd 	adc.w	r4, r4, #253	; 0xfd
 80008ee:	f504 7440 	add.w	r4, r4, #768	; 0x300
 80008f2:	d202      	bcs.n	80008fa <__aeabi_ddiv+0x6e>
 80008f4:	085b      	lsrs	r3, r3, #1
 80008f6:	ea4f 0232 	mov.w	r2, r2, rrx
 80008fa:	1ab6      	subs	r6, r6, r2
 80008fc:	eb65 0503 	sbc.w	r5, r5, r3
 8000900:	085b      	lsrs	r3, r3, #1
 8000902:	ea4f 0232 	mov.w	r2, r2, rrx
 8000906:	f44f 1080 	mov.w	r0, #1048576	; 0x100000
 800090a:	f44f 2c00 	mov.w	ip, #524288	; 0x80000
 800090e:	ebb6 0e02 	subs.w	lr, r6, r2
 8000912:	eb75 0e03 	sbcs.w	lr, r5, r3
 8000916:	bf22      	ittt	cs
 8000918:	1ab6      	subcs	r6, r6, r2
 800091a:	4675      	movcs	r5, lr
 800091c:	ea40 000c 	orrcs.w	r0, r0, ip
 8000920:	085b      	lsrs	r3, r3, #1
 8000922:	ea4f 0232 	mov.w	r2, r2, rrx
 8000926:	ebb6 0e02 	subs.w	lr, r6, r2
 800092a:	eb75 0e03 	sbcs.w	lr, r5, r3
 800092e:	bf22      	ittt	cs
 8000930:	1ab6      	subcs	r6, r6, r2
 8000932:	4675      	movcs	r5, lr
 8000934:	ea40 005c 	orrcs.w	r0, r0, ip, lsr #1
 8000938:	085b      	lsrs	r3, r3, #1
 800093a:	ea4f 0232 	mov.w	r2, r2, rrx
 800093e:	ebb6 0e02 	subs.w	lr, r6, r2
 8000942:	eb75 0e03 	sbcs.w	lr, r5, r3
 8000946:	bf22      	ittt	cs
 8000948:	1ab6      	subcs	r6, r6, r2
 800094a:	4675      	movcs	r5, lr
 800094c:	ea40 009c 	orrcs.w	r0, r0, ip, lsr #2
 8000950:	085b      	lsrs	r3, r3, #1
 8000952:	ea4f 0232 	mov.w	r2, r2, rrx
 8000956:	ebb6 0e02 	subs.w	lr, r6, r2
 800095a:	eb75 0e03 	sbcs.w	lr, r5, r3
 800095e:	bf22      	ittt	cs
 8000960:	1ab6      	subcs	r6, r6, r2
 8000962:	4675      	movcs	r5, lr
 8000964:	ea40 00dc 	orrcs.w	r0, r0, ip, lsr #3
 8000968:	ea55 0e06 	orrs.w	lr, r5, r6
 800096c:	d018      	beq.n	80009a0 <__aeabi_ddiv+0x114>
 800096e:	ea4f 1505 	mov.w	r5, r5, lsl #4
 8000972:	ea45 7516 	orr.w	r5, r5, r6, lsr #28
 8000976:	ea4f 1606 	mov.w	r6, r6, lsl #4
 800097a:	ea4f 03c3 	mov.w	r3, r3, lsl #3
 800097e:	ea43 7352 	orr.w	r3, r3, r2, lsr #29
 8000982:	ea4f 02c2 	mov.w	r2, r2, lsl #3
 8000986:	ea5f 1c1c 	movs.w	ip, ip, lsr #4
 800098a:	d1c0      	bne.n	800090e <__aeabi_ddiv+0x82>
 800098c:	f411 1f80 	tst.w	r1, #1048576	; 0x100000
 8000990:	d10b      	bne.n	80009aa <__aeabi_ddiv+0x11e>
 8000992:	ea41 0100 	orr.w	r1, r1, r0
 8000996:	f04f 0000 	mov.w	r0, #0
 800099a:	f04f 4c00 	mov.w	ip, #2147483648	; 0x80000000
 800099e:	e7b6      	b.n	800090e <__aeabi_ddiv+0x82>
 80009a0:	f411 1f80 	tst.w	r1, #1048576	; 0x100000
 80009a4:	bf04      	itt	eq
 80009a6:	4301      	orreq	r1, r0
 80009a8:	2000      	moveq	r0, #0
 80009aa:	f1b4 0cfd 	subs.w	ip, r4, #253	; 0xfd
 80009ae:	bf88      	it	hi
 80009b0:	f5bc 6fe0 	cmphi.w	ip, #1792	; 0x700
 80009b4:	f63f aeaf 	bhi.w	8000716 <__aeabi_dmul+0xde>
 80009b8:	ebb5 0c03 	subs.w	ip, r5, r3
 80009bc:	bf04      	itt	eq
 80009be:	ebb6 0c02 	subseq.w	ip, r6, r2
 80009c2:	ea5f 0c50 	movseq.w	ip, r0, lsr #1
 80009c6:	f150 0000 	adcs.w	r0, r0, #0
 80009ca:	eb41 5104 	adc.w	r1, r1, r4, lsl #20
 80009ce:	bd70      	pop	{r4, r5, r6, pc}
 80009d0:	f00e 4e00 	and.w	lr, lr, #2147483648	; 0x80000000
 80009d4:	ea4e 3111 	orr.w	r1, lr, r1, lsr #12
 80009d8:	eb14 045c 	adds.w	r4, r4, ip, lsr #1
 80009dc:	bfc2      	ittt	gt
 80009de:	ebd4 050c 	rsbsgt	r5, r4, ip
 80009e2:	ea41 5104 	orrgt.w	r1, r1, r4, lsl #20
 80009e6:	bd70      	popgt	{r4, r5, r6, pc}
 80009e8:	f441 1180 	orr.w	r1, r1, #1048576	; 0x100000
 80009ec:	f04f 0e00 	mov.w	lr, #0
 80009f0:	3c01      	subs	r4, #1
 80009f2:	e690      	b.n	8000716 <__aeabi_dmul+0xde>
 80009f4:	ea45 0e06 	orr.w	lr, r5, r6
 80009f8:	e68d      	b.n	8000716 <__aeabi_dmul+0xde>
 80009fa:	ea0c 5513 	and.w	r5, ip, r3, lsr #20
 80009fe:	ea94 0f0c 	teq	r4, ip
 8000a02:	bf08      	it	eq
 8000a04:	ea95 0f0c 	teqeq	r5, ip
 8000a08:	f43f af3b 	beq.w	8000882 <__aeabi_dmul+0x24a>
 8000a0c:	ea94 0f0c 	teq	r4, ip
 8000a10:	d10a      	bne.n	8000a28 <__aeabi_ddiv+0x19c>
 8000a12:	ea50 3401 	orrs.w	r4, r0, r1, lsl #12
 8000a16:	f47f af34 	bne.w	8000882 <__aeabi_dmul+0x24a>
 8000a1a:	ea95 0f0c 	teq	r5, ip
 8000a1e:	f47f af25 	bne.w	800086c <__aeabi_dmul+0x234>
 8000a22:	4610      	mov	r0, r2
 8000a24:	4619      	mov	r1, r3
 8000a26:	e72c      	b.n	8000882 <__aeabi_dmul+0x24a>
 8000a28:	ea95 0f0c 	teq	r5, ip
 8000a2c:	d106      	bne.n	8000a3c <__aeabi_ddiv+0x1b0>
 8000a2e:	ea52 3503 	orrs.w	r5, r2, r3, lsl #12
 8000a32:	f43f aefd 	beq.w	8000830 <__aeabi_dmul+0x1f8>
 8000a36:	4610      	mov	r0, r2
 8000a38:	4619      	mov	r1, r3
 8000a3a:	e722      	b.n	8000882 <__aeabi_dmul+0x24a>
 8000a3c:	ea50 0641 	orrs.w	r6, r0, r1, lsl #1
 8000a40:	bf18      	it	ne
 8000a42:	ea52 0643 	orrsne.w	r6, r2, r3, lsl #1
 8000a46:	f47f aec5 	bne.w	80007d4 <__aeabi_dmul+0x19c>
 8000a4a:	ea50 0441 	orrs.w	r4, r0, r1, lsl #1
 8000a4e:	f47f af0d 	bne.w	800086c <__aeabi_dmul+0x234>
 8000a52:	ea52 0543 	orrs.w	r5, r2, r3, lsl #1
 8000a56:	f47f aeeb 	bne.w	8000830 <__aeabi_dmul+0x1f8>
 8000a5a:	e712      	b.n	8000882 <__aeabi_dmul+0x24a>

08000a5c <__gedf2>:
 8000a5c:	f04f 3cff 	mov.w	ip, #4294967295
 8000a60:	e006      	b.n	8000a70 <__cmpdf2+0x4>
 8000a62:	bf00      	nop

08000a64 <__ledf2>:
 8000a64:	f04f 0c01 	mov.w	ip, #1
 8000a68:	e002      	b.n	8000a70 <__cmpdf2+0x4>
 8000a6a:	bf00      	nop

08000a6c <__cmpdf2>:
 8000a6c:	f04f 0c01 	mov.w	ip, #1
 8000a70:	f84d cd04 	str.w	ip, [sp, #-4]!
 8000a74:	ea4f 0c41 	mov.w	ip, r1, lsl #1
 8000a78:	ea7f 5c6c 	mvns.w	ip, ip, asr #21
 8000a7c:	ea4f 0c43 	mov.w	ip, r3, lsl #1
 8000a80:	bf18      	it	ne
 8000a82:	ea7f 5c6c 	mvnsne.w	ip, ip, asr #21
 8000a86:	d01b      	beq.n	8000ac0 <__cmpdf2+0x54>
 8000a88:	b001      	add	sp, #4
 8000a8a:	ea50 0c41 	orrs.w	ip, r0, r1, lsl #1
 8000a8e:	bf0c      	ite	eq
 8000a90:	ea52 0c43 	orrseq.w	ip, r2, r3, lsl #1
 8000a94:	ea91 0f03 	teqne	r1, r3
 8000a98:	bf02      	ittt	eq
 8000a9a:	ea90 0f02 	teqeq	r0, r2
 8000a9e:	2000      	moveq	r0, #0
 8000aa0:	4770      	bxeq	lr
 8000aa2:	f110 0f00 	cmn.w	r0, #0
 8000aa6:	ea91 0f03 	teq	r1, r3
 8000aaa:	bf58      	it	pl
 8000aac:	4299      	cmppl	r1, r3
 8000aae:	bf08      	it	eq
 8000ab0:	4290      	cmpeq	r0, r2
 8000ab2:	bf2c      	ite	cs
 8000ab4:	17d8      	asrcs	r0, r3, #31
 8000ab6:	ea6f 70e3 	mvncc.w	r0, r3, asr #31
 8000aba:	f040 0001 	orr.w	r0, r0, #1
 8000abe:	4770      	bx	lr
 8000ac0:	ea4f 0c41 	mov.w	ip, r1, lsl #1
 8000ac4:	ea7f 5c6c 	mvns.w	ip, ip, asr #21
 8000ac8:	d102      	bne.n	8000ad0 <__cmpdf2+0x64>
 8000aca:	ea50 3c01 	orrs.w	ip, r0, r1, lsl #12
 8000ace:	d107      	bne.n	8000ae0 <__cmpdf2+0x74>
 8000ad0:	ea4f 0c43 	mov.w	ip, r3, lsl #1
 8000ad4:	ea7f 5c6c 	mvns.w	ip, ip, asr #21
 8000ad8:	d1d6      	bne.n	8000a88 <__cmpdf2+0x1c>
 8000ada:	ea52 3c03 	orrs.w	ip, r2, r3, lsl #12
 8000ade:	d0d3      	beq.n	8000a88 <__cmpdf2+0x1c>
 8000ae0:	f85d 0b04 	ldr.w	r0, [sp], #4
 8000ae4:	4770      	bx	lr
 8000ae6:	bf00      	nop

08000ae8 <__aeabi_cdrcmple>:
 8000ae8:	4684      	mov	ip, r0
 8000aea:	4610      	mov	r0, r2
 8000aec:	4662      	mov	r2, ip
 8000aee:	468c      	mov	ip, r1
 8000af0:	4619      	mov	r1, r3
 8000af2:	4663      	mov	r3, ip
 8000af4:	e000      	b.n	8000af8 <__aeabi_cdcmpeq>
 8000af6:	bf00      	nop

08000af8 <__aeabi_cdcmpeq>:
 8000af8:	b501      	push	{r0, lr}
 8000afa:	f7ff ffb7 	bl	8000a6c <__cmpdf2>
 8000afe:	2800      	cmp	r0, #0
 8000b00:	bf48      	it	mi
 8000b02:	f110 0f00 	cmnmi.w	r0, #0
 8000b06:	bd01      	pop	{r0, pc}

08000b08 <__aeabi_dcmpeq>:
 8000b08:	f84d ed08 	str.w	lr, [sp, #-8]!
 8000b0c:	f7ff fff4 	bl	8000af8 <__aeabi_cdcmpeq>
 8000b10:	bf0c      	ite	eq
 8000b12:	2001      	moveq	r0, #1
 8000b14:	2000      	movne	r0, #0
 8000b16:	f85d fb08 	ldr.w	pc, [sp], #8
 8000b1a:	bf00      	nop

08000b1c <__aeabi_dcmplt>:
 8000b1c:	f84d ed08 	str.w	lr, [sp, #-8]!
 8000b20:	f7ff ffea 	bl	8000af8 <__aeabi_cdcmpeq>
 8000b24:	bf34      	ite	cc
 8000b26:	2001      	movcc	r0, #1
 8000b28:	2000      	movcs	r0, #0
 8000b2a:	f85d fb08 	ldr.w	pc, [sp], #8
 8000b2e:	bf00      	nop

08000b30 <__aeabi_dcmple>:
 8000b30:	f84d ed08 	str.w	lr, [sp, #-8]!
 8000b34:	f7ff ffe0 	bl	8000af8 <__aeabi_cdcmpeq>
 8000b38:	bf94      	ite	ls
 8000b3a:	2001      	movls	r0, #1
 8000b3c:	2000      	movhi	r0, #0
 8000b3e:	f85d fb08 	ldr.w	pc, [sp], #8
 8000b42:	bf00      	nop

08000b44 <__aeabi_dcmpge>:
 8000b44:	f84d ed08 	str.w	lr, [sp, #-8]!
 8000b48:	f7ff ffce 	bl	8000ae8 <__aeabi_cdrcmple>
 8000b4c:	bf94      	ite	ls
 8000b4e:	2001      	movls	r0, #1
 8000b50:	2000      	movhi	r0, #0
 8000b52:	f85d fb08 	ldr.w	pc, [sp], #8
 8000b56:	bf00      	nop

08000b58 <__aeabi_dcmpgt>:
 8000b58:	f84d ed08 	str.w	lr, [sp, #-8]!
 8000b5c:	f7ff ffc4 	bl	8000ae8 <__aeabi_cdrcmple>
 8000b60:	bf34      	ite	cc
 8000b62:	2001      	movcc	r0, #1
 8000b64:	2000      	movcs	r0, #0
 8000b66:	f85d fb08 	ldr.w	pc, [sp], #8
 8000b6a:	bf00      	nop

08000b6c <__aeabi_dcmpun>:
 8000b6c:	ea4f 0c41 	mov.w	ip, r1, lsl #1
 8000b70:	ea7f 5c6c 	mvns.w	ip, ip, asr #21
 8000b74:	d102      	bne.n	8000b7c <__aeabi_dcmpun+0x10>
 8000b76:	ea50 3c01 	orrs.w	ip, r0, r1, lsl #12
 8000b7a:	d10a      	bne.n	8000b92 <__aeabi_dcmpun+0x26>
 8000b7c:	ea4f 0c43 	mov.w	ip, r3, lsl #1
 8000b80:	ea7f 5c6c 	mvns.w	ip, ip, asr #21
 8000b84:	d102      	bne.n	8000b8c <__aeabi_dcmpun+0x20>
 8000b86:	ea52 3c03 	orrs.w	ip, r2, r3, lsl #12
 8000b8a:	d102      	bne.n	8000b92 <__aeabi_dcmpun+0x26>
 8000b8c:	f04f 0000 	mov.w	r0, #0
 8000b90:	4770      	bx	lr
 8000b92:	f04f 0001 	mov.w	r0, #1
 8000b96:	4770      	bx	lr

08000b98 <__aeabi_d2iz>:
 8000b98:	ea4f 0241 	mov.w	r2, r1, lsl #1
 8000b9c:	f512 1200 	adds.w	r2, r2, #2097152	; 0x200000
 8000ba0:	d215      	bcs.n	8000bce <__aeabi_d2iz+0x36>
 8000ba2:	d511      	bpl.n	8000bc8 <__aeabi_d2iz+0x30>
 8000ba4:	f46f 7378 	mvn.w	r3, #992	; 0x3e0
 8000ba8:	ebb3 5262 	subs.w	r2, r3, r2, asr #21
 8000bac:	d912      	bls.n	8000bd4 <__aeabi_d2iz+0x3c>
 8000bae:	ea4f 23c1 	mov.w	r3, r1, lsl #11
 8000bb2:	f043 4300 	orr.w	r3, r3, #2147483648	; 0x80000000
 8000bb6:	ea43 5350 	orr.w	r3, r3, r0, lsr #21
 8000bba:	f011 4f00 	tst.w	r1, #2147483648	; 0x80000000
 8000bbe:	fa23 f002 	lsr.w	r0, r3, r2
 8000bc2:	bf18      	it	ne
 8000bc4:	4240      	negne	r0, r0
 8000bc6:	4770      	bx	lr
 8000bc8:	f04f 0000 	mov.w	r0, #0
 8000bcc:	4770      	bx	lr
 8000bce:	ea50 3001 	orrs.w	r0, r0, r1, lsl #12
 8000bd2:	d105      	bne.n	8000be0 <__aeabi_d2iz+0x48>
 8000bd4:	f011 4000 	ands.w	r0, r1, #2147483648	; 0x80000000
 8000bd8:	bf08      	it	eq
 8000bda:	f06f 4000 	mvneq.w	r0, #2147483648	; 0x80000000
 8000bde:	4770      	bx	lr
 8000be0:	f04f 0000 	mov.w	r0, #0
 8000be4:	4770      	bx	lr
 8000be6:	bf00      	nop

08000be8 <__aeabi_d2uiz>:
 8000be8:	004a      	lsls	r2, r1, #1
 8000bea:	d211      	bcs.n	8000c10 <__aeabi_d2uiz+0x28>
 8000bec:	f512 1200 	adds.w	r2, r2, #2097152	; 0x200000
 8000bf0:	d211      	bcs.n	8000c16 <__aeabi_d2uiz+0x2e>
 8000bf2:	d50d      	bpl.n	8000c10 <__aeabi_d2uiz+0x28>
 8000bf4:	f46f 7378 	mvn.w	r3, #992	; 0x3e0
 8000bf8:	ebb3 5262 	subs.w	r2, r3, r2, asr #21
 8000bfc:	d40e      	bmi.n	8000c1c <__aeabi_d2uiz+0x34>
 8000bfe:	ea4f 23c1 	mov.w	r3, r1, lsl #11
 8000c02:	f043 4300 	orr.w	r3, r3, #2147483648	; 0x80000000
 8000c06:	ea43 5350 	orr.w	r3, r3, r0, lsr #21
 8000c0a:	fa23 f002 	lsr.w	r0, r3, r2
 8000c0e:	4770      	bx	lr
 8000c10:	f04f 0000 	mov.w	r0, #0
 8000c14:	4770      	bx	lr
 8000c16:	ea50 3001 	orrs.w	r0, r0, r1, lsl #12
 8000c1a:	d102      	bne.n	8000c22 <__aeabi_d2uiz+0x3a>
 8000c1c:	f04f 30ff 	mov.w	r0, #4294967295
 8000c20:	4770      	bx	lr
 8000c22:	f04f 0000 	mov.w	r0, #0
 8000c26:	4770      	bx	lr

08000c28 <__aeabi_d2f>:
 8000c28:	ea4f 0241 	mov.w	r2, r1, lsl #1
 8000c2c:	f1b2 43e0 	subs.w	r3, r2, #1879048192	; 0x70000000
 8000c30:	bf24      	itt	cs
 8000c32:	f5b3 1c00 	subscs.w	ip, r3, #2097152	; 0x200000
 8000c36:	f1dc 5cfe 	rsbscs	ip, ip, #532676608	; 0x1fc00000
 8000c3a:	d90d      	bls.n	8000c58 <__aeabi_d2f+0x30>
 8000c3c:	f001 4c00 	and.w	ip, r1, #2147483648	; 0x80000000
 8000c40:	ea4f 02c0 	mov.w	r2, r0, lsl #3
 8000c44:	ea4c 7050 	orr.w	r0, ip, r0, lsr #29
 8000c48:	f1b2 4f00 	cmp.w	r2, #2147483648	; 0x80000000
 8000c4c:	eb40 0083 	adc.w	r0, r0, r3, lsl #2
 8000c50:	bf08      	it	eq
 8000c52:	f020 0001 	biceq.w	r0, r0, #1
 8000c56:	4770      	bx	lr
 8000c58:	f011 4f80 	tst.w	r1, #1073741824	; 0x40000000
 8000c5c:	d121      	bne.n	8000ca2 <__aeabi_d2f+0x7a>
 8000c5e:	f113 7238 	adds.w	r2, r3, #48234496	; 0x2e00000
 8000c62:	bfbc      	itt	lt
 8000c64:	f001 4000 	andlt.w	r0, r1, #2147483648	; 0x80000000
 8000c68:	4770      	bxlt	lr
 8000c6a:	f441 1180 	orr.w	r1, r1, #1048576	; 0x100000
 8000c6e:	ea4f 5252 	mov.w	r2, r2, lsr #21
 8000c72:	f1c2 0218 	rsb	r2, r2, #24
 8000c76:	f1c2 0c20 	rsb	ip, r2, #32
 8000c7a:	fa10 f30c 	lsls.w	r3, r0, ip
 8000c7e:	fa20 f002 	lsr.w	r0, r0, r2
 8000c82:	bf18      	it	ne
 8000c84:	f040 0001 	orrne.w	r0, r0, #1
 8000c88:	ea4f 23c1 	mov.w	r3, r1, lsl #11
 8000c8c:	ea4f 23d3 	mov.w	r3, r3, lsr #11
 8000c90:	fa03 fc0c 	lsl.w	ip, r3, ip
 8000c94:	ea40 000c 	orr.w	r0, r0, ip
 8000c98:	fa23 f302 	lsr.w	r3, r3, r2
 8000c9c:	ea4f 0343 	mov.w	r3, r3, lsl #1
 8000ca0:	e7cc      	b.n	8000c3c <__aeabi_d2f+0x14>
 8000ca2:	ea7f 5362 	mvns.w	r3, r2, asr #21
 8000ca6:	d107      	bne.n	8000cb8 <__aeabi_d2f+0x90>
 8000ca8:	ea50 3301 	orrs.w	r3, r0, r1, lsl #12
 8000cac:	bf1e      	ittt	ne
 8000cae:	f04f 40fe 	movne.w	r0, #2130706432	; 0x7f000000
 8000cb2:	f440 0040 	orrne.w	r0, r0, #12582912	; 0xc00000
 8000cb6:	4770      	bxne	lr
 8000cb8:	f001 4000 	and.w	r0, r1, #2147483648	; 0x80000000
 8000cbc:	f040 40fe 	orr.w	r0, r0, #2130706432	; 0x7f000000
 8000cc0:	f440 0000 	orr.w	r0, r0, #8388608	; 0x800000
 8000cc4:	4770      	bx	lr
 8000cc6:	bf00      	nop

08000cc8 <__aeabi_uldivmod>:
 8000cc8:	b953      	cbnz	r3, 8000ce0 <__aeabi_uldivmod+0x18>
 8000cca:	b94a      	cbnz	r2, 8000ce0 <__aeabi_uldivmod+0x18>
 8000ccc:	2900      	cmp	r1, #0
 8000cce:	bf08      	it	eq
 8000cd0:	2800      	cmpeq	r0, #0
 8000cd2:	bf1c      	itt	ne
 8000cd4:	f04f 31ff 	movne.w	r1, #4294967295
 8000cd8:	f04f 30ff 	movne.w	r0, #4294967295
 8000cdc:	f000 b972 	b.w	8000fc4 <__aeabi_idiv0>
 8000ce0:	f1ad 0c08 	sub.w	ip, sp, #8
 8000ce4:	e96d ce04 	strd	ip, lr, [sp, #-16]!
 8000ce8:	f000 f806 	bl	8000cf8 <__udivmoddi4>
 8000cec:	f8dd e004 	ldr.w	lr, [sp, #4]
 8000cf0:	e9dd 2302 	ldrd	r2, r3, [sp, #8]
 8000cf4:	b004      	add	sp, #16
 8000cf6:	4770      	bx	lr

08000cf8 <__udivmoddi4>:
 8000cf8:	e92d 47f0 	stmdb	sp!, {r4, r5, r6, r7, r8, r9, sl, lr}
 8000cfc:	9e08      	ldr	r6, [sp, #32]
 8000cfe:	4604      	mov	r4, r0
 8000d00:	4688      	mov	r8, r1
 8000d02:	2b00      	cmp	r3, #0
 8000d04:	d14b      	bne.n	8000d9e <__udivmoddi4+0xa6>
 8000d06:	428a      	cmp	r2, r1
 8000d08:	4615      	mov	r5, r2
 8000d0a:	d967      	bls.n	8000ddc <__udivmoddi4+0xe4>
 8000d0c:	fab2 f282 	clz	r2, r2
 8000d10:	b14a      	cbz	r2, 8000d26 <__udivmoddi4+0x2e>
 8000d12:	f1c2 0720 	rsb	r7, r2, #32
 8000d16:	fa01 f302 	lsl.w	r3, r1, r2
 8000d1a:	fa20 f707 	lsr.w	r7, r0, r7
 8000d1e:	4095      	lsls	r5, r2
 8000d20:	ea47 0803 	orr.w	r8, r7, r3
 8000d24:	4094      	lsls	r4, r2
 8000d26:	ea4f 4e15 	mov.w	lr, r5, lsr #16
 8000d2a:	0c23      	lsrs	r3, r4, #16
 8000d2c:	fbb8 f7fe 	udiv	r7, r8, lr
 8000d30:	fa1f fc85 	uxth.w	ip, r5
 8000d34:	fb0e 8817 	mls	r8, lr, r7, r8
 8000d38:	ea43 4308 	orr.w	r3, r3, r8, lsl #16
 8000d3c:	fb07 f10c 	mul.w	r1, r7, ip
 8000d40:	4299      	cmp	r1, r3
 8000d42:	d909      	bls.n	8000d58 <__udivmoddi4+0x60>
 8000d44:	18eb      	adds	r3, r5, r3
 8000d46:	f107 30ff 	add.w	r0, r7, #4294967295
 8000d4a:	f080 811b 	bcs.w	8000f84 <__udivmoddi4+0x28c>
 8000d4e:	4299      	cmp	r1, r3
 8000d50:	f240 8118 	bls.w	8000f84 <__udivmoddi4+0x28c>
 8000d54:	3f02      	subs	r7, #2
 8000d56:	442b      	add	r3, r5
 8000d58:	1a5b      	subs	r3, r3, r1
 8000d5a:	b2a4      	uxth	r4, r4
 8000d5c:	fbb3 f0fe 	udiv	r0, r3, lr
 8000d60:	fb0e 3310 	mls	r3, lr, r0, r3
 8000d64:	ea44 4403 	orr.w	r4, r4, r3, lsl #16
 8000d68:	fb00 fc0c 	mul.w	ip, r0, ip
 8000d6c:	45a4      	cmp	ip, r4
 8000d6e:	d909      	bls.n	8000d84 <__udivmoddi4+0x8c>
 8000d70:	192c      	adds	r4, r5, r4
 8000d72:	f100 33ff 	add.w	r3, r0, #4294967295
 8000d76:	f080 8107 	bcs.w	8000f88 <__udivmoddi4+0x290>
 8000d7a:	45a4      	cmp	ip, r4
 8000d7c:	f240 8104 	bls.w	8000f88 <__udivmoddi4+0x290>
 8000d80:	3802      	subs	r0, #2
 8000d82:	442c      	add	r4, r5
 8000d84:	ea40 4007 	orr.w	r0, r0, r7, lsl #16
 8000d88:	eba4 040c 	sub.w	r4, r4, ip
 8000d8c:	2700      	movs	r7, #0
 8000d8e:	b11e      	cbz	r6, 8000d98 <__udivmoddi4+0xa0>
 8000d90:	40d4      	lsrs	r4, r2
 8000d92:	2300      	movs	r3, #0
 8000d94:	e9c6 4300 	strd	r4, r3, [r6]
 8000d98:	4639      	mov	r1, r7
 8000d9a:	e8bd 87f0 	ldmia.w	sp!, {r4, r5, r6, r7, r8, r9, sl, pc}
 8000d9e:	428b      	cmp	r3, r1
 8000da0:	d909      	bls.n	8000db6 <__udivmoddi4+0xbe>
 8000da2:	2e00      	cmp	r6, #0
 8000da4:	f000 80eb 	beq.w	8000f7e <__udivmoddi4+0x286>
 8000da8:	2700      	movs	r7, #0
 8000daa:	e9c6 0100 	strd	r0, r1, [r6]
 8000dae:	4638      	mov	r0, r7
 8000db0:	4639      	mov	r1, r7
 8000db2:	e8bd 87f0 	ldmia.w	sp!, {r4, r5, r6, r7, r8, r9, sl, pc}
 8000db6:	fab3 f783 	clz	r7, r3
 8000dba:	2f00      	cmp	r7, #0
 8000dbc:	d147      	bne.n	8000e4e <__udivmoddi4+0x156>
 8000dbe:	428b      	cmp	r3, r1
 8000dc0:	d302      	bcc.n	8000dc8 <__udivmoddi4+0xd0>
 8000dc2:	4282      	cmp	r2, r0
 8000dc4:	f200 80fa 	bhi.w	8000fbc <__udivmoddi4+0x2c4>
 8000dc8:	1a84      	subs	r4, r0, r2
 8000dca:	eb61 0303 	sbc.w	r3, r1, r3
 8000dce:	2001      	movs	r0, #1
 8000dd0:	4698      	mov	r8, r3
 8000dd2:	2e00      	cmp	r6, #0
 8000dd4:	d0e0      	beq.n	8000d98 <__udivmoddi4+0xa0>
 8000dd6:	e9c6 4800 	strd	r4, r8, [r6]
 8000dda:	e7dd      	b.n	8000d98 <__udivmoddi4+0xa0>
 8000ddc:	b902      	cbnz	r2, 8000de0 <__udivmoddi4+0xe8>
 8000dde:	deff      	udf	#255	; 0xff
 8000de0:	fab2 f282 	clz	r2, r2
 8000de4:	2a00      	cmp	r2, #0
 8000de6:	f040 808f 	bne.w	8000f08 <__udivmoddi4+0x210>
 8000dea:	1b49      	subs	r1, r1, r5
 8000dec:	ea4f 4e15 	mov.w	lr, r5, lsr #16
 8000df0:	fa1f f885 	uxth.w	r8, r5
 8000df4:	2701      	movs	r7, #1
 8000df6:	fbb1 fcfe 	udiv	ip, r1, lr
 8000dfa:	0c23      	lsrs	r3, r4, #16
 8000dfc:	fb0e 111c 	mls	r1, lr, ip, r1
 8000e00:	ea43 4301 	orr.w	r3, r3, r1, lsl #16
 8000e04:	fb08 f10c 	mul.w	r1, r8, ip
 8000e08:	4299      	cmp	r1, r3
 8000e0a:	d907      	bls.n	8000e1c <__udivmoddi4+0x124>
 8000e0c:	18eb      	adds	r3, r5, r3
 8000e0e:	f10c 30ff 	add.w	r0, ip, #4294967295
 8000e12:	d202      	bcs.n	8000e1a <__udivmoddi4+0x122>
 8000e14:	4299      	cmp	r1, r3
 8000e16:	f200 80cd 	bhi.w	8000fb4 <__udivmoddi4+0x2bc>
 8000e1a:	4684      	mov	ip, r0
 8000e1c:	1a59      	subs	r1, r3, r1
 8000e1e:	b2a3      	uxth	r3, r4
 8000e20:	fbb1 f0fe 	udiv	r0, r1, lr
 8000e24:	fb0e 1410 	mls	r4, lr, r0, r1
 8000e28:	ea43 4404 	orr.w	r4, r3, r4, lsl #16
 8000e2c:	fb08 f800 	mul.w	r8, r8, r0
 8000e30:	45a0      	cmp	r8, r4
 8000e32:	d907      	bls.n	8000e44 <__udivmoddi4+0x14c>
 8000e34:	192c      	adds	r4, r5, r4
 8000e36:	f100 33ff 	add.w	r3, r0, #4294967295
 8000e3a:	d202      	bcs.n	8000e42 <__udivmoddi4+0x14a>
 8000e3c:	45a0      	cmp	r8, r4
 8000e3e:	f200 80b6 	bhi.w	8000fae <__udivmoddi4+0x2b6>
 8000e42:	4618      	mov	r0, r3
 8000e44:	eba4 0408 	sub.w	r4, r4, r8
 8000e48:	ea40 400c 	orr.w	r0, r0, ip, lsl #16
 8000e4c:	e79f      	b.n	8000d8e <__udivmoddi4+0x96>
 8000e4e:	f1c7 0c20 	rsb	ip, r7, #32
 8000e52:	40bb      	lsls	r3, r7
 8000e54:	fa22 fe0c 	lsr.w	lr, r2, ip
 8000e58:	ea4e 0e03 	orr.w	lr, lr, r3
 8000e5c:	fa01 f407 	lsl.w	r4, r1, r7
 8000e60:	fa20 f50c 	lsr.w	r5, r0, ip
 8000e64:	fa21 f30c 	lsr.w	r3, r1, ip
 8000e68:	ea4f 481e 	mov.w	r8, lr, lsr #16
 8000e6c:	4325      	orrs	r5, r4
 8000e6e:	fbb3 f9f8 	udiv	r9, r3, r8
 8000e72:	0c2c      	lsrs	r4, r5, #16
 8000e74:	fb08 3319 	mls	r3, r8, r9, r3
 8000e78:	fa1f fa8e 	uxth.w	sl, lr
 8000e7c:	ea44 4303 	orr.w	r3, r4, r3, lsl #16
 8000e80:	fb09 f40a 	mul.w	r4, r9, sl
 8000e84:	429c      	cmp	r4, r3
 8000e86:	fa02 f207 	lsl.w	r2, r2, r7
 8000e8a:	fa00 f107 	lsl.w	r1, r0, r7
 8000e8e:	d90b      	bls.n	8000ea8 <__udivmoddi4+0x1b0>
 8000e90:	eb1e 0303 	adds.w	r3, lr, r3
 8000e94:	f109 30ff 	add.w	r0, r9, #4294967295
 8000e98:	f080 8087 	bcs.w	8000faa <__udivmoddi4+0x2b2>
 8000e9c:	429c      	cmp	r4, r3
 8000e9e:	f240 8084 	bls.w	8000faa <__udivmoddi4+0x2b2>
 8000ea2:	f1a9 0902 	sub.w	r9, r9, #2
 8000ea6:	4473      	add	r3, lr
 8000ea8:	1b1b      	subs	r3, r3, r4
 8000eaa:	b2ad      	uxth	r5, r5
 8000eac:	fbb3 f0f8 	udiv	r0, r3, r8
 8000eb0:	fb08 3310 	mls	r3, r8, r0, r3
 8000eb4:	ea45 4403 	orr.w	r4, r5, r3, lsl #16
 8000eb8:	fb00 fa0a 	mul.w	sl, r0, sl
 8000ebc:	45a2      	cmp	sl, r4
 8000ebe:	d908      	bls.n	8000ed2 <__udivmoddi4+0x1da>
 8000ec0:	eb1e 0404 	adds.w	r4, lr, r4
 8000ec4:	f100 33ff 	add.w	r3, r0, #4294967295
 8000ec8:	d26b      	bcs.n	8000fa2 <__udivmoddi4+0x2aa>
 8000eca:	45a2      	cmp	sl, r4
 8000ecc:	d969      	bls.n	8000fa2 <__udivmoddi4+0x2aa>
 8000ece:	3802      	subs	r0, #2
 8000ed0:	4474      	add	r4, lr
 8000ed2:	ea40 4009 	orr.w	r0, r0, r9, lsl #16
 8000ed6:	fba0 8902 	umull	r8, r9, r0, r2
 8000eda:	eba4 040a 	sub.w	r4, r4, sl
 8000ede:	454c      	cmp	r4, r9
 8000ee0:	46c2      	mov	sl, r8
 8000ee2:	464b      	mov	r3, r9
 8000ee4:	d354      	bcc.n	8000f90 <__udivmoddi4+0x298>
 8000ee6:	d051      	beq.n	8000f8c <__udivmoddi4+0x294>
 8000ee8:	2e00      	cmp	r6, #0
 8000eea:	d069      	beq.n	8000fc0 <__udivmoddi4+0x2c8>
 8000eec:	ebb1 050a 	subs.w	r5, r1, sl
 8000ef0:	eb64 0403 	sbc.w	r4, r4, r3
 8000ef4:	fa04 fc0c 	lsl.w	ip, r4, ip
 8000ef8:	40fd      	lsrs	r5, r7
 8000efa:	40fc      	lsrs	r4, r7
 8000efc:	ea4c 0505 	orr.w	r5, ip, r5
 8000f00:	e9c6 5400 	strd	r5, r4, [r6]
 8000f04:	2700      	movs	r7, #0
 8000f06:	e747      	b.n	8000d98 <__udivmoddi4+0xa0>
 8000f08:	f1c2 0320 	rsb	r3, r2, #32
 8000f0c:	fa20 f703 	lsr.w	r7, r0, r3
 8000f10:	4095      	lsls	r5, r2
 8000f12:	fa01 f002 	lsl.w	r0, r1, r2
 8000f16:	fa21 f303 	lsr.w	r3, r1, r3
 8000f1a:	ea4f 4e15 	mov.w	lr, r5, lsr #16
 8000f1e:	4338      	orrs	r0, r7
 8000f20:	0c01      	lsrs	r1, r0, #16
 8000f22:	fbb3 f7fe 	udiv	r7, r3, lr
 8000f26:	fa1f f885 	uxth.w	r8, r5
 8000f2a:	fb0e 3317 	mls	r3, lr, r7, r3
 8000f2e:	ea41 4103 	orr.w	r1, r1, r3, lsl #16
 8000f32:	fb07 f308 	mul.w	r3, r7, r8
 8000f36:	428b      	cmp	r3, r1
 8000f38:	fa04 f402 	lsl.w	r4, r4, r2
 8000f3c:	d907      	bls.n	8000f4e <__udivmoddi4+0x256>
 8000f3e:	1869      	adds	r1, r5, r1
 8000f40:	f107 3cff 	add.w	ip, r7, #4294967295
 8000f44:	d22f      	bcs.n	8000fa6 <__udivmoddi4+0x2ae>
 8000f46:	428b      	cmp	r3, r1
 8000f48:	d92d      	bls.n	8000fa6 <__udivmoddi4+0x2ae>
 8000f4a:	3f02      	subs	r7, #2
 8000f4c:	4429      	add	r1, r5
 8000f4e:	1acb      	subs	r3, r1, r3
 8000f50:	b281      	uxth	r1, r0
 8000f52:	fbb3 f0fe 	udiv	r0, r3, lr
 8000f56:	fb0e 3310 	mls	r3, lr, r0, r3
 8000f5a:	ea41 4103 	orr.w	r1, r1, r3, lsl #16
 8000f5e:	fb00 f308 	mul.w	r3, r0, r8
 8000f62:	428b      	cmp	r3, r1
 8000f64:	d907      	bls.n	8000f76 <__udivmoddi4+0x27e>
 8000f66:	1869      	adds	r1, r5, r1
 8000f68:	f100 3cff 	add.w	ip, r0, #4294967295
 8000f6c:	d217      	bcs.n	8000f9e <__udivmoddi4+0x2a6>
 8000f6e:	428b      	cmp	r3, r1
 8000f70:	d915      	bls.n	8000f9e <__udivmoddi4+0x2a6>
 8000f72:	3802      	subs	r0, #2
 8000f74:	4429      	add	r1, r5
 8000f76:	1ac9      	subs	r1, r1, r3
 8000f78:	ea40 4707 	orr.w	r7, r0, r7, lsl #16
 8000f7c:	e73b      	b.n	8000df6 <__udivmoddi4+0xfe>
 8000f7e:	4637      	mov	r7, r6
 8000f80:	4630      	mov	r0, r6
 8000f82:	e709      	b.n	8000d98 <__udivmoddi4+0xa0>
 8000f84:	4607      	mov	r7, r0
 8000f86:	e6e7      	b.n	8000d58 <__udivmoddi4+0x60>
 8000f88:	4618      	mov	r0, r3
 8000f8a:	e6fb      	b.n	8000d84 <__udivmoddi4+0x8c>
 8000f8c:	4541      	cmp	r1, r8
 8000f8e:	d2ab      	bcs.n	8000ee8 <__udivmoddi4+0x1f0>
 8000f90:	ebb8 0a02 	subs.w	sl, r8, r2
 8000f94:	eb69 020e 	sbc.w	r2, r9, lr
 8000f98:	3801      	subs	r0, #1
 8000f9a:	4613      	mov	r3, r2
 8000f9c:	e7a4      	b.n	8000ee8 <__udivmoddi4+0x1f0>
 8000f9e:	4660      	mov	r0, ip
 8000fa0:	e7e9      	b.n	8000f76 <__udivmoddi4+0x27e>
 8000fa2:	4618      	mov	r0, r3
 8000fa4:	e795      	b.n	8000ed2 <__udivmoddi4+0x1da>
 8000fa6:	4667      	mov	r7, ip
 8000fa8:	e7d1      	b.n	8000f4e <__udivmoddi4+0x256>
 8000faa:	4681      	mov	r9, r0
 8000fac:	e77c      	b.n	8000ea8 <__udivmoddi4+0x1b0>
 8000fae:	3802      	subs	r0, #2
 8000fb0:	442c      	add	r4, r5
 8000fb2:	e747      	b.n	8000e44 <__udivmoddi4+0x14c>
 8000fb4:	f1ac 0c02 	sub.w	ip, ip, #2
 8000fb8:	442b      	add	r3, r5
 8000fba:	e72f      	b.n	8000e1c <__udivmoddi4+0x124>
 8000fbc:	4638      	mov	r0, r7
 8000fbe:	e708      	b.n	8000dd2 <__udivmoddi4+0xda>
 8000fc0:	4637      	mov	r7, r6
 8000fc2:	e6e9      	b.n	8000d98 <__udivmoddi4+0xa0>

08000fc4 <__aeabi_idiv0>:
 8000fc4:	4770      	bx	lr
 8000fc6:	bf00      	nop

08000fc8 <IHM01_Init>:


//###################
//### Initialisierung
void IHM01_Init()
{
 8000fc8:	b580      	push	{r7, lr}
 8000fca:	b082      	sub	sp, #8
 8000fcc:	af00      	add	r7, sp, #0

	CurrMovDat.Unit	= 1;
 8000fce:	4b42      	ldr	r3, [pc, #264]	; (80010d8 <IHM01_Init+0x110>)
 8000fd0:	2201      	movs	r2, #1
 8000fd2:	f883 2020 	strb.w	r2, [r3, #32]
	CurrMovDat.Delay[4]	= 0;
 8000fd6:	4b40      	ldr	r3, [pc, #256]	; (80010d8 <IHM01_Init+0x110>)
 8000fd8:	2200      	movs	r2, #0
 8000fda:	855a      	strh	r2, [r3, #42]	; 0x2a
	CurrMovDat.Count[4]	= 0;
 8000fdc:	4b3e      	ldr	r3, [pc, #248]	; (80010d8 <IHM01_Init+0x110>)
 8000fde:	2200      	movs	r2, #0
 8000fe0:	869a      	strh	r2, [r3, #52]	; 0x34
	SollMovDat.Unit	= 1;
 8000fe2:	4b3e      	ldr	r3, [pc, #248]	; (80010dc <IHM01_Init+0x114>)
 8000fe4:	2201      	movs	r2, #1
 8000fe6:	f883 2020 	strb.w	r2, [r3, #32]
	SollMovDat.Delay[4]	= 0;
 8000fea:	4b3c      	ldr	r3, [pc, #240]	; (80010dc <IHM01_Init+0x114>)
 8000fec:	2200      	movs	r2, #0
 8000fee:	855a      	strh	r2, [r3, #42]	; 0x2a
	SollMovDat.Count[4]	= 0;
 8000ff0:	4b3a      	ldr	r3, [pc, #232]	; (80010dc <IHM01_Init+0x114>)
 8000ff2:	2200      	movs	r2, #0
 8000ff4:	869a      	strh	r2, [r3, #52]	; 0x34

	for(uint8_t i=0; i<4; i++)
 8000ff6:	2300      	movs	r3, #0
 8000ff8:	71fb      	strb	r3, [r7, #7]
 8000ffa:	e04c      	b.n	8001096 <IHM01_Init+0xce>
		{
		CurrMovDat.ZielPos[i]	= 0;
 8000ffc:	79fb      	ldrb	r3, [r7, #7]
 8000ffe:	4a36      	ldr	r2, [pc, #216]	; (80010d8 <IHM01_Init+0x110>)
 8001000:	2100      	movs	r1, #0
 8001002:	f822 1013 	strh.w	r1, [r2, r3, lsl #1]
		CurrMovDat.Speed[i]		= 0;
 8001006:	79fb      	ldrb	r3, [r7, #7]
 8001008:	4a33      	ldr	r2, [pc, #204]	; (80010d8 <IHM01_Init+0x110>)
 800100a:	3304      	adds	r3, #4
 800100c:	2100      	movs	r1, #0
 800100e:	f822 1013 	strh.w	r1, [r2, r3, lsl #1]
		CurrMovDat.Accel[i]		= 0;
 8001012:	79fb      	ldrb	r3, [r7, #7]
 8001014:	4a30      	ldr	r2, [pc, #192]	; (80010d8 <IHM01_Init+0x110>)
 8001016:	3308      	adds	r3, #8
 8001018:	2100      	movs	r1, #0
 800101a:	f822 1013 	strh.w	r1, [r2, r3, lsl #1]
		CurrMovDat.Decel[i]		= 0;
 800101e:	79fb      	ldrb	r3, [r7, #7]
 8001020:	4a2d      	ldr	r2, [pc, #180]	; (80010d8 <IHM01_Init+0x110>)
 8001022:	330c      	adds	r3, #12
 8001024:	2100      	movs	r1, #0
 8001026:	f822 1013 	strh.w	r1, [r2, r3, lsl #1]
		CurrMovDat.Delay[i]		= 0;
 800102a:	79fb      	ldrb	r3, [r7, #7]
 800102c:	4a2a      	ldr	r2, [pc, #168]	; (80010d8 <IHM01_Init+0x110>)
 800102e:	3310      	adds	r3, #16
 8001030:	005b      	lsls	r3, r3, #1
 8001032:	4413      	add	r3, r2
 8001034:	2200      	movs	r2, #0
 8001036:	805a      	strh	r2, [r3, #2]
		CurrMovDat.Count[i]		= 0;
 8001038:	79fb      	ldrb	r3, [r7, #7]
 800103a:	4a27      	ldr	r2, [pc, #156]	; (80010d8 <IHM01_Init+0x110>)
 800103c:	3314      	adds	r3, #20
 800103e:	005b      	lsls	r3, r3, #1
 8001040:	4413      	add	r3, r2
 8001042:	2200      	movs	r2, #0
 8001044:	809a      	strh	r2, [r3, #4]
		SollMovDat.ZielPos[i]	= 0;
 8001046:	79fb      	ldrb	r3, [r7, #7]
 8001048:	4a24      	ldr	r2, [pc, #144]	; (80010dc <IHM01_Init+0x114>)
 800104a:	2100      	movs	r1, #0
 800104c:	f822 1013 	strh.w	r1, [r2, r3, lsl #1]
		SollMovDat.Speed[i]		= 0;
 8001050:	79fb      	ldrb	r3, [r7, #7]
 8001052:	4a22      	ldr	r2, [pc, #136]	; (80010dc <IHM01_Init+0x114>)
 8001054:	3304      	adds	r3, #4
 8001056:	2100      	movs	r1, #0
 8001058:	f822 1013 	strh.w	r1, [r2, r3, lsl #1]
		SollMovDat.Accel[i]		= 0;
 800105c:	79fb      	ldrb	r3, [r7, #7]
 800105e:	4a1f      	ldr	r2, [pc, #124]	; (80010dc <IHM01_Init+0x114>)
 8001060:	3308      	adds	r3, #8
 8001062:	2100      	movs	r1, #0
 8001064:	f822 1013 	strh.w	r1, [r2, r3, lsl #1]
		SollMovDat.Decel[i]		= 0;
 8001068:	79fb      	ldrb	r3, [r7, #7]
 800106a:	4a1c      	ldr	r2, [pc, #112]	; (80010dc <IHM01_Init+0x114>)
 800106c:	330c      	adds	r3, #12
 800106e:	2100      	movs	r1, #0
 8001070:	f822 1013 	strh.w	r1, [r2, r3, lsl #1]
		SollMovDat.Delay[i]		= 0;
 8001074:	79fb      	ldrb	r3, [r7, #7]
 8001076:	4a19      	ldr	r2, [pc, #100]	; (80010dc <IHM01_Init+0x114>)
 8001078:	3310      	adds	r3, #16
 800107a:	005b      	lsls	r3, r3, #1
 800107c:	4413      	add	r3, r2
 800107e:	2200      	movs	r2, #0
 8001080:	805a      	strh	r2, [r3, #2]
		SollMovDat.Count[i]		= 0;
 8001082:	79fb      	ldrb	r3, [r7, #7]
 8001084:	4a15      	ldr	r2, [pc, #84]	; (80010dc <IHM01_Init+0x114>)
 8001086:	3314      	adds	r3, #20
 8001088:	005b      	lsls	r3, r3, #1
 800108a:	4413      	add	r3, r2
 800108c:	2200      	movs	r2, #0
 800108e:	809a      	strh	r2, [r3, #4]
	for(uint8_t i=0; i<4; i++)
 8001090:	79fb      	ldrb	r3, [r7, #7]
 8001092:	3301      	adds	r3, #1
 8001094:	71fb      	strb	r3, [r7, #7]
 8001096:	79fb      	ldrb	r3, [r7, #7]
 8001098:	2b03      	cmp	r3, #3
 800109a:	d9af      	bls.n	8000ffc <IHM01_Init+0x34>
		}

	srd.Run_State = STOP; //Motorflag erstmal auf STOP setzen
 800109c:	4b10      	ldr	r3, [pc, #64]	; (80010e0 <IHM01_Init+0x118>)
 800109e:	2200      	movs	r2, #0
 80010a0:	701a      	strb	r2, [r3, #0]

	HAL_GPIO_WritePin(IHM01_SPI_CS_GPIO_Port, IHM01_SPI_CS_Pin, GPIO_PIN_SET); //CS  erstmal High setzen (Inaktiv)
 80010a2:	2201      	movs	r2, #1
 80010a4:	2140      	movs	r1, #64	; 0x40
 80010a6:	480f      	ldr	r0, [pc, #60]	; (80010e4 <IHM01_Init+0x11c>)
 80010a8:	f002 f83e 	bl	8003128 <HAL_GPIO_WritePin>
	HAL_GPIO_WritePin(IHM01_STBY_GPIO_Port, IHM01_STBY_Pin, GPIO_PIN_SET);	//Board Einschalten
 80010ac:	2201      	movs	r2, #1
 80010ae:	2180      	movs	r1, #128	; 0x80
 80010b0:	480d      	ldr	r0, [pc, #52]	; (80010e8 <IHM01_Init+0x120>)
 80010b2:	f002 f839 	bl	8003128 <HAL_GPIO_WritePin>
	IBEX_Delay(100000);
 80010b6:	480d      	ldr	r0, [pc, #52]	; (80010ec <IHM01_Init+0x124>)
 80010b8:	f000 f81a 	bl	80010f0 <IBEX_Delay>

	IHM01_SetStepMode(0);	//Stepmode auf Fullstep
 80010bc:	2000      	movs	r0, #0
 80010be:	f000 fd01 	bl	8001ac4 <IHM01_SetStepMode>
	IHM01_GetStatus(); // Alle Fehler erstmal löschen
 80010c2:	f000 fd91 	bl	8001be8 <IHM01_GetStatus>

	IHM01_SetOverCurrentLimit(11); //4,5A
 80010c6:	200b      	movs	r0, #11
 80010c8:	f000 fcc8 	bl	8001a5c <IHM01_SetOverCurrentLimit>
	IHM01_MoveToNull(); //Nullpunkt suchen
 80010cc:	f000 f936 	bl	800133c <IHM01_MoveToNull>

}
 80010d0:	bf00      	nop
 80010d2:	3708      	adds	r7, #8
 80010d4:	46bd      	mov	sp, r7
 80010d6:	bd80      	pop	{r7, pc}
 80010d8:	200003f0 	.word	0x200003f0
 80010dc:	2000039c 	.word	0x2000039c
 80010e0:	2000043c 	.word	0x2000043c
 80010e4:	40020400 	.word	0x40020400
 80010e8:	40020800 	.word	0x40020800
 80010ec:	000186a0 	.word	0x000186a0

080010f0 <IBEX_Delay>:

//###########################
//### Allgemeines Delay in µs
void IBEX_Delay(uint32_t MicroSec)
{
 80010f0:	b480      	push	{r7}
 80010f2:	b083      	sub	sp, #12
 80010f4:	af00      	add	r7, sp, #0
 80010f6:	6078      	str	r0, [r7, #4]
	__HAL_TIM_SET_COUNTER(&htim5,0);
 80010f8:	4b08      	ldr	r3, [pc, #32]	; (800111c <IBEX_Delay+0x2c>)
 80010fa:	681b      	ldr	r3, [r3, #0]
 80010fc:	2200      	movs	r2, #0
 80010fe:	625a      	str	r2, [r3, #36]	; 0x24
	while (__HAL_TIM_GET_COUNTER(&htim5) <= MicroSec);
 8001100:	bf00      	nop
 8001102:	4b06      	ldr	r3, [pc, #24]	; (800111c <IBEX_Delay+0x2c>)
 8001104:	681b      	ldr	r3, [r3, #0]
 8001106:	6a5b      	ldr	r3, [r3, #36]	; 0x24
 8001108:	687a      	ldr	r2, [r7, #4]
 800110a:	429a      	cmp	r2, r3
 800110c:	d2f9      	bcs.n	8001102 <IBEX_Delay+0x12>
}
 800110e:	bf00      	nop
 8001110:	370c      	adds	r7, #12
 8001112:	46bd      	mov	sp, r7
 8001114:	f85d 7b04 	ldr.w	r7, [sp], #4
 8001118:	4770      	bx	lr
 800111a:	bf00      	nop
 800111c:	200004fc 	.word	0x200004fc

08001120 <Ablauf_Auto>:

//#########################
//### Ablauf der Testzyklen
void Ablauf_Auto()
{
 8001120:	b590      	push	{r4, r7, lr}
 8001122:	b087      	sub	sp, #28
 8001124:	af02      	add	r7, sp, #8

	for(uint32_t al = 0 ; al < SollMovDat.Count[4] ; al++) //Wiederholungen über alles
 8001126:	2300      	movs	r3, #0
 8001128:	60fb      	str	r3, [r7, #12]
 800112a:	e0dc      	b.n	80012e6 <Ablauf_Auto+0x1c6>
		{
		CurrMovDat.Count[4] = al;
 800112c:	68fb      	ldr	r3, [r7, #12]
 800112e:	b29a      	uxth	r2, r3
 8001130:	4b72      	ldr	r3, [pc, #456]	; (80012fc <Ablauf_Auto+0x1dc>)
 8001132:	869a      	strh	r2, [r3, #52]	; 0x34
		for(uint32_t il = 0; il < SollMovDat.Count[1] ; il++) //Wiederholungen Move 0 & 1
 8001134:	2300      	movs	r3, #0
 8001136:	60bb      	str	r3, [r7, #8]
 8001138:	e058      	b.n	80011ec <Ablauf_Auto+0xcc>
			{
			CurrMovDat.Count[1] = il;
 800113a:	68bb      	ldr	r3, [r7, #8]
 800113c:	b29a      	uxth	r2, r3
 800113e:	4b6f      	ldr	r3, [pc, #444]	; (80012fc <Ablauf_Auto+0x1dc>)
 8001140:	85da      	strh	r2, [r3, #46]	; 0x2e
			if (FLAG_STOP) {FLAG_STOP=FALSE; return;} //Abbruch
 8001142:	4b6f      	ldr	r3, [pc, #444]	; (8001300 <Ablauf_Auto+0x1e0>)
 8001144:	781b      	ldrb	r3, [r3, #0]
 8001146:	2b00      	cmp	r3, #0
 8001148:	d003      	beq.n	8001152 <Ablauf_Auto+0x32>
 800114a:	4b6d      	ldr	r3, [pc, #436]	; (8001300 <Ablauf_Auto+0x1e0>)
 800114c:	2200      	movs	r2, #0
 800114e:	701a      	strb	r2, [r3, #0]
 8001150:	e0d0      	b.n	80012f4 <Ablauf_Auto+0x1d4>
			IHM01_MoveTo(SollMovDat.ZielPos[0], SollMovDat.Speed[0], SollMovDat.Accel[0], SollMovDat.Decel[0], SollMovDat.Unit); //Move 0
 8001152:	4b6c      	ldr	r3, [pc, #432]	; (8001304 <Ablauf_Auto+0x1e4>)
 8001154:	8818      	ldrh	r0, [r3, #0]
 8001156:	4b6b      	ldr	r3, [pc, #428]	; (8001304 <Ablauf_Auto+0x1e4>)
 8001158:	8919      	ldrh	r1, [r3, #8]
 800115a:	4b6a      	ldr	r3, [pc, #424]	; (8001304 <Ablauf_Auto+0x1e4>)
 800115c:	8a1a      	ldrh	r2, [r3, #16]
 800115e:	4b69      	ldr	r3, [pc, #420]	; (8001304 <Ablauf_Auto+0x1e4>)
 8001160:	8b1c      	ldrh	r4, [r3, #24]
 8001162:	4b68      	ldr	r3, [pc, #416]	; (8001304 <Ablauf_Auto+0x1e4>)
 8001164:	f893 3020 	ldrb.w	r3, [r3, #32]
 8001168:	9300      	str	r3, [sp, #0]
 800116a:	4623      	mov	r3, r4
 800116c:	f000 f93c 	bl	80013e8 <IHM01_MoveTo>
			if (FLAG_STOP) {FLAG_STOP=FALSE; return;} //Abbruch
 8001170:	4b63      	ldr	r3, [pc, #396]	; (8001300 <Ablauf_Auto+0x1e0>)
 8001172:	781b      	ldrb	r3, [r3, #0]
 8001174:	2b00      	cmp	r3, #0
 8001176:	d003      	beq.n	8001180 <Ablauf_Auto+0x60>
 8001178:	4b61      	ldr	r3, [pc, #388]	; (8001300 <Ablauf_Auto+0x1e0>)
 800117a:	2200      	movs	r2, #0
 800117c:	701a      	strb	r2, [r3, #0]
 800117e:	e0b9      	b.n	80012f4 <Ablauf_Auto+0x1d4>
			IBEX_Delay(SollMovDat.Delay[0]*1000); //Delay nach Move 0
 8001180:	4b60      	ldr	r3, [pc, #384]	; (8001304 <Ablauf_Auto+0x1e4>)
 8001182:	8c5b      	ldrh	r3, [r3, #34]	; 0x22
 8001184:	461a      	mov	r2, r3
 8001186:	f44f 737a 	mov.w	r3, #1000	; 0x3e8
 800118a:	fb03 f302 	mul.w	r3, r3, r2
 800118e:	4618      	mov	r0, r3
 8001190:	f7ff ffae 	bl	80010f0 <IBEX_Delay>

			if (FLAG_STOP) {FLAG_STOP=FALSE; return;} //Abbruch
 8001194:	4b5a      	ldr	r3, [pc, #360]	; (8001300 <Ablauf_Auto+0x1e0>)
 8001196:	781b      	ldrb	r3, [r3, #0]
 8001198:	2b00      	cmp	r3, #0
 800119a:	d003      	beq.n	80011a4 <Ablauf_Auto+0x84>
 800119c:	4b58      	ldr	r3, [pc, #352]	; (8001300 <Ablauf_Auto+0x1e0>)
 800119e:	2200      	movs	r2, #0
 80011a0:	701a      	strb	r2, [r3, #0]
 80011a2:	e0a7      	b.n	80012f4 <Ablauf_Auto+0x1d4>
			IHM01_MoveTo(SollMovDat.ZielPos[1], SollMovDat.Speed[1], SollMovDat.Accel[1], SollMovDat.Decel[1], SollMovDat.Unit); //Move 1
 80011a4:	4b57      	ldr	r3, [pc, #348]	; (8001304 <Ablauf_Auto+0x1e4>)
 80011a6:	8858      	ldrh	r0, [r3, #2]
 80011a8:	4b56      	ldr	r3, [pc, #344]	; (8001304 <Ablauf_Auto+0x1e4>)
 80011aa:	8959      	ldrh	r1, [r3, #10]
 80011ac:	4b55      	ldr	r3, [pc, #340]	; (8001304 <Ablauf_Auto+0x1e4>)
 80011ae:	8a5a      	ldrh	r2, [r3, #18]
 80011b0:	4b54      	ldr	r3, [pc, #336]	; (8001304 <Ablauf_Auto+0x1e4>)
 80011b2:	8b5c      	ldrh	r4, [r3, #26]
 80011b4:	4b53      	ldr	r3, [pc, #332]	; (8001304 <Ablauf_Auto+0x1e4>)
 80011b6:	f893 3020 	ldrb.w	r3, [r3, #32]
 80011ba:	9300      	str	r3, [sp, #0]
 80011bc:	4623      	mov	r3, r4
 80011be:	f000 f913 	bl	80013e8 <IHM01_MoveTo>
			if (FLAG_STOP) {FLAG_STOP=FALSE; return;} //Abbruch
 80011c2:	4b4f      	ldr	r3, [pc, #316]	; (8001300 <Ablauf_Auto+0x1e0>)
 80011c4:	781b      	ldrb	r3, [r3, #0]
 80011c6:	2b00      	cmp	r3, #0
 80011c8:	d003      	beq.n	80011d2 <Ablauf_Auto+0xb2>
 80011ca:	4b4d      	ldr	r3, [pc, #308]	; (8001300 <Ablauf_Auto+0x1e0>)
 80011cc:	2200      	movs	r2, #0
 80011ce:	701a      	strb	r2, [r3, #0]
 80011d0:	e090      	b.n	80012f4 <Ablauf_Auto+0x1d4>
			IBEX_Delay(SollMovDat.Delay[1]*1000); //Delay nach Move 1
 80011d2:	4b4c      	ldr	r3, [pc, #304]	; (8001304 <Ablauf_Auto+0x1e4>)
 80011d4:	8c9b      	ldrh	r3, [r3, #36]	; 0x24
 80011d6:	461a      	mov	r2, r3
 80011d8:	f44f 737a 	mov.w	r3, #1000	; 0x3e8
 80011dc:	fb03 f302 	mul.w	r3, r3, r2
 80011e0:	4618      	mov	r0, r3
 80011e2:	f7ff ff85 	bl	80010f0 <IBEX_Delay>
		for(uint32_t il = 0; il < SollMovDat.Count[1] ; il++) //Wiederholungen Move 0 & 1
 80011e6:	68bb      	ldr	r3, [r7, #8]
 80011e8:	3301      	adds	r3, #1
 80011ea:	60bb      	str	r3, [r7, #8]
 80011ec:	4b45      	ldr	r3, [pc, #276]	; (8001304 <Ablauf_Auto+0x1e4>)
 80011ee:	8ddb      	ldrh	r3, [r3, #46]	; 0x2e
 80011f0:	461a      	mov	r2, r3
 80011f2:	68bb      	ldr	r3, [r7, #8]
 80011f4:	4293      	cmp	r3, r2
 80011f6:	d3a0      	bcc.n	800113a <Ablauf_Auto+0x1a>
			}

		for(uint32_t il = 0; il < SollMovDat.Count[3] ; il++) //Wiederholungen Move 2 & 3
 80011f8:	2300      	movs	r3, #0
 80011fa:	607b      	str	r3, [r7, #4]
 80011fc:	e058      	b.n	80012b0 <Ablauf_Auto+0x190>
			{
			CurrMovDat.Count[3] = il;
 80011fe:	687b      	ldr	r3, [r7, #4]
 8001200:	b29a      	uxth	r2, r3
 8001202:	4b3e      	ldr	r3, [pc, #248]	; (80012fc <Ablauf_Auto+0x1dc>)
 8001204:	865a      	strh	r2, [r3, #50]	; 0x32
			if (FLAG_STOP) {FLAG_STOP=FALSE; return;} //Abbruch
 8001206:	4b3e      	ldr	r3, [pc, #248]	; (8001300 <Ablauf_Auto+0x1e0>)
 8001208:	781b      	ldrb	r3, [r3, #0]
 800120a:	2b00      	cmp	r3, #0
 800120c:	d003      	beq.n	8001216 <Ablauf_Auto+0xf6>
 800120e:	4b3c      	ldr	r3, [pc, #240]	; (8001300 <Ablauf_Auto+0x1e0>)
 8001210:	2200      	movs	r2, #0
 8001212:	701a      	strb	r2, [r3, #0]
 8001214:	e06e      	b.n	80012f4 <Ablauf_Auto+0x1d4>
			IHM01_MoveTo(SollMovDat.ZielPos[2], SollMovDat.Speed[2], SollMovDat.Accel[2], SollMovDat.Decel[2], SollMovDat.Unit); //Move 2
 8001216:	4b3b      	ldr	r3, [pc, #236]	; (8001304 <Ablauf_Auto+0x1e4>)
 8001218:	8898      	ldrh	r0, [r3, #4]
 800121a:	4b3a      	ldr	r3, [pc, #232]	; (8001304 <Ablauf_Auto+0x1e4>)
 800121c:	8999      	ldrh	r1, [r3, #12]
 800121e:	4b39      	ldr	r3, [pc, #228]	; (8001304 <Ablauf_Auto+0x1e4>)
 8001220:	8a9a      	ldrh	r2, [r3, #20]
 8001222:	4b38      	ldr	r3, [pc, #224]	; (8001304 <Ablauf_Auto+0x1e4>)
 8001224:	8b9c      	ldrh	r4, [r3, #28]
 8001226:	4b37      	ldr	r3, [pc, #220]	; (8001304 <Ablauf_Auto+0x1e4>)
 8001228:	f893 3020 	ldrb.w	r3, [r3, #32]
 800122c:	9300      	str	r3, [sp, #0]
 800122e:	4623      	mov	r3, r4
 8001230:	f000 f8da 	bl	80013e8 <IHM01_MoveTo>
			if (FLAG_STOP) {FLAG_STOP=FALSE; return;} //Abbruch
 8001234:	4b32      	ldr	r3, [pc, #200]	; (8001300 <Ablauf_Auto+0x1e0>)
 8001236:	781b      	ldrb	r3, [r3, #0]
 8001238:	2b00      	cmp	r3, #0
 800123a:	d003      	beq.n	8001244 <Ablauf_Auto+0x124>
 800123c:	4b30      	ldr	r3, [pc, #192]	; (8001300 <Ablauf_Auto+0x1e0>)
 800123e:	2200      	movs	r2, #0
 8001240:	701a      	strb	r2, [r3, #0]
 8001242:	e057      	b.n	80012f4 <Ablauf_Auto+0x1d4>
			IBEX_Delay(SollMovDat.Delay[2]*1000); //Delay nach Move 2
 8001244:	4b2f      	ldr	r3, [pc, #188]	; (8001304 <Ablauf_Auto+0x1e4>)
 8001246:	8cdb      	ldrh	r3, [r3, #38]	; 0x26
 8001248:	461a      	mov	r2, r3
 800124a:	f44f 737a 	mov.w	r3, #1000	; 0x3e8
 800124e:	fb03 f302 	mul.w	r3, r3, r2
 8001252:	4618      	mov	r0, r3
 8001254:	f7ff ff4c 	bl	80010f0 <IBEX_Delay>

			if (FLAG_STOP) {FLAG_STOP=FALSE; return;} //Abbruch
 8001258:	4b29      	ldr	r3, [pc, #164]	; (8001300 <Ablauf_Auto+0x1e0>)
 800125a:	781b      	ldrb	r3, [r3, #0]
 800125c:	2b00      	cmp	r3, #0
 800125e:	d003      	beq.n	8001268 <Ablauf_Auto+0x148>
 8001260:	4b27      	ldr	r3, [pc, #156]	; (8001300 <Ablauf_Auto+0x1e0>)
 8001262:	2200      	movs	r2, #0
 8001264:	701a      	strb	r2, [r3, #0]
 8001266:	e045      	b.n	80012f4 <Ablauf_Auto+0x1d4>
			IHM01_MoveTo(SollMovDat.ZielPos[3], SollMovDat.Speed[3], SollMovDat.Accel[3], SollMovDat.Decel[3], SollMovDat.Unit); //Move 3
 8001268:	4b26      	ldr	r3, [pc, #152]	; (8001304 <Ablauf_Auto+0x1e4>)
 800126a:	88d8      	ldrh	r0, [r3, #6]
 800126c:	4b25      	ldr	r3, [pc, #148]	; (8001304 <Ablauf_Auto+0x1e4>)
 800126e:	89d9      	ldrh	r1, [r3, #14]
 8001270:	4b24      	ldr	r3, [pc, #144]	; (8001304 <Ablauf_Auto+0x1e4>)
 8001272:	8ada      	ldrh	r2, [r3, #22]
 8001274:	4b23      	ldr	r3, [pc, #140]	; (8001304 <Ablauf_Auto+0x1e4>)
 8001276:	8bdc      	ldrh	r4, [r3, #30]
 8001278:	4b22      	ldr	r3, [pc, #136]	; (8001304 <Ablauf_Auto+0x1e4>)
 800127a:	f893 3020 	ldrb.w	r3, [r3, #32]
 800127e:	9300      	str	r3, [sp, #0]
 8001280:	4623      	mov	r3, r4
 8001282:	f000 f8b1 	bl	80013e8 <IHM01_MoveTo>
			if (FLAG_STOP) {FLAG_STOP=FALSE; return;} //Abbruch
 8001286:	4b1e      	ldr	r3, [pc, #120]	; (8001300 <Ablauf_Auto+0x1e0>)
 8001288:	781b      	ldrb	r3, [r3, #0]
 800128a:	2b00      	cmp	r3, #0
 800128c:	d003      	beq.n	8001296 <Ablauf_Auto+0x176>
 800128e:	4b1c      	ldr	r3, [pc, #112]	; (8001300 <Ablauf_Auto+0x1e0>)
 8001290:	2200      	movs	r2, #0
 8001292:	701a      	strb	r2, [r3, #0]
 8001294:	e02e      	b.n	80012f4 <Ablauf_Auto+0x1d4>
			IBEX_Delay(SollMovDat.Delay[3]*1000); //Delay nach Move 3
 8001296:	4b1b      	ldr	r3, [pc, #108]	; (8001304 <Ablauf_Auto+0x1e4>)
 8001298:	8d1b      	ldrh	r3, [r3, #40]	; 0x28
 800129a:	461a      	mov	r2, r3
 800129c:	f44f 737a 	mov.w	r3, #1000	; 0x3e8
 80012a0:	fb03 f302 	mul.w	r3, r3, r2
 80012a4:	4618      	mov	r0, r3
 80012a6:	f7ff ff23 	bl	80010f0 <IBEX_Delay>
		for(uint32_t il = 0; il < SollMovDat.Count[3] ; il++) //Wiederholungen Move 2 & 3
 80012aa:	687b      	ldr	r3, [r7, #4]
 80012ac:	3301      	adds	r3, #1
 80012ae:	607b      	str	r3, [r7, #4]
 80012b0:	4b14      	ldr	r3, [pc, #80]	; (8001304 <Ablauf_Auto+0x1e4>)
 80012b2:	8e5b      	ldrh	r3, [r3, #50]	; 0x32
 80012b4:	461a      	mov	r2, r3
 80012b6:	687b      	ldr	r3, [r7, #4]
 80012b8:	4293      	cmp	r3, r2
 80012ba:	d3a0      	bcc.n	80011fe <Ablauf_Auto+0xde>
			}
		if (FLAG_STOP) {FLAG_STOP=FALSE; return;} //Abbruch
 80012bc:	4b10      	ldr	r3, [pc, #64]	; (8001300 <Ablauf_Auto+0x1e0>)
 80012be:	781b      	ldrb	r3, [r3, #0]
 80012c0:	2b00      	cmp	r3, #0
 80012c2:	d003      	beq.n	80012cc <Ablauf_Auto+0x1ac>
 80012c4:	4b0e      	ldr	r3, [pc, #56]	; (8001300 <Ablauf_Auto+0x1e0>)
 80012c6:	2200      	movs	r2, #0
 80012c8:	701a      	strb	r2, [r3, #0]
 80012ca:	e013      	b.n	80012f4 <Ablauf_Auto+0x1d4>
		IBEX_Delay(SollMovDat.Delay[4]*1000); //Delay zwischen den Komplettwiederholungen
 80012cc:	4b0d      	ldr	r3, [pc, #52]	; (8001304 <Ablauf_Auto+0x1e4>)
 80012ce:	8d5b      	ldrh	r3, [r3, #42]	; 0x2a
 80012d0:	461a      	mov	r2, r3
 80012d2:	f44f 737a 	mov.w	r3, #1000	; 0x3e8
 80012d6:	fb03 f302 	mul.w	r3, r3, r2
 80012da:	4618      	mov	r0, r3
 80012dc:	f7ff ff08 	bl	80010f0 <IBEX_Delay>
	for(uint32_t al = 0 ; al < SollMovDat.Count[4] ; al++) //Wiederholungen über alles
 80012e0:	68fb      	ldr	r3, [r7, #12]
 80012e2:	3301      	adds	r3, #1
 80012e4:	60fb      	str	r3, [r7, #12]
 80012e6:	4b07      	ldr	r3, [pc, #28]	; (8001304 <Ablauf_Auto+0x1e4>)
 80012e8:	8e9b      	ldrh	r3, [r3, #52]	; 0x34
 80012ea:	461a      	mov	r2, r3
 80012ec:	68fb      	ldr	r3, [r7, #12]
 80012ee:	4293      	cmp	r3, r2
 80012f0:	f4ff af1c 	bcc.w	800112c <Ablauf_Auto+0xc>
		}
}
 80012f4:	3714      	adds	r7, #20
 80012f6:	46bd      	mov	sp, r7
 80012f8:	bd90      	pop	{r4, r7, pc}
 80012fa:	bf00      	nop
 80012fc:	200003f0 	.word	0x200003f0
 8001300:	200003e9 	.word	0x200003e9
 8001304:	2000039c 	.word	0x2000039c

08001308 <IHM01_MotorOn>:

//#####################
//### Motor einschalten
void IHM01_MotorOn()
{
 8001308:	b580      	push	{r7, lr}
 800130a:	af00      	add	r7, sp, #0
	IHM01_PowerStageEnable(TRUE);   //Endstufe einschalten
 800130c:	2001      	movs	r0, #1
 800130e:	f000 fc53 	bl	8001bb8 <IHM01_PowerStageEnable>
	IBEX_Delay(10000);
 8001312:	f242 7010 	movw	r0, #10000	; 0x2710
 8001316:	f7ff feeb 	bl	80010f0 <IBEX_Delay>
	IHM01_StartPwm();				//PWM einschalten
 800131a:	f001 fa21 	bl	8002760 <IHM01_StartPwm>
}
 800131e:	bf00      	nop
 8001320:	bd80      	pop	{r7, pc}

08001322 <IHM01_MotorOff>:

//#####################
//### Motor ausschalten
void IHM01_MotorOff()
{
 8001322:	b580      	push	{r7, lr}
 8001324:	af00      	add	r7, sp, #0
	IHM01_StopPwm();				//PWM ausschalten
 8001326:	f001 fa25 	bl	8002774 <IHM01_StopPwm>
	IBEX_Delay(10000);
 800132a:	f242 7010 	movw	r0, #10000	; 0x2710
 800132e:	f7ff fedf 	bl	80010f0 <IBEX_Delay>
	IHM01_PowerStageEnable(FALSE);  //Endstufe ausschalten
 8001332:	2000      	movs	r0, #0
 8001334:	f000 fc40 	bl	8001bb8 <IHM01_PowerStageEnable>
}
 8001338:	bf00      	nop
 800133a:	bd80      	pop	{r7, pc}

0800133c <IHM01_MoveToNull>:

//################
// Position Nullen
void IHM01_MoveToNull()
{
 800133c:	b580      	push	{r7, lr}
 800133e:	b082      	sub	sp, #8
 8001340:	af02      	add	r7, sp, #8

	//Wenn schon Endlagenschalter, erstmal 100 Steps in die andere Richtung fahren
	HAL_NVIC_DisableIRQ(EXTI1_IRQn);
 8001342:	2007      	movs	r0, #7
 8001344:	f001 fd2b 	bl	8002d9e <HAL_NVIC_DisableIRQ>
	if(!HAL_GPIO_ReadPin(IHM01_ELS_IN_GPIO_Port, IHM01_ELS_IN_Pin))
 8001348:	2102      	movs	r1, #2
 800134a:	4823      	ldr	r0, [pc, #140]	; (80013d8 <IHM01_MoveToNull+0x9c>)
 800134c:	f001 fed4 	bl	80030f8 <HAL_GPIO_ReadPin>
 8001350:	4603      	mov	r3, r0
 8001352:	2b00      	cmp	r3, #0
 8001354:	d10d      	bne.n	8001372 <IHM01_MoveToNull+0x36>
		{
		IHM01_IstPosSW = 100;
 8001356:	4b21      	ldr	r3, [pc, #132]	; (80013dc <IHM01_MoveToNull+0xa0>)
 8001358:	2264      	movs	r2, #100	; 0x64
 800135a:	801a      	strh	r2, [r3, #0]
		IHM01_MoveTo(0, 2000, 10000, 10000,1);
 800135c:	2301      	movs	r3, #1
 800135e:	9300      	str	r3, [sp, #0]
 8001360:	f242 7310 	movw	r3, #10000	; 0x2710
 8001364:	f242 7210 	movw	r2, #10000	; 0x2710
 8001368:	f44f 61fa 	mov.w	r1, #2000	; 0x7d0
 800136c:	2000      	movs	r0, #0
 800136e:	f000 f83b 	bl	80013e8 <IHM01_MoveTo>
		}

	IBEX_Delay(100000);
 8001372:	481b      	ldr	r0, [pc, #108]	; (80013e0 <IHM01_MoveToNull+0xa4>)
 8001374:	f7ff febc 	bl	80010f0 <IBEX_Delay>

	//Fahren bis Enlagenschalter. Stop kommt vom ELS-Interrupt
	HAL_NVIC_EnableIRQ(EXTI1_IRQn);
 8001378:	2007      	movs	r0, #7
 800137a:	f001 fd02 	bl	8002d82 <HAL_NVIC_EnableIRQ>
	IHM01_IstPosSW = 0;
 800137e:	4b17      	ldr	r3, [pc, #92]	; (80013dc <IHM01_MoveToNull+0xa0>)
 8001380:	2200      	movs	r2, #0
 8001382:	801a      	strh	r2, [r3, #0]
	IHM01_MoveTo(2000, 1000, 10000, 10000,1);
 8001384:	2301      	movs	r3, #1
 8001386:	9300      	str	r3, [sp, #0]
 8001388:	f242 7310 	movw	r3, #10000	; 0x2710
 800138c:	f242 7210 	movw	r2, #10000	; 0x2710
 8001390:	f44f 717a 	mov.w	r1, #1000	; 0x3e8
 8001394:	f44f 60fa 	mov.w	r0, #2000	; 0x7d0
 8001398:	f000 f826 	bl	80013e8 <IHM01_MoveTo>

	//Stück vom Endlagenschalter wegfahren. Letzter anfahrbarer Punkt
	HAL_NVIC_DisableIRQ(EXTI1_IRQn);
 800139c:	2007      	movs	r0, #7
 800139e:	f001 fcfe 	bl	8002d9e <HAL_NVIC_DisableIRQ>
	IBEX_Delay(100000);
 80013a2:	480f      	ldr	r0, [pc, #60]	; (80013e0 <IHM01_MoveToNull+0xa4>)
 80013a4:	f7ff fea4 	bl	80010f0 <IBEX_Delay>

	//Neue Nullposition anfahren und Ende
	IHM01_IstPosSW = 1765;
 80013a8:	4b0c      	ldr	r3, [pc, #48]	; (80013dc <IHM01_MoveToNull+0xa0>)
 80013aa:	f240 62e5 	movw	r2, #1765	; 0x6e5
 80013ae:	801a      	strh	r2, [r3, #0]
	IHM01_MoveTo(0, 1000, 10000, 10000,1);
 80013b0:	2301      	movs	r3, #1
 80013b2:	9300      	str	r3, [sp, #0]
 80013b4:	f242 7310 	movw	r3, #10000	; 0x2710
 80013b8:	f242 7210 	movw	r2, #10000	; 0x2710
 80013bc:	f44f 717a 	mov.w	r1, #1000	; 0x3e8
 80013c0:	2000      	movs	r0, #0
 80013c2:	f000 f811 	bl	80013e8 <IHM01_MoveTo>
	IBEX_Delay(100000);
 80013c6:	4806      	ldr	r0, [pc, #24]	; (80013e0 <IHM01_MoveToNull+0xa4>)
 80013c8:	f7ff fe92 	bl	80010f0 <IBEX_Delay>

	HAL_NVIC_EnableIRQ(EXTI1_IRQn);
 80013cc:	2007      	movs	r0, #7
 80013ce:	f001 fcd8 	bl	8002d82 <HAL_NVIC_EnableIRQ>
}
 80013d2:	bf00      	nop
 80013d4:	46bd      	mov	sp, r7
 80013d6:	bd80      	pop	{r7, pc}
 80013d8:	40020000 	.word	0x40020000
 80013dc:	20000454 	.word	0x20000454
 80013e0:	000186a0 	.word	0x000186a0
 80013e4:	00000000 	.word	0x00000000

080013e8 <IHM01_MoveTo>:
//#########################################################################################
//### Fahre an die Position mit der Geschwindigkeit und Beschleunigung.
//### Hier nur die Berechnungen. Ablauf im HAL_TIM_PWM_PulseFinishedCallback von Timer2
//### Units(v & a): 0: 0,01*RAD, 1:Steps, 2:mm 3:mg/mm
void IHM01_MoveTo(uint16_t ZielPos, uint16_t Speed, uint16_t Accel, uint16_t Decel, uint8_t Units)
{
 80013e8:	b590      	push	{r4, r7, lr}
 80013ea:	b087      	sub	sp, #28
 80013ec:	af00      	add	r7, sp, #0
 80013ee:	4604      	mov	r4, r0
 80013f0:	4608      	mov	r0, r1
 80013f2:	4611      	mov	r1, r2
 80013f4:	461a      	mov	r2, r3
 80013f6:	4623      	mov	r3, r4
 80013f8:	80fb      	strh	r3, [r7, #6]
 80013fa:	4603      	mov	r3, r0
 80013fc:	80bb      	strh	r3, [r7, #4]
 80013fe:	460b      	mov	r3, r1
 8001400:	807b      	strh	r3, [r7, #2]
 8001402:	4613      	mov	r3, r2
 8001404:	803b      	strh	r3, [r7, #0]
	 * 1: Steps & Steps/s & Steps/s2
	 * 2: mm    & mm/s    & mm/s2
	 * 3: mm    & mm/s    & mg			 */


	switch(Units)
 8001406:	f897 3028 	ldrb.w	r3, [r7, #40]	; 0x28
 800140a:	2b03      	cmp	r3, #3
 800140c:	f200 820b 	bhi.w	8001826 <IHM01_MoveTo+0x43e>
 8001410:	a201      	add	r2, pc, #4	; (adr r2, 8001418 <IHM01_MoveTo+0x30>)
 8001412:	f852 f023 	ldr.w	pc, [r2, r3, lsl #2]
 8001416:	bf00      	nop
 8001418:	08001429 	.word	0x08001429
 800141c:	08001479 	.word	0x08001479
 8001420:	08001581 	.word	0x08001581
 8001424:	080016cd 	.word	0x080016cd
		{
		case 0:	// in 0,01 RAD. Außer Korrekturfaktoren, nichts machen ,da der Algo schon mit Steps & RAD arbeitet
			Steps = ZielPos - IHM01_IstPosSW; 	//Rel. Weg = Zielposition - Istposition;
 8001428:	88fb      	ldrh	r3, [r7, #6]
 800142a:	4aa3      	ldr	r2, [pc, #652]	; (80016b8 <IHM01_MoveTo+0x2d0>)
 800142c:	8812      	ldrh	r2, [r2, #0]
 800142e:	1a9b      	subs	r3, r3, r2
 8001430:	60fb      	str	r3, [r7, #12]
			Accel = (uint32_t) (Accel * ACCEL_CORR);
 8001432:	887b      	ldrh	r3, [r7, #2]
 8001434:	4618      	mov	r0, r3
 8001436:	f7ff f895 	bl	8000564 <__aeabi_i2d>
 800143a:	a399      	add	r3, pc, #612	; (adr r3, 80016a0 <IHM01_MoveTo+0x2b8>)
 800143c:	e9d3 2300 	ldrd	r2, r3, [r3]
 8001440:	f7ff f8fa 	bl	8000638 <__aeabi_dmul>
 8001444:	4603      	mov	r3, r0
 8001446:	460c      	mov	r4, r1
 8001448:	4618      	mov	r0, r3
 800144a:	4621      	mov	r1, r4
 800144c:	f7ff fbcc 	bl	8000be8 <__aeabi_d2uiz>
 8001450:	4603      	mov	r3, r0
 8001452:	807b      	strh	r3, [r7, #2]
			Decel = (uint32_t) (Decel * DECEL_CORR);
 8001454:	883b      	ldrh	r3, [r7, #0]
 8001456:	4618      	mov	r0, r3
 8001458:	f7ff f884 	bl	8000564 <__aeabi_i2d>
 800145c:	a392      	add	r3, pc, #584	; (adr r3, 80016a8 <IHM01_MoveTo+0x2c0>)
 800145e:	e9d3 2300 	ldrd	r2, r3, [r3]
 8001462:	f7ff f8e9 	bl	8000638 <__aeabi_dmul>
 8001466:	4603      	mov	r3, r0
 8001468:	460c      	mov	r4, r1
 800146a:	4618      	mov	r0, r3
 800146c:	4621      	mov	r1, r4
 800146e:	f7ff fbbb 	bl	8000be8 <__aeabi_d2uiz>
 8001472:	4603      	mov	r3, r0
 8001474:	803b      	strh	r3, [r7, #0]
			break;
 8001476:	e1d6      	b.n	8001826 <IHM01_MoveTo+0x43e>

		case 1: // Steps/s und Steps/s2 in 0,01 RAD umrechnen. Steps bleiben Steps
			Steps = ZielPos - IHM01_IstPosSW; 									//Rel. Weg = Zielposition - Istposition;
 8001478:	88fb      	ldrh	r3, [r7, #6]
 800147a:	4a8f      	ldr	r2, [pc, #572]	; (80016b8 <IHM01_MoveTo+0x2d0>)
 800147c:	8812      	ldrh	r2, [r2, #0]
 800147e:	1a9b      	subs	r3, r3, r2
 8001480:	60fb      	str	r3, [r7, #12]
			Speed = (uint32_t) ((Speed * 2 * 3.14159 * 100) 			 / FSPR); 	//Umrechnung n/s  in 0,01 RAD/s
 8001482:	88bb      	ldrh	r3, [r7, #4]
 8001484:	005b      	lsls	r3, r3, #1
 8001486:	4618      	mov	r0, r3
 8001488:	f7ff f86c 	bl	8000564 <__aeabi_i2d>
 800148c:	a388      	add	r3, pc, #544	; (adr r3, 80016b0 <IHM01_MoveTo+0x2c8>)
 800148e:	e9d3 2300 	ldrd	r2, r3, [r3]
 8001492:	f7ff f8d1 	bl	8000638 <__aeabi_dmul>
 8001496:	4603      	mov	r3, r0
 8001498:	460c      	mov	r4, r1
 800149a:	4618      	mov	r0, r3
 800149c:	4621      	mov	r1, r4
 800149e:	f04f 0200 	mov.w	r2, #0
 80014a2:	4b86      	ldr	r3, [pc, #536]	; (80016bc <IHM01_MoveTo+0x2d4>)
 80014a4:	f7ff f8c8 	bl	8000638 <__aeabi_dmul>
 80014a8:	4603      	mov	r3, r0
 80014aa:	460c      	mov	r4, r1
 80014ac:	4618      	mov	r0, r3
 80014ae:	4621      	mov	r1, r4
 80014b0:	f04f 0200 	mov.w	r2, #0
 80014b4:	4b82      	ldr	r3, [pc, #520]	; (80016c0 <IHM01_MoveTo+0x2d8>)
 80014b6:	f7ff f9e9 	bl	800088c <__aeabi_ddiv>
 80014ba:	4603      	mov	r3, r0
 80014bc:	460c      	mov	r4, r1
 80014be:	4618      	mov	r0, r3
 80014c0:	4621      	mov	r1, r4
 80014c2:	f7ff fb91 	bl	8000be8 <__aeabi_d2uiz>
 80014c6:	4603      	mov	r3, r0
 80014c8:	80bb      	strh	r3, [r7, #4]
			Accel = (uint32_t) ((Accel * 2 * 3.14159 * 100 * ACCEL_CORR) / FSPR); 	//Umrechnung n/s2 in 0,01 RAD/s2
 80014ca:	887b      	ldrh	r3, [r7, #2]
 80014cc:	005b      	lsls	r3, r3, #1
 80014ce:	4618      	mov	r0, r3
 80014d0:	f7ff f848 	bl	8000564 <__aeabi_i2d>
 80014d4:	a376      	add	r3, pc, #472	; (adr r3, 80016b0 <IHM01_MoveTo+0x2c8>)
 80014d6:	e9d3 2300 	ldrd	r2, r3, [r3]
 80014da:	f7ff f8ad 	bl	8000638 <__aeabi_dmul>
 80014de:	4603      	mov	r3, r0
 80014e0:	460c      	mov	r4, r1
 80014e2:	4618      	mov	r0, r3
 80014e4:	4621      	mov	r1, r4
 80014e6:	f04f 0200 	mov.w	r2, #0
 80014ea:	4b74      	ldr	r3, [pc, #464]	; (80016bc <IHM01_MoveTo+0x2d4>)
 80014ec:	f7ff f8a4 	bl	8000638 <__aeabi_dmul>
 80014f0:	4603      	mov	r3, r0
 80014f2:	460c      	mov	r4, r1
 80014f4:	4618      	mov	r0, r3
 80014f6:	4621      	mov	r1, r4
 80014f8:	a369      	add	r3, pc, #420	; (adr r3, 80016a0 <IHM01_MoveTo+0x2b8>)
 80014fa:	e9d3 2300 	ldrd	r2, r3, [r3]
 80014fe:	f7ff f89b 	bl	8000638 <__aeabi_dmul>
 8001502:	4603      	mov	r3, r0
 8001504:	460c      	mov	r4, r1
 8001506:	4618      	mov	r0, r3
 8001508:	4621      	mov	r1, r4
 800150a:	f04f 0200 	mov.w	r2, #0
 800150e:	4b6c      	ldr	r3, [pc, #432]	; (80016c0 <IHM01_MoveTo+0x2d8>)
 8001510:	f7ff f9bc 	bl	800088c <__aeabi_ddiv>
 8001514:	4603      	mov	r3, r0
 8001516:	460c      	mov	r4, r1
 8001518:	4618      	mov	r0, r3
 800151a:	4621      	mov	r1, r4
 800151c:	f7ff fb64 	bl	8000be8 <__aeabi_d2uiz>
 8001520:	4603      	mov	r3, r0
 8001522:	807b      	strh	r3, [r7, #2]
			Decel = (uint32_t) ((Decel * 2 * 3.14159 * 100 * DECEL_CORR) / FSPR); 	//Umrechnung n/s2 in 0,01 RAD/s2
 8001524:	883b      	ldrh	r3, [r7, #0]
 8001526:	005b      	lsls	r3, r3, #1
 8001528:	4618      	mov	r0, r3
 800152a:	f7ff f81b 	bl	8000564 <__aeabi_i2d>
 800152e:	a360      	add	r3, pc, #384	; (adr r3, 80016b0 <IHM01_MoveTo+0x2c8>)
 8001530:	e9d3 2300 	ldrd	r2, r3, [r3]
 8001534:	f7ff f880 	bl	8000638 <__aeabi_dmul>
 8001538:	4603      	mov	r3, r0
 800153a:	460c      	mov	r4, r1
 800153c:	4618      	mov	r0, r3
 800153e:	4621      	mov	r1, r4
 8001540:	f04f 0200 	mov.w	r2, #0
 8001544:	4b5d      	ldr	r3, [pc, #372]	; (80016bc <IHM01_MoveTo+0x2d4>)
 8001546:	f7ff f877 	bl	8000638 <__aeabi_dmul>
 800154a:	4603      	mov	r3, r0
 800154c:	460c      	mov	r4, r1
 800154e:	4618      	mov	r0, r3
 8001550:	4621      	mov	r1, r4
 8001552:	a355      	add	r3, pc, #340	; (adr r3, 80016a8 <IHM01_MoveTo+0x2c0>)
 8001554:	e9d3 2300 	ldrd	r2, r3, [r3]
 8001558:	f7ff f86e 	bl	8000638 <__aeabi_dmul>
 800155c:	4603      	mov	r3, r0
 800155e:	460c      	mov	r4, r1
 8001560:	4618      	mov	r0, r3
 8001562:	4621      	mov	r1, r4
 8001564:	f04f 0200 	mov.w	r2, #0
 8001568:	4b55      	ldr	r3, [pc, #340]	; (80016c0 <IHM01_MoveTo+0x2d8>)
 800156a:	f7ff f98f 	bl	800088c <__aeabi_ddiv>
 800156e:	4603      	mov	r3, r0
 8001570:	460c      	mov	r4, r1
 8001572:	4618      	mov	r0, r3
 8001574:	4621      	mov	r1, r4
 8001576:	f7ff fb37 	bl	8000be8 <__aeabi_d2uiz>
 800157a:	4603      	mov	r3, r0
 800157c:	803b      	strh	r3, [r7, #0]
			break;
 800157e:	e152      	b.n	8001826 <IHM01_MoveTo+0x43e>

		case 2: // mm/s und mm/s2 in 0,01 RAD umrechnen. mm in Steps
			Steps = ( int32_t) (((ZielPos * FSPR) / mmPR)- IHM01_IstPosSW); 	  //Rel. Weg = Zielposition(Umrechnung mm in Steps) - Istposition;
 8001580:	88fb      	ldrh	r3, [r7, #6]
 8001582:	22c8      	movs	r2, #200	; 0xc8
 8001584:	fb02 f303 	mul.w	r3, r2, r3
 8001588:	4a4e      	ldr	r2, [pc, #312]	; (80016c4 <IHM01_MoveTo+0x2dc>)
 800158a:	fb82 1203 	smull	r1, r2, r2, r3
 800158e:	1112      	asrs	r2, r2, #4
 8001590:	17db      	asrs	r3, r3, #31
 8001592:	1ad3      	subs	r3, r2, r3
 8001594:	4a48      	ldr	r2, [pc, #288]	; (80016b8 <IHM01_MoveTo+0x2d0>)
 8001596:	8812      	ldrh	r2, [r2, #0]
 8001598:	1a9b      	subs	r3, r3, r2
 800159a:	60fb      	str	r3, [r7, #12]
			Speed = (uint32_t) ((Speed * 2 * 3.14159 * 100)				 / mmPR); //Umrechnung mm/s  in 0,01 RAD/s
 800159c:	88bb      	ldrh	r3, [r7, #4]
 800159e:	005b      	lsls	r3, r3, #1
 80015a0:	4618      	mov	r0, r3
 80015a2:	f7fe ffdf 	bl	8000564 <__aeabi_i2d>
 80015a6:	a342      	add	r3, pc, #264	; (adr r3, 80016b0 <IHM01_MoveTo+0x2c8>)
 80015a8:	e9d3 2300 	ldrd	r2, r3, [r3]
 80015ac:	f7ff f844 	bl	8000638 <__aeabi_dmul>
 80015b0:	4603      	mov	r3, r0
 80015b2:	460c      	mov	r4, r1
 80015b4:	4618      	mov	r0, r3
 80015b6:	4621      	mov	r1, r4
 80015b8:	f04f 0200 	mov.w	r2, #0
 80015bc:	4b3f      	ldr	r3, [pc, #252]	; (80016bc <IHM01_MoveTo+0x2d4>)
 80015be:	f7ff f83b 	bl	8000638 <__aeabi_dmul>
 80015c2:	4603      	mov	r3, r0
 80015c4:	460c      	mov	r4, r1
 80015c6:	4618      	mov	r0, r3
 80015c8:	4621      	mov	r1, r4
 80015ca:	f04f 0200 	mov.w	r2, #0
 80015ce:	4b3e      	ldr	r3, [pc, #248]	; (80016c8 <IHM01_MoveTo+0x2e0>)
 80015d0:	f7ff f95c 	bl	800088c <__aeabi_ddiv>
 80015d4:	4603      	mov	r3, r0
 80015d6:	460c      	mov	r4, r1
 80015d8:	4618      	mov	r0, r3
 80015da:	4621      	mov	r1, r4
 80015dc:	f7ff fb04 	bl	8000be8 <__aeabi_d2uiz>
 80015e0:	4603      	mov	r3, r0
 80015e2:	80bb      	strh	r3, [r7, #4]
			Accel = (uint32_t) ((Accel * 2 * 3.14159 * 100 * ACCEL_CORR) / mmPR); //Umrechnung mm/s2 in 0,01 RAD/s2
 80015e4:	887b      	ldrh	r3, [r7, #2]
 80015e6:	005b      	lsls	r3, r3, #1
 80015e8:	4618      	mov	r0, r3
 80015ea:	f7fe ffbb 	bl	8000564 <__aeabi_i2d>
 80015ee:	a330      	add	r3, pc, #192	; (adr r3, 80016b0 <IHM01_MoveTo+0x2c8>)
 80015f0:	e9d3 2300 	ldrd	r2, r3, [r3]
 80015f4:	f7ff f820 	bl	8000638 <__aeabi_dmul>
 80015f8:	4603      	mov	r3, r0
 80015fa:	460c      	mov	r4, r1
 80015fc:	4618      	mov	r0, r3
 80015fe:	4621      	mov	r1, r4
 8001600:	f04f 0200 	mov.w	r2, #0
 8001604:	4b2d      	ldr	r3, [pc, #180]	; (80016bc <IHM01_MoveTo+0x2d4>)
 8001606:	f7ff f817 	bl	8000638 <__aeabi_dmul>
 800160a:	4603      	mov	r3, r0
 800160c:	460c      	mov	r4, r1
 800160e:	4618      	mov	r0, r3
 8001610:	4621      	mov	r1, r4
 8001612:	a323      	add	r3, pc, #140	; (adr r3, 80016a0 <IHM01_MoveTo+0x2b8>)
 8001614:	e9d3 2300 	ldrd	r2, r3, [r3]
 8001618:	f7ff f80e 	bl	8000638 <__aeabi_dmul>
 800161c:	4603      	mov	r3, r0
 800161e:	460c      	mov	r4, r1
 8001620:	4618      	mov	r0, r3
 8001622:	4621      	mov	r1, r4
 8001624:	f04f 0200 	mov.w	r2, #0
 8001628:	4b27      	ldr	r3, [pc, #156]	; (80016c8 <IHM01_MoveTo+0x2e0>)
 800162a:	f7ff f92f 	bl	800088c <__aeabi_ddiv>
 800162e:	4603      	mov	r3, r0
 8001630:	460c      	mov	r4, r1
 8001632:	4618      	mov	r0, r3
 8001634:	4621      	mov	r1, r4
 8001636:	f7ff fad7 	bl	8000be8 <__aeabi_d2uiz>
 800163a:	4603      	mov	r3, r0
 800163c:	807b      	strh	r3, [r7, #2]
			Decel = (uint32_t) ((Decel * 2 * 3.14159 * 100 * DECEL_CORR) / mmPR); //Umrechnung mm/s2 in 0,01 RAD/s2
 800163e:	883b      	ldrh	r3, [r7, #0]
 8001640:	005b      	lsls	r3, r3, #1
 8001642:	4618      	mov	r0, r3
 8001644:	f7fe ff8e 	bl	8000564 <__aeabi_i2d>
 8001648:	a319      	add	r3, pc, #100	; (adr r3, 80016b0 <IHM01_MoveTo+0x2c8>)
 800164a:	e9d3 2300 	ldrd	r2, r3, [r3]
 800164e:	f7fe fff3 	bl	8000638 <__aeabi_dmul>
 8001652:	4603      	mov	r3, r0
 8001654:	460c      	mov	r4, r1
 8001656:	4618      	mov	r0, r3
 8001658:	4621      	mov	r1, r4
 800165a:	f04f 0200 	mov.w	r2, #0
 800165e:	4b17      	ldr	r3, [pc, #92]	; (80016bc <IHM01_MoveTo+0x2d4>)
 8001660:	f7fe ffea 	bl	8000638 <__aeabi_dmul>
 8001664:	4603      	mov	r3, r0
 8001666:	460c      	mov	r4, r1
 8001668:	4618      	mov	r0, r3
 800166a:	4621      	mov	r1, r4
 800166c:	a30e      	add	r3, pc, #56	; (adr r3, 80016a8 <IHM01_MoveTo+0x2c0>)
 800166e:	e9d3 2300 	ldrd	r2, r3, [r3]
 8001672:	f7fe ffe1 	bl	8000638 <__aeabi_dmul>
 8001676:	4603      	mov	r3, r0
 8001678:	460c      	mov	r4, r1
 800167a:	4618      	mov	r0, r3
 800167c:	4621      	mov	r1, r4
 800167e:	f04f 0200 	mov.w	r2, #0
 8001682:	4b11      	ldr	r3, [pc, #68]	; (80016c8 <IHM01_MoveTo+0x2e0>)
 8001684:	f7ff f902 	bl	800088c <__aeabi_ddiv>
 8001688:	4603      	mov	r3, r0
 800168a:	460c      	mov	r4, r1
 800168c:	4618      	mov	r0, r3
 800168e:	4621      	mov	r1, r4
 8001690:	f7ff faaa 	bl	8000be8 <__aeabi_d2uiz>
 8001694:	4603      	mov	r3, r0
 8001696:	803b      	strh	r3, [r7, #0]
			break;
 8001698:	e0c5      	b.n	8001826 <IHM01_MoveTo+0x43e>
 800169a:	bf00      	nop
 800169c:	f3af 8000 	nop.w
 80016a0:	28f5c28f 	.word	0x28f5c28f
 80016a4:	3fee8f5c 	.word	0x3fee8f5c
 80016a8:	cccccccd 	.word	0xcccccccd
 80016ac:	3feccccc 	.word	0x3feccccc
 80016b0:	f01b866e 	.word	0xf01b866e
 80016b4:	400921f9 	.word	0x400921f9
 80016b8:	20000454 	.word	0x20000454
 80016bc:	40590000 	.word	0x40590000
 80016c0:	40690000 	.word	0x40690000
 80016c4:	4bda12f7 	.word	0x4bda12f7
 80016c8:	404b0000 	.word	0x404b0000

		case 3: // mm/s und mg in 0,01 RAD umrechnen
			Steps = ( int32_t) (((ZielPos * FSPR) / mmPR)- IHM01_IstPosSW); 	  			 //Rel. Weg = Zielposition(Umrechnung mm in Steps) - Istposition;
 80016cc:	88fb      	ldrh	r3, [r7, #6]
 80016ce:	22c8      	movs	r2, #200	; 0xc8
 80016d0:	fb02 f303 	mul.w	r3, r2, r3
 80016d4:	4ab8      	ldr	r2, [pc, #736]	; (80019b8 <IHM01_MoveTo+0x5d0>)
 80016d6:	fb82 1203 	smull	r1, r2, r2, r3
 80016da:	1112      	asrs	r2, r2, #4
 80016dc:	17db      	asrs	r3, r3, #31
 80016de:	1ad3      	subs	r3, r2, r3
 80016e0:	4ab6      	ldr	r2, [pc, #728]	; (80019bc <IHM01_MoveTo+0x5d4>)
 80016e2:	8812      	ldrh	r2, [r2, #0]
 80016e4:	1a9b      	subs	r3, r3, r2
 80016e6:	60fb      	str	r3, [r7, #12]
			Speed = (uint32_t) ((Speed * 2 * 3.14159 * 100)							/ mmPR); //Umrechnung mm/s in RAD/s
 80016e8:	88bb      	ldrh	r3, [r7, #4]
 80016ea:	005b      	lsls	r3, r3, #1
 80016ec:	4618      	mov	r0, r3
 80016ee:	f7fe ff39 	bl	8000564 <__aeabi_i2d>
 80016f2:	a3a9      	add	r3, pc, #676	; (adr r3, 8001998 <IHM01_MoveTo+0x5b0>)
 80016f4:	e9d3 2300 	ldrd	r2, r3, [r3]
 80016f8:	f7fe ff9e 	bl	8000638 <__aeabi_dmul>
 80016fc:	4603      	mov	r3, r0
 80016fe:	460c      	mov	r4, r1
 8001700:	4618      	mov	r0, r3
 8001702:	4621      	mov	r1, r4
 8001704:	f04f 0200 	mov.w	r2, #0
 8001708:	4bad      	ldr	r3, [pc, #692]	; (80019c0 <IHM01_MoveTo+0x5d8>)
 800170a:	f7fe ff95 	bl	8000638 <__aeabi_dmul>
 800170e:	4603      	mov	r3, r0
 8001710:	460c      	mov	r4, r1
 8001712:	4618      	mov	r0, r3
 8001714:	4621      	mov	r1, r4
 8001716:	f04f 0200 	mov.w	r2, #0
 800171a:	4baa      	ldr	r3, [pc, #680]	; (80019c4 <IHM01_MoveTo+0x5dc>)
 800171c:	f7ff f8b6 	bl	800088c <__aeabi_ddiv>
 8001720:	4603      	mov	r3, r0
 8001722:	460c      	mov	r4, r1
 8001724:	4618      	mov	r0, r3
 8001726:	4621      	mov	r1, r4
 8001728:	f7ff fa5e 	bl	8000be8 <__aeabi_d2uiz>
 800172c:	4603      	mov	r3, r0
 800172e:	80bb      	strh	r3, [r7, #4]
			Accel = (uint32_t) ((Accel * 9.806652 * 2 * 3.14159 * 100 * ACCEL_CORR) / mmPR); //Umrechnung mg in RAD/s2
 8001730:	887b      	ldrh	r3, [r7, #2]
 8001732:	4618      	mov	r0, r3
 8001734:	f7fe ff16 	bl	8000564 <__aeabi_i2d>
 8001738:	a399      	add	r3, pc, #612	; (adr r3, 80019a0 <IHM01_MoveTo+0x5b8>)
 800173a:	e9d3 2300 	ldrd	r2, r3, [r3]
 800173e:	f7fe ff7b 	bl	8000638 <__aeabi_dmul>
 8001742:	4603      	mov	r3, r0
 8001744:	460c      	mov	r4, r1
 8001746:	4618      	mov	r0, r3
 8001748:	4621      	mov	r1, r4
 800174a:	4602      	mov	r2, r0
 800174c:	460b      	mov	r3, r1
 800174e:	f7fe fdbd 	bl	80002cc <__adddf3>
 8001752:	4603      	mov	r3, r0
 8001754:	460c      	mov	r4, r1
 8001756:	4618      	mov	r0, r3
 8001758:	4621      	mov	r1, r4
 800175a:	a38f      	add	r3, pc, #572	; (adr r3, 8001998 <IHM01_MoveTo+0x5b0>)
 800175c:	e9d3 2300 	ldrd	r2, r3, [r3]
 8001760:	f7fe ff6a 	bl	8000638 <__aeabi_dmul>
 8001764:	4603      	mov	r3, r0
 8001766:	460c      	mov	r4, r1
 8001768:	4618      	mov	r0, r3
 800176a:	4621      	mov	r1, r4
 800176c:	f04f 0200 	mov.w	r2, #0
 8001770:	4b93      	ldr	r3, [pc, #588]	; (80019c0 <IHM01_MoveTo+0x5d8>)
 8001772:	f7fe ff61 	bl	8000638 <__aeabi_dmul>
 8001776:	4603      	mov	r3, r0
 8001778:	460c      	mov	r4, r1
 800177a:	4618      	mov	r0, r3
 800177c:	4621      	mov	r1, r4
 800177e:	a38a      	add	r3, pc, #552	; (adr r3, 80019a8 <IHM01_MoveTo+0x5c0>)
 8001780:	e9d3 2300 	ldrd	r2, r3, [r3]
 8001784:	f7fe ff58 	bl	8000638 <__aeabi_dmul>
 8001788:	4603      	mov	r3, r0
 800178a:	460c      	mov	r4, r1
 800178c:	4618      	mov	r0, r3
 800178e:	4621      	mov	r1, r4
 8001790:	f04f 0200 	mov.w	r2, #0
 8001794:	4b8b      	ldr	r3, [pc, #556]	; (80019c4 <IHM01_MoveTo+0x5dc>)
 8001796:	f7ff f879 	bl	800088c <__aeabi_ddiv>
 800179a:	4603      	mov	r3, r0
 800179c:	460c      	mov	r4, r1
 800179e:	4618      	mov	r0, r3
 80017a0:	4621      	mov	r1, r4
 80017a2:	f7ff fa21 	bl	8000be8 <__aeabi_d2uiz>
 80017a6:	4603      	mov	r3, r0
 80017a8:	807b      	strh	r3, [r7, #2]
			Decel = (uint32_t) ((Decel * 9.806652 * 2 * 3.14159 * 100 * ACCEL_CORR) / mmPR); //Umrechnung mg in RAD/s2
 80017aa:	883b      	ldrh	r3, [r7, #0]
 80017ac:	4618      	mov	r0, r3
 80017ae:	f7fe fed9 	bl	8000564 <__aeabi_i2d>
 80017b2:	a37b      	add	r3, pc, #492	; (adr r3, 80019a0 <IHM01_MoveTo+0x5b8>)
 80017b4:	e9d3 2300 	ldrd	r2, r3, [r3]
 80017b8:	f7fe ff3e 	bl	8000638 <__aeabi_dmul>
 80017bc:	4603      	mov	r3, r0
 80017be:	460c      	mov	r4, r1
 80017c0:	4618      	mov	r0, r3
 80017c2:	4621      	mov	r1, r4
 80017c4:	4602      	mov	r2, r0
 80017c6:	460b      	mov	r3, r1
 80017c8:	f7fe fd80 	bl	80002cc <__adddf3>
 80017cc:	4603      	mov	r3, r0
 80017ce:	460c      	mov	r4, r1
 80017d0:	4618      	mov	r0, r3
 80017d2:	4621      	mov	r1, r4
 80017d4:	a370      	add	r3, pc, #448	; (adr r3, 8001998 <IHM01_MoveTo+0x5b0>)
 80017d6:	e9d3 2300 	ldrd	r2, r3, [r3]
 80017da:	f7fe ff2d 	bl	8000638 <__aeabi_dmul>
 80017de:	4603      	mov	r3, r0
 80017e0:	460c      	mov	r4, r1
 80017e2:	4618      	mov	r0, r3
 80017e4:	4621      	mov	r1, r4
 80017e6:	f04f 0200 	mov.w	r2, #0
 80017ea:	4b75      	ldr	r3, [pc, #468]	; (80019c0 <IHM01_MoveTo+0x5d8>)
 80017ec:	f7fe ff24 	bl	8000638 <__aeabi_dmul>
 80017f0:	4603      	mov	r3, r0
 80017f2:	460c      	mov	r4, r1
 80017f4:	4618      	mov	r0, r3
 80017f6:	4621      	mov	r1, r4
 80017f8:	a36b      	add	r3, pc, #428	; (adr r3, 80019a8 <IHM01_MoveTo+0x5c0>)
 80017fa:	e9d3 2300 	ldrd	r2, r3, [r3]
 80017fe:	f7fe ff1b 	bl	8000638 <__aeabi_dmul>
 8001802:	4603      	mov	r3, r0
 8001804:	460c      	mov	r4, r1
 8001806:	4618      	mov	r0, r3
 8001808:	4621      	mov	r1, r4
 800180a:	f04f 0200 	mov.w	r2, #0
 800180e:	4b6d      	ldr	r3, [pc, #436]	; (80019c4 <IHM01_MoveTo+0x5dc>)
 8001810:	f7ff f83c 	bl	800088c <__aeabi_ddiv>
 8001814:	4603      	mov	r3, r0
 8001816:	460c      	mov	r4, r1
 8001818:	4618      	mov	r0, r3
 800181a:	4621      	mov	r1, r4
 800181c:	f7ff f9e4 	bl	8000be8 <__aeabi_d2uiz>
 8001820:	4603      	mov	r3, r0
 8001822:	803b      	strh	r3, [r7, #0]
			break;
 8001824:	bf00      	nop
		}

	//Regler nach Geschwindigkeit einstellen (Achtung, ab hier alles in RAD!!!)
	if( Speed <= 1500)						IHM01_SetPhaseCurrentControl(10); //0,3125A
 8001826:	88bb      	ldrh	r3, [r7, #4]
 8001828:	f240 52dc 	movw	r2, #1500	; 0x5dc
 800182c:	4293      	cmp	r3, r2
 800182e:	d802      	bhi.n	8001836 <IHM01_MoveTo+0x44e>
 8001830:	200a      	movs	r0, #10
 8001832:	f000 f92d 	bl	8001a90 <IHM01_SetPhaseCurrentControl>
	if((Speed >  1500) && (Speed <=  3000))	IHM01_SetPhaseCurrentControl(15); //0,468755A
 8001836:	88bb      	ldrh	r3, [r7, #4]
 8001838:	f240 52dc 	movw	r2, #1500	; 0x5dc
 800183c:	4293      	cmp	r3, r2
 800183e:	d907      	bls.n	8001850 <IHM01_MoveTo+0x468>
 8001840:	88bb      	ldrh	r3, [r7, #4]
 8001842:	f640 32b8 	movw	r2, #3000	; 0xbb8
 8001846:	4293      	cmp	r3, r2
 8001848:	d802      	bhi.n	8001850 <IHM01_MoveTo+0x468>
 800184a:	200f      	movs	r0, #15
 800184c:	f000 f920 	bl	8001a90 <IHM01_SetPhaseCurrentControl>
	if((Speed >  3000) && (Speed <=  6000))	IHM01_SetPhaseCurrentControl(20); //0,625A
 8001850:	88bb      	ldrh	r3, [r7, #4]
 8001852:	f640 32b8 	movw	r2, #3000	; 0xbb8
 8001856:	4293      	cmp	r3, r2
 8001858:	d907      	bls.n	800186a <IHM01_MoveTo+0x482>
 800185a:	88bb      	ldrh	r3, [r7, #4]
 800185c:	f241 7270 	movw	r2, #6000	; 0x1770
 8001860:	4293      	cmp	r3, r2
 8001862:	d802      	bhi.n	800186a <IHM01_MoveTo+0x482>
 8001864:	2014      	movs	r0, #20
 8001866:	f000 f913 	bl	8001a90 <IHM01_SetPhaseCurrentControl>
	if((Speed >  6000) && (Speed <= 12000))	IHM01_SetPhaseCurrentControl(30); //0,9375A
 800186a:	88bb      	ldrh	r3, [r7, #4]
 800186c:	f241 7270 	movw	r2, #6000	; 0x1770
 8001870:	4293      	cmp	r3, r2
 8001872:	d907      	bls.n	8001884 <IHM01_MoveTo+0x49c>
 8001874:	88bb      	ldrh	r3, [r7, #4]
 8001876:	f642 62e0 	movw	r2, #12000	; 0x2ee0
 800187a:	4293      	cmp	r3, r2
 800187c:	d802      	bhi.n	8001884 <IHM01_MoveTo+0x49c>
 800187e:	201e      	movs	r0, #30
 8001880:	f000 f906 	bl	8001a90 <IHM01_SetPhaseCurrentControl>
	if( Speed > 12000)						IHM01_SetPhaseCurrentControl(40); //1,25A
 8001884:	88bb      	ldrh	r3, [r7, #4]
 8001886:	f642 62e0 	movw	r2, #12000	; 0x2ee0
 800188a:	4293      	cmp	r3, r2
 800188c:	d902      	bls.n	8001894 <IHM01_MoveTo+0x4ac>
 800188e:	2028      	movs	r0, #40	; 0x28
 8001890:	f000 f8fe 	bl	8001a90 <IHM01_SetPhaseCurrentControl>

	//Richtung Festlegen
	if(Steps < 0)	IHM01_SetDirection(RETRACT);	// Wenn Retract (-)
 8001894:	68fb      	ldr	r3, [r7, #12]
 8001896:	2b00      	cmp	r3, #0
 8001898:	da03      	bge.n	80018a2 <IHM01_MoveTo+0x4ba>
 800189a:	2000      	movs	r0, #0
 800189c:	f000 f964 	bl	8001b68 <IHM01_SetDirection>
 80018a0:	e002      	b.n	80018a8 <IHM01_MoveTo+0x4c0>
	else			IHM01_SetDirection(EXTEND);
 80018a2:	2001      	movs	r0, #1
 80018a4:	f000 f960 	bl	8001b68 <IHM01_SetDirection>

	Steps = abs (Steps); //Ab hier nur noch positiv rechnen
 80018a8:	68fb      	ldr	r3, [r7, #12]
 80018aa:	2b00      	cmp	r3, #0
 80018ac:	bfb8      	it	lt
 80018ae:	425b      	neglt	r3, r3
 80018b0:	60fb      	str	r3, [r7, #12]

	//Es wird bei Speed = 0 davon ausgegangen, daß die Position nicht wirklich angefahren werden soll. Also überspringen.
	if (Speed == 0) Steps = 0;
 80018b2:	88bb      	ldrh	r3, [r7, #4]
 80018b4:	2b00      	cmp	r3, #0
 80018b6:	d101      	bne.n	80018bc <IHM01_MoveTo+0x4d4>
 80018b8:	2300      	movs	r3, #0
 80018ba:	60fb      	str	r3, [r7, #12]

	if (Accel == 0) Accel = 10;
 80018bc:	887b      	ldrh	r3, [r7, #2]
 80018be:	2b00      	cmp	r3, #0
 80018c0:	d101      	bne.n	80018c6 <IHM01_MoveTo+0x4de>
 80018c2:	230a      	movs	r3, #10
 80018c4:	807b      	strh	r3, [r7, #2]
	if (Decel == 0) Decel = 10;
 80018c6:	883b      	ldrh	r3, [r7, #0]
 80018c8:	2b00      	cmp	r3, #0
 80018ca:	d101      	bne.n	80018d0 <IHM01_MoveTo+0x4e8>
 80018cc:	230a      	movs	r3, #10
 80018ce:	803b      	strh	r3, [r7, #0]
//		srd.Next_Step_Delay = 1000; // Bei einem Step braucht nichts berechnet werden
//		IHM01_SetPWMTimer(srd.Next_Step_Delay);
//		IHM01_MotorOn();
//		}
//	else if(Steps != 0)
	if(Steps >= 3) // Nur wenn Anzahl der Schritte größer 2
 80018d0:	68fb      	ldr	r3, [r7, #12]
 80018d2:	2b02      	cmp	r3, #2
 80018d4:	f340 80b7 	ble.w	8001a46 <IHM01_MoveTo+0x65e>
		{
		// Set max speed limit, by calc min_delay to use in timer.
		// min_delay = (alpha / tt)/ w
		srd.Min_Delay = A_T_x100 / Speed;
 80018d8:	88bb      	ldrh	r3, [r7, #4]
 80018da:	4a3b      	ldr	r2, [pc, #236]	; (80019c8 <IHM01_MoveTo+0x5e0>)
 80018dc:	fb92 f3f3 	sdiv	r3, r2, r3
 80018e0:	4a3a      	ldr	r2, [pc, #232]	; (80019cc <IHM01_MoveTo+0x5e4>)
 80018e2:	6113      	str	r3, [r2, #16]

		// Set accelration by calc the first (c0) step delay .
		// step_delay = 1/tt * sqrt(2*alpha/accel)
		// step_delay = ( tfreq*0.676/100 )*100 * sqrt( (2*alpha*10000000000) / (accel*100) )/10000
		srd.Next_Step_Delay = (T1_FREQ_148 * sqrt(A_SQ / Accel))/100;
 80018e4:	887b      	ldrh	r3, [r7, #2]
 80018e6:	4a3a      	ldr	r2, [pc, #232]	; (80019d0 <IHM01_MoveTo+0x5e8>)
 80018e8:	fb92 f3f3 	sdiv	r3, r2, r3
 80018ec:	4618      	mov	r0, r3
 80018ee:	f7fe fe39 	bl	8000564 <__aeabi_i2d>
 80018f2:	4603      	mov	r3, r0
 80018f4:	460c      	mov	r4, r1
 80018f6:	ec44 3b10 	vmov	d0, r3, r4
 80018fa:	f00c fbdf 	bl	800e0bc <sqrt>
 80018fe:	ec51 0b10 	vmov	r0, r1, d0
 8001902:	a32b      	add	r3, pc, #172	; (adr r3, 80019b0 <IHM01_MoveTo+0x5c8>)
 8001904:	e9d3 2300 	ldrd	r2, r3, [r3]
 8001908:	f7fe fe96 	bl	8000638 <__aeabi_dmul>
 800190c:	4603      	mov	r3, r0
 800190e:	460c      	mov	r4, r1
 8001910:	4618      	mov	r0, r3
 8001912:	4621      	mov	r1, r4
 8001914:	f04f 0200 	mov.w	r2, #0
 8001918:	4b29      	ldr	r3, [pc, #164]	; (80019c0 <IHM01_MoveTo+0x5d8>)
 800191a:	f7fe ffb7 	bl	800088c <__aeabi_ddiv>
 800191e:	4603      	mov	r3, r0
 8001920:	460c      	mov	r4, r1
 8001922:	4618      	mov	r0, r3
 8001924:	4621      	mov	r1, r4
 8001926:	f7ff f95f 	bl	8000be8 <__aeabi_d2uiz>
 800192a:	4602      	mov	r2, r0
 800192c:	4b27      	ldr	r3, [pc, #156]	; (80019cc <IHM01_MoveTo+0x5e4>)
 800192e:	605a      	str	r2, [r3, #4]

		// Find out after how many steps does the speed hit the max speed limit.
	    // max_s_lim = speed^2 / (2*alpha*accel)
	    max_s_lim = (long)Speed*Speed/(long)(((long)A_x20000 * Accel)/100);
 8001930:	88bb      	ldrh	r3, [r7, #4]
 8001932:	88ba      	ldrh	r2, [r7, #4]
 8001934:	fb02 f203 	mul.w	r2, r2, r3
 8001938:	887b      	ldrh	r3, [r7, #2]
 800193a:	f44f 711d 	mov.w	r1, #628	; 0x274
 800193e:	fb01 f303 	mul.w	r3, r1, r3
 8001942:	4924      	ldr	r1, [pc, #144]	; (80019d4 <IHM01_MoveTo+0x5ec>)
 8001944:	fb81 0103 	smull	r0, r1, r1, r3
 8001948:	1149      	asrs	r1, r1, #5
 800194a:	17db      	asrs	r3, r3, #31
 800194c:	1acb      	subs	r3, r1, r3
 800194e:	fb92 f3f3 	sdiv	r3, r2, r3
 8001952:	617b      	str	r3, [r7, #20]
	    // If we hit max speed limit before 0,5 step it will round to 0.
	    // But in practice we need to move atleast 1 step to get any speed at all.
	    if(max_s_lim == 0)	max_s_lim = 1;
 8001954:	697b      	ldr	r3, [r7, #20]
 8001956:	2b00      	cmp	r3, #0
 8001958:	d101      	bne.n	800195e <IHM01_MoveTo+0x576>
 800195a:	2301      	movs	r3, #1
 800195c:	617b      	str	r3, [r7, #20]

	    // Find out after how many steps we must start deceleration.
	    // n1 = (n1+n2)decel / (accel + decel)
	    accel_lim = ((long)Steps * Decel) / (Accel + Decel);
 800195e:	883b      	ldrh	r3, [r7, #0]
 8001960:	68fa      	ldr	r2, [r7, #12]
 8001962:	fb02 f203 	mul.w	r2, r2, r3
 8001966:	8879      	ldrh	r1, [r7, #2]
 8001968:	883b      	ldrh	r3, [r7, #0]
 800196a:	440b      	add	r3, r1
 800196c:	fb92 f3f3 	sdiv	r3, r2, r3
 8001970:	613b      	str	r3, [r7, #16]
	    // We must accelerate at least 1 step before we can start deceleration.
	    if(accel_lim == 0)	accel_lim = 1;
 8001972:	693b      	ldr	r3, [r7, #16]
 8001974:	2b00      	cmp	r3, #0
 8001976:	d101      	bne.n	800197c <IHM01_MoveTo+0x594>
 8001978:	2301      	movs	r3, #1
 800197a:	613b      	str	r3, [r7, #16]

	    // Use the limit we hit first to calc decel.
	    if(accel_lim <= max_s_lim)	srd.Decel_Val = accel_lim - Steps;
 800197c:	693a      	ldr	r2, [r7, #16]
 800197e:	697b      	ldr	r3, [r7, #20]
 8001980:	429a      	cmp	r2, r3
 8001982:	d829      	bhi.n	80019d8 <IHM01_MoveTo+0x5f0>
 8001984:	68fb      	ldr	r3, [r7, #12]
 8001986:	693a      	ldr	r2, [r7, #16]
 8001988:	1ad3      	subs	r3, r2, r3
 800198a:	461a      	mov	r2, r3
 800198c:	4b0f      	ldr	r3, [pc, #60]	; (80019cc <IHM01_MoveTo+0x5e4>)
 800198e:	60da      	str	r2, [r3, #12]
 8001990:	e02d      	b.n	80019ee <IHM01_MoveTo+0x606>
 8001992:	bf00      	nop
 8001994:	f3af 8000 	nop.w
 8001998:	f01b866e 	.word	0xf01b866e
 800199c:	400921f9 	.word	0x400921f9
 80019a0:	7dae8188 	.word	0x7dae8188
 80019a4:	40239d01 	.word	0x40239d01
 80019a8:	28f5c28f 	.word	0x28f5c28f
 80019ac:	3fee8f5c 	.word	0x3fee8f5c
 80019b0:	00000000 	.word	0x00000000
 80019b4:	40ba1300 	.word	0x40ba1300
 80019b8:	4bda12f7 	.word	0x4bda12f7
 80019bc:	20000454 	.word	0x20000454
 80019c0:	40590000 	.word	0x40590000
 80019c4:	404b0000 	.word	0x404b0000
 80019c8:	002f5670 	.word	0x002f5670
 80019cc:	2000043c 	.word	0x2000043c
 80019d0:	25735f2f 	.word	0x25735f2f
 80019d4:	51eb851f 	.word	0x51eb851f
	    else	    				srd.Decel_Val = -(uint32_t)((max_s_lim * Accel) / Decel);
 80019d8:	887b      	ldrh	r3, [r7, #2]
 80019da:	697a      	ldr	r2, [r7, #20]
 80019dc:	fb02 f203 	mul.w	r2, r2, r3
 80019e0:	883b      	ldrh	r3, [r7, #0]
 80019e2:	fbb2 f3f3 	udiv	r3, r2, r3
 80019e6:	425b      	negs	r3, r3
 80019e8:	461a      	mov	r2, r3
 80019ea:	4b1b      	ldr	r3, [pc, #108]	; (8001a58 <IHM01_MoveTo+0x670>)
 80019ec:	60da      	str	r2, [r3, #12]

	    // We must decelerate at least 1 step to stop.
	    if(srd.Decel_Val == 0)		srd.Decel_Val = -1;
 80019ee:	4b1a      	ldr	r3, [pc, #104]	; (8001a58 <IHM01_MoveTo+0x670>)
 80019f0:	68db      	ldr	r3, [r3, #12]
 80019f2:	2b00      	cmp	r3, #0
 80019f4:	d103      	bne.n	80019fe <IHM01_MoveTo+0x616>
 80019f6:	4b18      	ldr	r3, [pc, #96]	; (8001a58 <IHM01_MoveTo+0x670>)
 80019f8:	f04f 32ff 	mov.w	r2, #4294967295
 80019fc:	60da      	str	r2, [r3, #12]

	    // Find step to start deceleration.
	    srd.Decel_Start_Pos = Steps + srd.Decel_Val - 1;
 80019fe:	4b16      	ldr	r3, [pc, #88]	; (8001a58 <IHM01_MoveTo+0x670>)
 8001a00:	68da      	ldr	r2, [r3, #12]
 8001a02:	68fb      	ldr	r3, [r7, #12]
 8001a04:	4413      	add	r3, r2
 8001a06:	3b01      	subs	r3, #1
 8001a08:	461a      	mov	r2, r3
 8001a0a:	4b13      	ldr	r3, [pc, #76]	; (8001a58 <IHM01_MoveTo+0x670>)
 8001a0c:	609a      	str	r2, [r3, #8]

	    // If the maximum speed is so low that we dont need to go via acceleration state.
	    if(srd.Next_Step_Delay <= srd.Min_Delay)
 8001a0e:	4b12      	ldr	r3, [pc, #72]	; (8001a58 <IHM01_MoveTo+0x670>)
 8001a10:	685b      	ldr	r3, [r3, #4]
 8001a12:	4a11      	ldr	r2, [pc, #68]	; (8001a58 <IHM01_MoveTo+0x670>)
 8001a14:	6912      	ldr	r2, [r2, #16]
 8001a16:	4293      	cmp	r3, r2
 8001a18:	d808      	bhi.n	8001a2c <IHM01_MoveTo+0x644>
	    	{
	    	srd.Next_Step_Delay = srd.Min_Delay;
 8001a1a:	4b0f      	ldr	r3, [pc, #60]	; (8001a58 <IHM01_MoveTo+0x670>)
 8001a1c:	691b      	ldr	r3, [r3, #16]
 8001a1e:	461a      	mov	r2, r3
 8001a20:	4b0d      	ldr	r3, [pc, #52]	; (8001a58 <IHM01_MoveTo+0x670>)
 8001a22:	605a      	str	r2, [r3, #4]
	    	srd.Run_State = MOVE;
 8001a24:	4b0c      	ldr	r3, [pc, #48]	; (8001a58 <IHM01_MoveTo+0x670>)
 8001a26:	2203      	movs	r2, #3
 8001a28:	701a      	strb	r2, [r3, #0]
 8001a2a:	e002      	b.n	8001a32 <IHM01_MoveTo+0x64a>
	     	}
	    else
	    	{
	    	srd.Run_State = ACCEL;
 8001a2c:	4b0a      	ldr	r3, [pc, #40]	; (8001a58 <IHM01_MoveTo+0x670>)
 8001a2e:	2201      	movs	r2, #1
 8001a30:	701a      	strb	r2, [r3, #0]
	     	}

	    // Reset counter
	    srd.AccelDecel_Count = 0;
 8001a32:	4b09      	ldr	r3, [pc, #36]	; (8001a58 <IHM01_MoveTo+0x670>)
 8001a34:	2200      	movs	r2, #0
 8001a36:	615a      	str	r2, [r3, #20]
	    IHM01_SetPWMTimer(srd.Next_Step_Delay);
 8001a38:	4b07      	ldr	r3, [pc, #28]	; (8001a58 <IHM01_MoveTo+0x670>)
 8001a3a:	685b      	ldr	r3, [r3, #4]
 8001a3c:	4618      	mov	r0, r3
 8001a3e:	f000 fe77 	bl	8002730 <IHM01_SetPWMTimer>
	    IHM01_MotorOn();
 8001a42:	f7ff fc61 	bl	8001308 <IHM01_MotorOn>
	    }

	while(srd.Run_State != STOP); // Blocken, solange der Motor noch in Bewegung ist
 8001a46:	bf00      	nop
 8001a48:	4b03      	ldr	r3, [pc, #12]	; (8001a58 <IHM01_MoveTo+0x670>)
 8001a4a:	781b      	ldrb	r3, [r3, #0]
 8001a4c:	2b00      	cmp	r3, #0
 8001a4e:	d1fb      	bne.n	8001a48 <IHM01_MoveTo+0x660>
}
 8001a50:	bf00      	nop
 8001a52:	371c      	adds	r7, #28
 8001a54:	46bd      	mov	sp, r7
 8001a56:	bd90      	pop	{r4, r7, pc}
 8001a58:	2000043c 	.word	0x2000043c

08001a5c <IHM01_SetOverCurrentLimit>:

//#######################################
//### Limit für Überstromerkennung setzen
void IHM01_SetOverCurrentLimit(uint8_t value)
{
 8001a5c:	b580      	push	{r7, lr}
 8001a5e:	b082      	sub	sp, #8
 8001a60:	af00      	add	r7, sp, #0
 8001a62:	4603      	mov	r3, r0
 8001a64:	71fb      	strb	r3, [r7, #7]
	...
	8:	3,375A (Default)
	...
	15:	6A					*/

	if(value > 15)	value = 8; //Bei ungültigen Wert
 8001a66:	79fb      	ldrb	r3, [r7, #7]
 8001a68:	2b0f      	cmp	r3, #15
 8001a6a:	d901      	bls.n	8001a70 <IHM01_SetOverCurrentLimit+0x14>
 8001a6c:	2308      	movs	r3, #8
 8001a6e:	71fb      	strb	r3, [r7, #7]

	IHM01_SPI_TX_Data[0] = 0x13; // OCD-Treshold
 8001a70:	4b06      	ldr	r3, [pc, #24]	; (8001a8c <IHM01_SetOverCurrentLimit+0x30>)
 8001a72:	2213      	movs	r2, #19
 8001a74:	701a      	strb	r2, [r3, #0]
	IHM01_SPI_TX_Data[1] = value;
 8001a76:	4a05      	ldr	r2, [pc, #20]	; (8001a8c <IHM01_SetOverCurrentLimit+0x30>)
 8001a78:	79fb      	ldrb	r3, [r7, #7]
 8001a7a:	7053      	strb	r3, [r2, #1]
	SPI_TXRX(2);
 8001a7c:	2002      	movs	r0, #2
 8001a7e:	f000 fc1b 	bl	80022b8 <SPI_TXRX>
}
 8001a82:	bf00      	nop
 8001a84:	3708      	adds	r7, #8
 8001a86:	46bd      	mov	sp, r7
 8001a88:	bd80      	pop	{r7, pc}
 8001a8a:	bf00      	nop
 8001a8c:	20000428 	.word	0x20000428

08001a90 <IHM01_SetPhaseCurrentControl>:
}

//###########################################
//### Limit für Phasenstrom setzen (Regelung)
void IHM01_SetPhaseCurrentControl(uint8_t value)
{
 8001a90:	b580      	push	{r7, lr}
 8001a92:	b082      	sub	sp, #8
 8001a94:	af00      	add	r7, sp, #0
 8001a96:	4603      	mov	r3, r0
 8001a98:	71fb      	strb	r3, [r7, #7]
	 ...
	 41:	1,3125A (Default)
	...
	127:	4A					*/

	if(value > 127)	value = 41; //Bei ungültigen Wert
 8001a9a:	f997 3007 	ldrsb.w	r3, [r7, #7]
 8001a9e:	2b00      	cmp	r3, #0
 8001aa0:	da01      	bge.n	8001aa6 <IHM01_SetPhaseCurrentControl+0x16>
 8001aa2:	2329      	movs	r3, #41	; 0x29
 8001aa4:	71fb      	strb	r3, [r7, #7]
	IHM01_SPI_TX_Data[0] = 0x09; // Torque Regulation Value (TVAL)
 8001aa6:	4b06      	ldr	r3, [pc, #24]	; (8001ac0 <IHM01_SetPhaseCurrentControl+0x30>)
 8001aa8:	2209      	movs	r2, #9
 8001aaa:	701a      	strb	r2, [r3, #0]
	IHM01_SPI_TX_Data[1] = value;
 8001aac:	4a04      	ldr	r2, [pc, #16]	; (8001ac0 <IHM01_SetPhaseCurrentControl+0x30>)
 8001aae:	79fb      	ldrb	r3, [r7, #7]
 8001ab0:	7053      	strb	r3, [r2, #1]
	SPI_TXRX(2);
 8001ab2:	2002      	movs	r0, #2
 8001ab4:	f000 fc00 	bl	80022b8 <SPI_TXRX>
}
 8001ab8:	bf00      	nop
 8001aba:	3708      	adds	r7, #8
 8001abc:	46bd      	mov	sp, r7
 8001abe:	bd80      	pop	{r7, pc}
 8001ac0:	20000428 	.word	0x20000428

08001ac4 <IHM01_SetStepMode>:
}

//#################################################
//### Stepmode setzen (Zwischenschritte 0,1,3,7,15)
void IHM01_SetStepMode(uint8_t value)
{
 8001ac4:	b580      	push	{r7, lr}
 8001ac6:	b082      	sub	sp, #8
 8001ac8:	af00      	add	r7, sp, #0
 8001aca:	4603      	mov	r3, r0
 8001acc:	71fb      	strb	r3, [r7, #7]

	IHM01_SPI_TX_Data[0] = 0x16; // Stepmode
 8001ace:	4b25      	ldr	r3, [pc, #148]	; (8001b64 <IHM01_SetStepMode+0xa0>)
 8001ad0:	2216      	movs	r2, #22
 8001ad2:	701a      	strb	r2, [r3, #0]

	switch (value)
 8001ad4:	79fb      	ldrb	r3, [r7, #7]
 8001ad6:	2b10      	cmp	r3, #16
 8001ad8:	d838      	bhi.n	8001b4c <IHM01_SetStepMode+0x88>
 8001ada:	a201      	add	r2, pc, #4	; (adr r2, 8001ae0 <IHM01_SetStepMode+0x1c>)
 8001adc:	f852 f023 	ldr.w	pc, [r2, r3, lsl #2]
 8001ae0:	08001b25 	.word	0x08001b25
 8001ae4:	08001b4d 	.word	0x08001b4d
 8001ae8:	08001b2d 	.word	0x08001b2d
 8001aec:	08001b4d 	.word	0x08001b4d
 8001af0:	08001b35 	.word	0x08001b35
 8001af4:	08001b4d 	.word	0x08001b4d
 8001af8:	08001b4d 	.word	0x08001b4d
 8001afc:	08001b4d 	.word	0x08001b4d
 8001b00:	08001b3d 	.word	0x08001b3d
 8001b04:	08001b4d 	.word	0x08001b4d
 8001b08:	08001b4d 	.word	0x08001b4d
 8001b0c:	08001b4d 	.word	0x08001b4d
 8001b10:	08001b4d 	.word	0x08001b4d
 8001b14:	08001b4d 	.word	0x08001b4d
 8001b18:	08001b4d 	.word	0x08001b4d
 8001b1c:	08001b4d 	.word	0x08001b4d
 8001b20:	08001b45 	.word	0x08001b45
	{
		case 0:
			IHM01_SPI_TX_Data[1] = 0x88; //Voll-Step
 8001b24:	4b0f      	ldr	r3, [pc, #60]	; (8001b64 <IHM01_SetStepMode+0xa0>)
 8001b26:	2288      	movs	r2, #136	; 0x88
 8001b28:	705a      	strb	r2, [r3, #1]
			break;
 8001b2a:	e013      	b.n	8001b54 <IHM01_SetStepMode+0x90>
		case 2:
			IHM01_SPI_TX_Data[1] = 0x89; //Halb-Step
 8001b2c:	4b0d      	ldr	r3, [pc, #52]	; (8001b64 <IHM01_SetStepMode+0xa0>)
 8001b2e:	2289      	movs	r2, #137	; 0x89
 8001b30:	705a      	strb	r2, [r3, #1]
			break;
 8001b32:	e00f      	b.n	8001b54 <IHM01_SetStepMode+0x90>
		case 4:
			IHM01_SPI_TX_Data[1] = 0x8A; //1/4-Step
 8001b34:	4b0b      	ldr	r3, [pc, #44]	; (8001b64 <IHM01_SetStepMode+0xa0>)
 8001b36:	228a      	movs	r2, #138	; 0x8a
 8001b38:	705a      	strb	r2, [r3, #1]
			break;
 8001b3a:	e00b      	b.n	8001b54 <IHM01_SetStepMode+0x90>
		case 8:
			IHM01_SPI_TX_Data[1] = 0x8B; //1/8-Step
 8001b3c:	4b09      	ldr	r3, [pc, #36]	; (8001b64 <IHM01_SetStepMode+0xa0>)
 8001b3e:	228b      	movs	r2, #139	; 0x8b
 8001b40:	705a      	strb	r2, [r3, #1]
			break;
 8001b42:	e007      	b.n	8001b54 <IHM01_SetStepMode+0x90>
		case 16:
			IHM01_SPI_TX_Data[1] = 0x8C; //1/16-Step
 8001b44:	4b07      	ldr	r3, [pc, #28]	; (8001b64 <IHM01_SetStepMode+0xa0>)
 8001b46:	228c      	movs	r2, #140	; 0x8c
 8001b48:	705a      	strb	r2, [r3, #1]
			break;
 8001b4a:	e003      	b.n	8001b54 <IHM01_SetStepMode+0x90>
		default:
			IHM01_SPI_TX_Data[1] = 0x88; //Voll-Step
 8001b4c:	4b05      	ldr	r3, [pc, #20]	; (8001b64 <IHM01_SetStepMode+0xa0>)
 8001b4e:	2288      	movs	r2, #136	; 0x88
 8001b50:	705a      	strb	r2, [r3, #1]
			break;
 8001b52:	bf00      	nop
	}
	SPI_TXRX(2);
 8001b54:	2002      	movs	r0, #2
 8001b56:	f000 fbaf 	bl	80022b8 <SPI_TXRX>
}
 8001b5a:	bf00      	nop
 8001b5c:	3708      	adds	r7, #8
 8001b5e:	46bd      	mov	sp, r7
 8001b60:	bd80      	pop	{r7, pc}
 8001b62:	bf00      	nop
 8001b64:	20000428 	.word	0x20000428

08001b68 <IHM01_SetDirection>:

//################################
//### Drehrichtung Motor festlegen
void IHM01_SetDirection(int8_t Dir)
{
 8001b68:	b580      	push	{r7, lr}
 8001b6a:	b082      	sub	sp, #8
 8001b6c:	af00      	add	r7, sp, #0
 8001b6e:	4603      	mov	r3, r0
 8001b70:	71fb      	strb	r3, [r7, #7]
	switch (Dir)
 8001b72:	f997 3007 	ldrsb.w	r3, [r7, #7]
 8001b76:	2b00      	cmp	r3, #0
 8001b78:	d002      	beq.n	8001b80 <IHM01_SetDirection+0x18>
 8001b7a:	2b01      	cmp	r3, #1
 8001b7c:	d00a      	beq.n	8001b94 <IHM01_SetDirection+0x2c>
			HAL_GPIO_WritePin(GPIOA, IHM01_DIR_Pin, GPIO_PIN_SET);
			srd.Direction = EXTEND;
			break;

		default:
			break;
 8001b7e:	e013      	b.n	8001ba8 <IHM01_SetDirection+0x40>
			HAL_GPIO_WritePin(GPIOA, IHM01_DIR_Pin, GPIO_PIN_RESET);
 8001b80:	2200      	movs	r2, #0
 8001b82:	f44f 7180 	mov.w	r1, #256	; 0x100
 8001b86:	480a      	ldr	r0, [pc, #40]	; (8001bb0 <IHM01_SetDirection+0x48>)
 8001b88:	f001 face 	bl	8003128 <HAL_GPIO_WritePin>
			srd.Direction = RETRACT;
 8001b8c:	4b09      	ldr	r3, [pc, #36]	; (8001bb4 <IHM01_SetDirection+0x4c>)
 8001b8e:	2200      	movs	r2, #0
 8001b90:	705a      	strb	r2, [r3, #1]
			break;
 8001b92:	e009      	b.n	8001ba8 <IHM01_SetDirection+0x40>
			HAL_GPIO_WritePin(GPIOA, IHM01_DIR_Pin, GPIO_PIN_SET);
 8001b94:	2201      	movs	r2, #1
 8001b96:	f44f 7180 	mov.w	r1, #256	; 0x100
 8001b9a:	4805      	ldr	r0, [pc, #20]	; (8001bb0 <IHM01_SetDirection+0x48>)
 8001b9c:	f001 fac4 	bl	8003128 <HAL_GPIO_WritePin>
			srd.Direction = EXTEND;
 8001ba0:	4b04      	ldr	r3, [pc, #16]	; (8001bb4 <IHM01_SetDirection+0x4c>)
 8001ba2:	2201      	movs	r2, #1
 8001ba4:	705a      	strb	r2, [r3, #1]
			break;
 8001ba6:	bf00      	nop
	}


}
 8001ba8:	bf00      	nop
 8001baa:	3708      	adds	r7, #8
 8001bac:	46bd      	mov	sp, r7
 8001bae:	bd80      	pop	{r7, pc}
 8001bb0:	40020000 	.word	0x40020000
 8001bb4:	2000043c 	.word	0x2000043c

08001bb8 <IHM01_PowerStageEnable>:

//###################
//### Endstufe ON/OFF
void IHM01_PowerStageEnable(uint8_t value)
{
 8001bb8:	b580      	push	{r7, lr}
 8001bba:	b082      	sub	sp, #8
 8001bbc:	af00      	add	r7, sp, #0
 8001bbe:	4603      	mov	r3, r0
 8001bc0:	71fb      	strb	r3, [r7, #7]
	if(value == 1)		IHM01_SPI_TX_Data[0] = 0xB8; // Endstufe ON
 8001bc2:	79fb      	ldrb	r3, [r7, #7]
 8001bc4:	2b01      	cmp	r3, #1
 8001bc6:	d103      	bne.n	8001bd0 <IHM01_PowerStageEnable+0x18>
 8001bc8:	4b06      	ldr	r3, [pc, #24]	; (8001be4 <IHM01_PowerStageEnable+0x2c>)
 8001bca:	22b8      	movs	r2, #184	; 0xb8
 8001bcc:	701a      	strb	r2, [r3, #0]
 8001bce:	e002      	b.n	8001bd6 <IHM01_PowerStageEnable+0x1e>
	else				IHM01_SPI_TX_Data[0] = 0xA8; // Endstufe OFF
 8001bd0:	4b04      	ldr	r3, [pc, #16]	; (8001be4 <IHM01_PowerStageEnable+0x2c>)
 8001bd2:	22a8      	movs	r2, #168	; 0xa8
 8001bd4:	701a      	strb	r2, [r3, #0]

	SPI_TXRX(1);
 8001bd6:	2001      	movs	r0, #1
 8001bd8:	f000 fb6e 	bl	80022b8 <SPI_TXRX>
}
 8001bdc:	bf00      	nop
 8001bde:	3708      	adds	r7, #8
 8001be0:	46bd      	mov	sp, r7
 8001be2:	bd80      	pop	{r7, pc}
 8001be4:	20000428 	.word	0x20000428

08001be8 <IHM01_GetStatus>:

//#############################
//### Status & Fehler  auslesen

uint16_t IHM01_GetStatus()
{
 8001be8:	b580      	push	{r7, lr}
 8001bea:	b082      	sub	sp, #8
 8001bec:	af00      	add	r7, sp, #0
uint16_t ret;

	IHM01_SPI_TX_Data[0] = 0xD0; //GetStatus
 8001bee:	4b0d      	ldr	r3, [pc, #52]	; (8001c24 <IHM01_GetStatus+0x3c>)
 8001bf0:	22d0      	movs	r2, #208	; 0xd0
 8001bf2:	701a      	strb	r2, [r3, #0]
	IHM01_SPI_TX_Data[1] = 0x00;
 8001bf4:	4b0b      	ldr	r3, [pc, #44]	; (8001c24 <IHM01_GetStatus+0x3c>)
 8001bf6:	2200      	movs	r2, #0
 8001bf8:	705a      	strb	r2, [r3, #1]
	IHM01_SPI_TX_Data[2] = 0x00;
 8001bfa:	4b0a      	ldr	r3, [pc, #40]	; (8001c24 <IHM01_GetStatus+0x3c>)
 8001bfc:	2200      	movs	r2, #0
 8001bfe:	709a      	strb	r2, [r3, #2]
	SPI_TXRX(3);
 8001c00:	2003      	movs	r0, #3
 8001c02:	f000 fb59 	bl	80022b8 <SPI_TXRX>

	ret = ((IHM01_SPI_RX_Data[1] << 8) | IHM01_SPI_RX_Data[2]);
 8001c06:	4b08      	ldr	r3, [pc, #32]	; (8001c28 <IHM01_GetStatus+0x40>)
 8001c08:	785b      	ldrb	r3, [r3, #1]
 8001c0a:	021b      	lsls	r3, r3, #8
 8001c0c:	b21a      	sxth	r2, r3
 8001c0e:	4b06      	ldr	r3, [pc, #24]	; (8001c28 <IHM01_GetStatus+0x40>)
 8001c10:	789b      	ldrb	r3, [r3, #2]
 8001c12:	b21b      	sxth	r3, r3
 8001c14:	4313      	orrs	r3, r2
 8001c16:	b21b      	sxth	r3, r3
 8001c18:	80fb      	strh	r3, [r7, #6]

return ret;
 8001c1a:	88fb      	ldrh	r3, [r7, #6]
}
 8001c1c:	4618      	mov	r0, r3
 8001c1e:	3708      	adds	r7, #8
 8001c20:	46bd      	mov	sp, r7
 8001c22:	bd80      	pop	{r7, pc}
 8001c24:	20000428 	.word	0x20000428
 8001c28:	200003d4 	.word	0x200003d4

08001c2c <MX_GPIO_Init>:
        * Output
        * EVENT_OUT
        * EXTI
*/
void MX_GPIO_Init(void)
{
 8001c2c:	b580      	push	{r7, lr}
 8001c2e:	b088      	sub	sp, #32
 8001c30:	af00      	add	r7, sp, #0

  GPIO_InitTypeDef GPIO_InitStruct = {0};
 8001c32:	f107 030c 	add.w	r3, r7, #12
 8001c36:	2200      	movs	r2, #0
 8001c38:	601a      	str	r2, [r3, #0]
 8001c3a:	605a      	str	r2, [r3, #4]
 8001c3c:	609a      	str	r2, [r3, #8]
 8001c3e:	60da      	str	r2, [r3, #12]
 8001c40:	611a      	str	r2, [r3, #16]

  /* GPIO Ports Clock Enable */
  __HAL_RCC_GPIOC_CLK_ENABLE();
 8001c42:	2300      	movs	r3, #0
 8001c44:	60bb      	str	r3, [r7, #8]
 8001c46:	4b4e      	ldr	r3, [pc, #312]	; (8001d80 <MX_GPIO_Init+0x154>)
 8001c48:	6b1b      	ldr	r3, [r3, #48]	; 0x30
 8001c4a:	4a4d      	ldr	r2, [pc, #308]	; (8001d80 <MX_GPIO_Init+0x154>)
 8001c4c:	f043 0304 	orr.w	r3, r3, #4
 8001c50:	6313      	str	r3, [r2, #48]	; 0x30
 8001c52:	4b4b      	ldr	r3, [pc, #300]	; (8001d80 <MX_GPIO_Init+0x154>)
 8001c54:	6b1b      	ldr	r3, [r3, #48]	; 0x30
 8001c56:	f003 0304 	and.w	r3, r3, #4
 8001c5a:	60bb      	str	r3, [r7, #8]
 8001c5c:	68bb      	ldr	r3, [r7, #8]
  __HAL_RCC_GPIOA_CLK_ENABLE();
 8001c5e:	2300      	movs	r3, #0
 8001c60:	607b      	str	r3, [r7, #4]
 8001c62:	4b47      	ldr	r3, [pc, #284]	; (8001d80 <MX_GPIO_Init+0x154>)
 8001c64:	6b1b      	ldr	r3, [r3, #48]	; 0x30
 8001c66:	4a46      	ldr	r2, [pc, #280]	; (8001d80 <MX_GPIO_Init+0x154>)
 8001c68:	f043 0301 	orr.w	r3, r3, #1
 8001c6c:	6313      	str	r3, [r2, #48]	; 0x30
 8001c6e:	4b44      	ldr	r3, [pc, #272]	; (8001d80 <MX_GPIO_Init+0x154>)
 8001c70:	6b1b      	ldr	r3, [r3, #48]	; 0x30
 8001c72:	f003 0301 	and.w	r3, r3, #1
 8001c76:	607b      	str	r3, [r7, #4]
 8001c78:	687b      	ldr	r3, [r7, #4]
  __HAL_RCC_GPIOB_CLK_ENABLE();
 8001c7a:	2300      	movs	r3, #0
 8001c7c:	603b      	str	r3, [r7, #0]
 8001c7e:	4b40      	ldr	r3, [pc, #256]	; (8001d80 <MX_GPIO_Init+0x154>)
 8001c80:	6b1b      	ldr	r3, [r3, #48]	; 0x30
 8001c82:	4a3f      	ldr	r2, [pc, #252]	; (8001d80 <MX_GPIO_Init+0x154>)
 8001c84:	f043 0302 	orr.w	r3, r3, #2
 8001c88:	6313      	str	r3, [r2, #48]	; 0x30
 8001c8a:	4b3d      	ldr	r3, [pc, #244]	; (8001d80 <MX_GPIO_Init+0x154>)
 8001c8c:	6b1b      	ldr	r3, [r3, #48]	; 0x30
 8001c8e:	f003 0302 	and.w	r3, r3, #2
 8001c92:	603b      	str	r3, [r7, #0]
 8001c94:	683b      	ldr	r3, [r7, #0]

  /*Configure GPIO pin Output Level */
  HAL_GPIO_WritePin(GPIOC, IHM01_STATEOUT_Pin|IHM01_STBY_Pin, GPIO_PIN_RESET);
 8001c96:	2200      	movs	r2, #0
 8001c98:	2181      	movs	r1, #129	; 0x81
 8001c9a:	483a      	ldr	r0, [pc, #232]	; (8001d84 <MX_GPIO_Init+0x158>)
 8001c9c:	f001 fa44 	bl	8003128 <HAL_GPIO_WritePin>

  /*Configure GPIO pin Output Level */
  HAL_GPIO_WritePin(IHM01_DIR_GPIO_Port, IHM01_DIR_Pin, GPIO_PIN_RESET);
 8001ca0:	2200      	movs	r2, #0
 8001ca2:	f44f 7180 	mov.w	r1, #256	; 0x100
 8001ca6:	4838      	ldr	r0, [pc, #224]	; (8001d88 <MX_GPIO_Init+0x15c>)
 8001ca8:	f001 fa3e 	bl	8003128 <HAL_GPIO_WritePin>

  /*Configure GPIO pin Output Level */
  HAL_GPIO_WritePin(IHM01_SPI_CS_GPIO_Port, IHM01_SPI_CS_Pin, GPIO_PIN_RESET);
 8001cac:	2200      	movs	r2, #0
 8001cae:	2140      	movs	r1, #64	; 0x40
 8001cb0:	4836      	ldr	r0, [pc, #216]	; (8001d8c <MX_GPIO_Init+0x160>)
 8001cb2:	f001 fa39 	bl	8003128 <HAL_GPIO_WritePin>

  /*Configure GPIO pin : PtPin */
  GPIO_InitStruct.Pin = B1_Pin;
 8001cb6:	f44f 5300 	mov.w	r3, #8192	; 0x2000
 8001cba:	60fb      	str	r3, [r7, #12]
  GPIO_InitStruct.Mode = GPIO_MODE_IT_FALLING;
 8001cbc:	4b34      	ldr	r3, [pc, #208]	; (8001d90 <MX_GPIO_Init+0x164>)
 8001cbe:	613b      	str	r3, [r7, #16]
  GPIO_InitStruct.Pull = GPIO_NOPULL;
 8001cc0:	2300      	movs	r3, #0
 8001cc2:	617b      	str	r3, [r7, #20]
  HAL_GPIO_Init(B1_GPIO_Port, &GPIO_InitStruct);
 8001cc4:	f107 030c 	add.w	r3, r7, #12
 8001cc8:	4619      	mov	r1, r3
 8001cca:	482e      	ldr	r0, [pc, #184]	; (8001d84 <MX_GPIO_Init+0x158>)
 8001ccc:	f001 f882 	bl	8002dd4 <HAL_GPIO_Init>

  /*Configure GPIO pins : PCPin PCPin */
  GPIO_InitStruct.Pin = IHM01_STATEOUT_Pin|IHM01_STBY_Pin;
 8001cd0:	2381      	movs	r3, #129	; 0x81
 8001cd2:	60fb      	str	r3, [r7, #12]
  GPIO_InitStruct.Mode = GPIO_MODE_OUTPUT_PP;
 8001cd4:	2301      	movs	r3, #1
 8001cd6:	613b      	str	r3, [r7, #16]
  GPIO_InitStruct.Pull = GPIO_NOPULL;
 8001cd8:	2300      	movs	r3, #0
 8001cda:	617b      	str	r3, [r7, #20]
  GPIO_InitStruct.Speed = GPIO_SPEED_FREQ_LOW;
 8001cdc:	2300      	movs	r3, #0
 8001cde:	61bb      	str	r3, [r7, #24]
  HAL_GPIO_Init(GPIOC, &GPIO_InitStruct);
 8001ce0:	f107 030c 	add.w	r3, r7, #12
 8001ce4:	4619      	mov	r1, r3
 8001ce6:	4827      	ldr	r0, [pc, #156]	; (8001d84 <MX_GPIO_Init+0x158>)
 8001ce8:	f001 f874 	bl	8002dd4 <HAL_GPIO_Init>

  /*Configure GPIO pin : PtPin */
  GPIO_InitStruct.Pin = IHM01_ELS_IN_Pin;
 8001cec:	2302      	movs	r3, #2
 8001cee:	60fb      	str	r3, [r7, #12]
  GPIO_InitStruct.Mode = GPIO_MODE_IT_FALLING;
 8001cf0:	4b27      	ldr	r3, [pc, #156]	; (8001d90 <MX_GPIO_Init+0x164>)
 8001cf2:	613b      	str	r3, [r7, #16]
  GPIO_InitStruct.Pull = GPIO_NOPULL;
 8001cf4:	2300      	movs	r3, #0
 8001cf6:	617b      	str	r3, [r7, #20]
  HAL_GPIO_Init(IHM01_ELS_IN_GPIO_Port, &GPIO_InitStruct);
 8001cf8:	f107 030c 	add.w	r3, r7, #12
 8001cfc:	4619      	mov	r1, r3
 8001cfe:	4822      	ldr	r0, [pc, #136]	; (8001d88 <MX_GPIO_Init+0x15c>)
 8001d00:	f001 f868 	bl	8002dd4 <HAL_GPIO_Init>

  /*Configure GPIO pin : PtPin */
  GPIO_InitStruct.Pin = IHM01_DIR_Pin;
 8001d04:	f44f 7380 	mov.w	r3, #256	; 0x100
 8001d08:	60fb      	str	r3, [r7, #12]
  GPIO_InitStruct.Mode = GPIO_MODE_OUTPUT_PP;
 8001d0a:	2301      	movs	r3, #1
 8001d0c:	613b      	str	r3, [r7, #16]
  GPIO_InitStruct.Pull = GPIO_NOPULL;
 8001d0e:	2300      	movs	r3, #0
 8001d10:	617b      	str	r3, [r7, #20]
  GPIO_InitStruct.Speed = GPIO_SPEED_FREQ_LOW;
 8001d12:	2300      	movs	r3, #0
 8001d14:	61bb      	str	r3, [r7, #24]
  HAL_GPIO_Init(IHM01_DIR_GPIO_Port, &GPIO_InitStruct);
 8001d16:	f107 030c 	add.w	r3, r7, #12
 8001d1a:	4619      	mov	r1, r3
 8001d1c:	481a      	ldr	r0, [pc, #104]	; (8001d88 <MX_GPIO_Init+0x15c>)
 8001d1e:	f001 f859 	bl	8002dd4 <HAL_GPIO_Init>

  /*Configure GPIO pin : PtPin */
  GPIO_InitStruct.Pin = IMH01_FLAG_Pin;
 8001d22:	f44f 6380 	mov.w	r3, #1024	; 0x400
 8001d26:	60fb      	str	r3, [r7, #12]
  GPIO_InitStruct.Mode = GPIO_MODE_IT_FALLING;
 8001d28:	4b19      	ldr	r3, [pc, #100]	; (8001d90 <MX_GPIO_Init+0x164>)
 8001d2a:	613b      	str	r3, [r7, #16]
  GPIO_InitStruct.Pull = GPIO_PULLUP;
 8001d2c:	2301      	movs	r3, #1
 8001d2e:	617b      	str	r3, [r7, #20]
  HAL_GPIO_Init(IMH01_FLAG_GPIO_Port, &GPIO_InitStruct);
 8001d30:	f107 030c 	add.w	r3, r7, #12
 8001d34:	4619      	mov	r1, r3
 8001d36:	4814      	ldr	r0, [pc, #80]	; (8001d88 <MX_GPIO_Init+0x15c>)
 8001d38:	f001 f84c 	bl	8002dd4 <HAL_GPIO_Init>

  /*Configure GPIO pin : PtPin */
  GPIO_InitStruct.Pin = IHM01_SPI_CS_Pin;
 8001d3c:	2340      	movs	r3, #64	; 0x40
 8001d3e:	60fb      	str	r3, [r7, #12]
  GPIO_InitStruct.Mode = GPIO_MODE_OUTPUT_PP;
 8001d40:	2301      	movs	r3, #1
 8001d42:	613b      	str	r3, [r7, #16]
  GPIO_InitStruct.Pull = GPIO_PULLUP;
 8001d44:	2301      	movs	r3, #1
 8001d46:	617b      	str	r3, [r7, #20]
  GPIO_InitStruct.Speed = GPIO_SPEED_FREQ_MEDIUM;
 8001d48:	2301      	movs	r3, #1
 8001d4a:	61bb      	str	r3, [r7, #24]
  HAL_GPIO_Init(IHM01_SPI_CS_GPIO_Port, &GPIO_InitStruct);
 8001d4c:	f107 030c 	add.w	r3, r7, #12
 8001d50:	4619      	mov	r1, r3
 8001d52:	480e      	ldr	r0, [pc, #56]	; (8001d8c <MX_GPIO_Init+0x160>)
 8001d54:	f001 f83e 	bl	8002dd4 <HAL_GPIO_Init>

  /* EXTI interrupt init*/
  HAL_NVIC_SetPriority(EXTI1_IRQn, 0, 0);
 8001d58:	2200      	movs	r2, #0
 8001d5a:	2100      	movs	r1, #0
 8001d5c:	2007      	movs	r0, #7
 8001d5e:	f000 fff4 	bl	8002d4a <HAL_NVIC_SetPriority>
  HAL_NVIC_EnableIRQ(EXTI1_IRQn);
 8001d62:	2007      	movs	r0, #7
 8001d64:	f001 f80d 	bl	8002d82 <HAL_NVIC_EnableIRQ>

  HAL_NVIC_SetPriority(EXTI15_10_IRQn, 0, 0);
 8001d68:	2200      	movs	r2, #0
 8001d6a:	2100      	movs	r1, #0
 8001d6c:	2028      	movs	r0, #40	; 0x28
 8001d6e:	f000 ffec 	bl	8002d4a <HAL_NVIC_SetPriority>
  HAL_NVIC_EnableIRQ(EXTI15_10_IRQn);
 8001d72:	2028      	movs	r0, #40	; 0x28
 8001d74:	f001 f805 	bl	8002d82 <HAL_NVIC_EnableIRQ>

}
 8001d78:	bf00      	nop
 8001d7a:	3720      	adds	r7, #32
 8001d7c:	46bd      	mov	sp, r7
 8001d7e:	bd80      	pop	{r7, pc}
 8001d80:	40023800 	.word	0x40023800
 8001d84:	40020800 	.word	0x40020800
 8001d88:	40020000 	.word	0x40020000
 8001d8c:	40020400 	.word	0x40020400
 8001d90:	10210000 	.word	0x10210000

08001d94 <HAL_GPIO_EXTI_Callback>:

/* USER CODE BEGIN 2 */
void HAL_GPIO_EXTI_Callback(uint16_t GPIO_Pin)
{
 8001d94:	b580      	push	{r7, lr}
 8001d96:	b084      	sub	sp, #16
 8001d98:	af00      	add	r7, sp, #0
 8001d9a:	4603      	mov	r3, r0
 8001d9c:	80fb      	strh	r3, [r7, #6]

	if (GPIO_Pin == IMH01_FLAG_Pin && Ablauf != STAT_INIT) //Fault und nicht in der initialisierung
 8001d9e:	88fb      	ldrh	r3, [r7, #6]
 8001da0:	f5b3 6f80 	cmp.w	r3, #1024	; 0x400
 8001da4:	d148      	bne.n	8001e38 <HAL_GPIO_EXTI_Callback+0xa4>
 8001da6:	4b2a      	ldr	r3, [pc, #168]	; (8001e50 <HAL_GPIO_EXTI_Callback+0xbc>)
 8001da8:	781b      	ldrb	r3, [r3, #0]
 8001daa:	2b63      	cmp	r3, #99	; 0x63
 8001dac:	d044      	beq.n	8001e38 <HAL_GPIO_EXTI_Callback+0xa4>
		{
		uint8_t Error = IHM01_GetStatus()>>8;
 8001dae:	f7ff ff1b 	bl	8001be8 <IHM01_GetStatus>
 8001db2:	4603      	mov	r3, r0
 8001db4:	0a1b      	lsrs	r3, r3, #8
 8001db6:	b29b      	uxth	r3, r3
 8001db8:	73fb      	strb	r3, [r7, #15]
		switch(Error)
 8001dba:	7bfb      	ldrb	r3, [r7, #15]
 8001dbc:	3b01      	subs	r3, #1
 8001dbe:	2b0f      	cmp	r3, #15
 8001dc0:	d836      	bhi.n	8001e30 <HAL_GPIO_EXTI_Callback+0x9c>
 8001dc2:	a201      	add	r2, pc, #4	; (adr r2, 8001dc8 <HAL_GPIO_EXTI_Callback+0x34>)
 8001dc4:	f852 f023 	ldr.w	pc, [r2, r3, lsl #2]
 8001dc8:	08001e09 	.word	0x08001e09
 8001dcc:	08001e11 	.word	0x08001e11
 8001dd0:	08001e31 	.word	0x08001e31
 8001dd4:	08001e19 	.word	0x08001e19
 8001dd8:	08001e31 	.word	0x08001e31
 8001ddc:	08001e31 	.word	0x08001e31
 8001de0:	08001e31 	.word	0x08001e31
 8001de4:	08001e21 	.word	0x08001e21
 8001de8:	08001e31 	.word	0x08001e31
 8001dec:	08001e31 	.word	0x08001e31
 8001df0:	08001e31 	.word	0x08001e31
 8001df4:	08001e31 	.word	0x08001e31
 8001df8:	08001e31 	.word	0x08001e31
 8001dfc:	08001e31 	.word	0x08001e31
 8001e00:	08001e31 	.word	0x08001e31
 8001e04:	08001e29 	.word	0x08001e29
			{
			case 1: //Falsches Kommando
				Ablauf = STAT_ERROR_WC;
 8001e08:	4b11      	ldr	r3, [pc, #68]	; (8001e50 <HAL_GPIO_EXTI_Callback+0xbc>)
 8001e0a:	220b      	movs	r2, #11
 8001e0c:	701a      	strb	r2, [r3, #0]
				break;
 8001e0e:	e014      	b.n	8001e3a <HAL_GPIO_EXTI_Callback+0xa6>

			case 2: //Undervoltage
				Ablauf = STAT_ERROR_UV;
 8001e10:	4b0f      	ldr	r3, [pc, #60]	; (8001e50 <HAL_GPIO_EXTI_Callback+0xbc>)
 8001e12:	220c      	movs	r2, #12
 8001e14:	701a      	strb	r2, [r3, #0]
				break;
 8001e16:	e010      	b.n	8001e3a <HAL_GPIO_EXTI_Callback+0xa6>

			case 4: //Thermal Warning
				Ablauf = STAT_ERROR_TW;
 8001e18:	4b0d      	ldr	r3, [pc, #52]	; (8001e50 <HAL_GPIO_EXTI_Callback+0xbc>)
 8001e1a:	220d      	movs	r2, #13
 8001e1c:	701a      	strb	r2, [r3, #0]
				break;
 8001e1e:	e00c      	b.n	8001e3a <HAL_GPIO_EXTI_Callback+0xa6>

			case 8: //Thermal Shutdown
				Ablauf = STAT_ERROR_TS;
 8001e20:	4b0b      	ldr	r3, [pc, #44]	; (8001e50 <HAL_GPIO_EXTI_Callback+0xbc>)
 8001e22:	220e      	movs	r2, #14
 8001e24:	701a      	strb	r2, [r3, #0]
				break;
 8001e26:	e008      	b.n	8001e3a <HAL_GPIO_EXTI_Callback+0xa6>

			case 16: //Overcurrent
				Ablauf = STAT_ERROR_OC;
 8001e28:	4b09      	ldr	r3, [pc, #36]	; (8001e50 <HAL_GPIO_EXTI_Callback+0xbc>)
 8001e2a:	220f      	movs	r2, #15
 8001e2c:	701a      	strb	r2, [r3, #0]
				break;
 8001e2e:	e004      	b.n	8001e3a <HAL_GPIO_EXTI_Callback+0xa6>

			default: //Fehlermeldung ohne Fehlerflags --> Unknown
				Ablauf = STAT_ERROR_UK;
 8001e30:	4b07      	ldr	r3, [pc, #28]	; (8001e50 <HAL_GPIO_EXTI_Callback+0xbc>)
 8001e32:	2210      	movs	r2, #16
 8001e34:	701a      	strb	r2, [r3, #0]
				break;
 8001e36:	e000      	b.n	8001e3a <HAL_GPIO_EXTI_Callback+0xa6>
			}

		}
 8001e38:	bf00      	nop


	if (GPIO_Pin == IHM01_ELS_IN_Pin) //Flanke beim Endlagenschalter
 8001e3a:	88fb      	ldrh	r3, [r7, #6]
 8001e3c:	2b02      	cmp	r3, #2
 8001e3e:	d102      	bne.n	8001e46 <HAL_GPIO_EXTI_Callback+0xb2>
		{
		srd.Run_State = STOP;
 8001e40:	4b04      	ldr	r3, [pc, #16]	; (8001e54 <HAL_GPIO_EXTI_Callback+0xc0>)
 8001e42:	2200      	movs	r2, #0
 8001e44:	701a      	strb	r2, [r3, #0]
		}

}
 8001e46:	bf00      	nop
 8001e48:	3710      	adds	r7, #16
 8001e4a:	46bd      	mov	sp, r7
 8001e4c:	bd80      	pop	{r7, pc}
 8001e4e:	bf00      	nop
 8001e50:	200003ed 	.word	0x200003ed
 8001e54:	2000043c 	.word	0x2000043c

08001e58 <main>:
/**
  * @brief  The application entry point.
  * @retval int
  */
int main(void)
{
 8001e58:	b590      	push	{r4, r7, lr}
 8001e5a:	b083      	sub	sp, #12
 8001e5c:	af02      	add	r7, sp, #8
  /* USER CODE END 1 */

  /* MCU Configuration--------------------------------------------------------*/

  /* Reset of all peripherals, Initializes the Flash interface and the Systick. */
  HAL_Init();
 8001e5e:	f000 fde3 	bl	8002a28 <HAL_Init>
  /* USER CODE BEGIN Init */

  /* USER CODE END Init */

  /* Configure the system clock */
  SystemClock_Config();
 8001e62:	f000 f907 	bl	8002074 <SystemClock_Config>

  /* USER CODE BEGIN SysInit */
  Ablauf = STAT_INIT;
 8001e66:	4b7d      	ldr	r3, [pc, #500]	; (800205c <main+0x204>)
 8001e68:	2263      	movs	r2, #99	; 0x63
 8001e6a:	701a      	strb	r2, [r3, #0]
  Ablauf_Init();//Ablaufinitialisierung
 8001e6c:	f000 f998 	bl	80021a0 <Ablauf_Init>

  /* USER CODE END SysInit */

  /* Initialize all configured peripherals */
  MX_GPIO_Init();
 8001e70:	f7ff fedc 	bl	8001c2c <MX_GPIO_Init>
  MX_SPI1_Init();
 8001e74:	f000 f9a2 	bl	80021bc <MX_SPI1_Init>
  MX_TIM2_Init();
 8001e78:	f000 fb22 	bl	80024c0 <MX_TIM2_Init>
  MX_TIM5_Init();
 8001e7c:	f000 fb96 	bl	80025ac <MX_TIM5_Init>
  MX_USB_DEVICE_Init();
 8001e80:	f007 fd46 	bl	8009910 <MX_USB_DEVICE_Init>
  /* USER CODE BEGIN 2 */

  HAL_TIM_Base_Start(&htim5); // Timer für Delay starten. Läuft immer im Hintergrund
 8001e84:	4876      	ldr	r0, [pc, #472]	; (8002060 <main+0x208>)
 8001e86:	f003 fe44 	bl	8005b12 <HAL_TIM_Base_Start>
  IBEX_Delay(1000000); // Eine Sekunde für die USB-Initialisierung
 8001e8a:	4876      	ldr	r0, [pc, #472]	; (8002064 <main+0x20c>)
 8001e8c:	f7ff f930 	bl	80010f0 <IBEX_Delay>

  IHM01_Init(); //Motorinitialisierung & "NULLEN"
 8001e90:	f7ff f89a 	bl	8000fc8 <IHM01_Init>
  Ablauf = STAT_OFFLINE;
 8001e94:	4b71      	ldr	r3, [pc, #452]	; (800205c <main+0x204>)
 8001e96:	2200      	movs	r2, #0
 8001e98:	701a      	strb	r2, [r3, #0]
    /* USER CODE END WHILE */

    /* USER CODE BEGIN 3 */

	 //Hauptablauf (Basis sind die Nachrichten via USB)
	  switch(Ablauf)
 8001e9a:	4b70      	ldr	r3, [pc, #448]	; (800205c <main+0x204>)
 8001e9c:	781b      	ldrb	r3, [r3, #0]
 8001e9e:	2b10      	cmp	r3, #16
 8001ea0:	f200 80d7 	bhi.w	8002052 <main+0x1fa>
 8001ea4:	a201      	add	r2, pc, #4	; (adr r2, 8001eac <main+0x54>)
 8001ea6:	f852 f023 	ldr.w	pc, [r2, r3, lsl #2]
 8001eaa:	bf00      	nop
 8001eac:	08001ef1 	.word	0x08001ef1
 8001eb0:	08001f05 	.word	0x08001f05
 8001eb4:	08001f1f 	.word	0x08001f1f
 8001eb8:	08002053 	.word	0x08002053
 8001ebc:	08002053 	.word	0x08002053
 8001ec0:	0800201b 	.word	0x0800201b
 8001ec4:	08001ffd 	.word	0x08001ffd
 8001ec8:	08002053 	.word	0x08002053
 8001ecc:	08002053 	.word	0x08002053
 8001ed0:	08002053 	.word	0x08002053
 8001ed4:	08002053 	.word	0x08002053
 8001ed8:	08002053 	.word	0x08002053
 8001edc:	08002053 	.word	0x08002053
 8001ee0:	08002053 	.word	0x08002053
 8001ee4:	08002053 	.word	0x08002053
 8001ee8:	08002053 	.word	0x08002053
 8001eec:	08002053 	.word	0x08002053
	  	  {
	  	  case STAT_OFFLINE: //Keine Verbindung & keine Kommunikation
	  		  if(USB_Status == CONNECTED) Ablauf = STAT_STANDBY;
 8001ef0:	4b5d      	ldr	r3, [pc, #372]	; (8002068 <main+0x210>)
 8001ef2:	781b      	ldrb	r3, [r3, #0]
 8001ef4:	b2db      	uxtb	r3, r3
 8001ef6:	2b01      	cmp	r3, #1
 8001ef8:	f040 80aa 	bne.w	8002050 <main+0x1f8>
 8001efc:	4b57      	ldr	r3, [pc, #348]	; (800205c <main+0x204>)
 8001efe:	2201      	movs	r2, #1
 8001f00:	701a      	strb	r2, [r3, #0]
	  		  break;
 8001f02:	e0a5      	b.n	8002050 <main+0x1f8>

	  	  case STAT_STANDBY: // Verbindung. Bei Kommunikation, auswerten und entscheiden
	  		  if(USB_Status == CONNECTED) Ablauf = STAT_STANDBY;
 8001f04:	4b58      	ldr	r3, [pc, #352]	; (8002068 <main+0x210>)
 8001f06:	781b      	ldrb	r3, [r3, #0]
 8001f08:	b2db      	uxtb	r3, r3
 8001f0a:	2b01      	cmp	r3, #1
 8001f0c:	d103      	bne.n	8001f16 <main+0xbe>
 8001f0e:	4b53      	ldr	r3, [pc, #332]	; (800205c <main+0x204>)
 8001f10:	2201      	movs	r2, #1
 8001f12:	701a      	strb	r2, [r3, #0]
	  		  else Ablauf = STAT_OFFLINE;
	  		  break;
 8001f14:	e09d      	b.n	8002052 <main+0x1fa>
	  		  else Ablauf = STAT_OFFLINE;
 8001f16:	4b51      	ldr	r3, [pc, #324]	; (800205c <main+0x204>)
 8001f18:	2200      	movs	r2, #0
 8001f1a:	701a      	strb	r2, [r3, #0]
	  		  break;
 8001f1c:	e099      	b.n	8002052 <main+0x1fa>

	  	  case STAT_AUTO_RUN:
	  		  SollMovDat.ZielPos[0]=USB_RxData.Data[0];
 8001f1e:	4b53      	ldr	r3, [pc, #332]	; (800206c <main+0x214>)
 8001f20:	889a      	ldrh	r2, [r3, #4]
 8001f22:	4b53      	ldr	r3, [pc, #332]	; (8002070 <main+0x218>)
 8001f24:	801a      	strh	r2, [r3, #0]
	  		  SollMovDat.Speed[0]=USB_RxData.Data[1];
 8001f26:	4b51      	ldr	r3, [pc, #324]	; (800206c <main+0x214>)
 8001f28:	88da      	ldrh	r2, [r3, #6]
 8001f2a:	4b51      	ldr	r3, [pc, #324]	; (8002070 <main+0x218>)
 8001f2c:	811a      	strh	r2, [r3, #8]
	  		  SollMovDat.Accel[0]=USB_RxData.Data[2];
 8001f2e:	4b4f      	ldr	r3, [pc, #316]	; (800206c <main+0x214>)
 8001f30:	891a      	ldrh	r2, [r3, #8]
 8001f32:	4b4f      	ldr	r3, [pc, #316]	; (8002070 <main+0x218>)
 8001f34:	821a      	strh	r2, [r3, #16]
	  		  SollMovDat.Decel[0]=USB_RxData.Data[3];
 8001f36:	4b4d      	ldr	r3, [pc, #308]	; (800206c <main+0x214>)
 8001f38:	895a      	ldrh	r2, [r3, #10]
 8001f3a:	4b4d      	ldr	r3, [pc, #308]	; (8002070 <main+0x218>)
 8001f3c:	831a      	strh	r2, [r3, #24]
	  		  SollMovDat.Delay[0]=USB_RxData.Data[4];
 8001f3e:	4b4b      	ldr	r3, [pc, #300]	; (800206c <main+0x214>)
 8001f40:	899a      	ldrh	r2, [r3, #12]
 8001f42:	4b4b      	ldr	r3, [pc, #300]	; (8002070 <main+0x218>)
 8001f44:	845a      	strh	r2, [r3, #34]	; 0x22
	  		  SollMovDat.ZielPos[1]=USB_RxData.Data[6];
 8001f46:	4b49      	ldr	r3, [pc, #292]	; (800206c <main+0x214>)
 8001f48:	8a1a      	ldrh	r2, [r3, #16]
 8001f4a:	4b49      	ldr	r3, [pc, #292]	; (8002070 <main+0x218>)
 8001f4c:	805a      	strh	r2, [r3, #2]
	  		  SollMovDat.Speed[1]=USB_RxData.Data[7];
 8001f4e:	4b47      	ldr	r3, [pc, #284]	; (800206c <main+0x214>)
 8001f50:	8a5a      	ldrh	r2, [r3, #18]
 8001f52:	4b47      	ldr	r3, [pc, #284]	; (8002070 <main+0x218>)
 8001f54:	815a      	strh	r2, [r3, #10]
	  		  SollMovDat.Accel[1]=USB_RxData.Data[8];
 8001f56:	4b45      	ldr	r3, [pc, #276]	; (800206c <main+0x214>)
 8001f58:	8a9a      	ldrh	r2, [r3, #20]
 8001f5a:	4b45      	ldr	r3, [pc, #276]	; (8002070 <main+0x218>)
 8001f5c:	825a      	strh	r2, [r3, #18]
	  		  SollMovDat.Decel[1]=USB_RxData.Data[9];
 8001f5e:	4b43      	ldr	r3, [pc, #268]	; (800206c <main+0x214>)
 8001f60:	8ada      	ldrh	r2, [r3, #22]
 8001f62:	4b43      	ldr	r3, [pc, #268]	; (8002070 <main+0x218>)
 8001f64:	835a      	strh	r2, [r3, #26]
	  		  SollMovDat.Delay[1]=USB_RxData.Data[10];
 8001f66:	4b41      	ldr	r3, [pc, #260]	; (800206c <main+0x214>)
 8001f68:	8b1a      	ldrh	r2, [r3, #24]
 8001f6a:	4b41      	ldr	r3, [pc, #260]	; (8002070 <main+0x218>)
 8001f6c:	849a      	strh	r2, [r3, #36]	; 0x24
	  		  SollMovDat.Count[1]=USB_RxData.Data[11];
 8001f6e:	4b3f      	ldr	r3, [pc, #252]	; (800206c <main+0x214>)
 8001f70:	8b5a      	ldrh	r2, [r3, #26]
 8001f72:	4b3f      	ldr	r3, [pc, #252]	; (8002070 <main+0x218>)
 8001f74:	85da      	strh	r2, [r3, #46]	; 0x2e
	  		  SollMovDat.ZielPos[2]=USB_RxData.Data[12];
 8001f76:	4b3d      	ldr	r3, [pc, #244]	; (800206c <main+0x214>)
 8001f78:	8b9a      	ldrh	r2, [r3, #28]
 8001f7a:	4b3d      	ldr	r3, [pc, #244]	; (8002070 <main+0x218>)
 8001f7c:	809a      	strh	r2, [r3, #4]
	  		  SollMovDat.Speed[2]=USB_RxData.Data[13];
 8001f7e:	4b3b      	ldr	r3, [pc, #236]	; (800206c <main+0x214>)
 8001f80:	8bda      	ldrh	r2, [r3, #30]
 8001f82:	4b3b      	ldr	r3, [pc, #236]	; (8002070 <main+0x218>)
 8001f84:	819a      	strh	r2, [r3, #12]
	  		  SollMovDat.Accel[2]=USB_RxData.Data[14];
 8001f86:	4b39      	ldr	r3, [pc, #228]	; (800206c <main+0x214>)
 8001f88:	8c1a      	ldrh	r2, [r3, #32]
 8001f8a:	4b39      	ldr	r3, [pc, #228]	; (8002070 <main+0x218>)
 8001f8c:	829a      	strh	r2, [r3, #20]
	  		  SollMovDat.Decel[2]=USB_RxData.Data[15];
 8001f8e:	4b37      	ldr	r3, [pc, #220]	; (800206c <main+0x214>)
 8001f90:	8c5a      	ldrh	r2, [r3, #34]	; 0x22
 8001f92:	4b37      	ldr	r3, [pc, #220]	; (8002070 <main+0x218>)
 8001f94:	839a      	strh	r2, [r3, #28]
	  		  SollMovDat.Delay[2]=USB_RxData.Data[16];
 8001f96:	4b35      	ldr	r3, [pc, #212]	; (800206c <main+0x214>)
 8001f98:	8c9a      	ldrh	r2, [r3, #36]	; 0x24
 8001f9a:	4b35      	ldr	r3, [pc, #212]	; (8002070 <main+0x218>)
 8001f9c:	84da      	strh	r2, [r3, #38]	; 0x26
	  		  SollMovDat.ZielPos[3]=USB_RxData.Data[18];
 8001f9e:	4b33      	ldr	r3, [pc, #204]	; (800206c <main+0x214>)
 8001fa0:	8d1a      	ldrh	r2, [r3, #40]	; 0x28
 8001fa2:	4b33      	ldr	r3, [pc, #204]	; (8002070 <main+0x218>)
 8001fa4:	80da      	strh	r2, [r3, #6]
	  		  SollMovDat.Speed[3]=USB_RxData.Data[19];
 8001fa6:	4b31      	ldr	r3, [pc, #196]	; (800206c <main+0x214>)
 8001fa8:	8d5a      	ldrh	r2, [r3, #42]	; 0x2a
 8001faa:	4b31      	ldr	r3, [pc, #196]	; (8002070 <main+0x218>)
 8001fac:	81da      	strh	r2, [r3, #14]
	  		  SollMovDat.Accel[3]=USB_RxData.Data[20];
 8001fae:	4b2f      	ldr	r3, [pc, #188]	; (800206c <main+0x214>)
 8001fb0:	8d9a      	ldrh	r2, [r3, #44]	; 0x2c
 8001fb2:	4b2f      	ldr	r3, [pc, #188]	; (8002070 <main+0x218>)
 8001fb4:	82da      	strh	r2, [r3, #22]
	  		  SollMovDat.Decel[3]=USB_RxData.Data[21];
 8001fb6:	4b2d      	ldr	r3, [pc, #180]	; (800206c <main+0x214>)
 8001fb8:	8dda      	ldrh	r2, [r3, #46]	; 0x2e
 8001fba:	4b2d      	ldr	r3, [pc, #180]	; (8002070 <main+0x218>)
 8001fbc:	83da      	strh	r2, [r3, #30]
	  		  SollMovDat.Delay[3]=USB_RxData.Data[22];
 8001fbe:	4b2b      	ldr	r3, [pc, #172]	; (800206c <main+0x214>)
 8001fc0:	8e1a      	ldrh	r2, [r3, #48]	; 0x30
 8001fc2:	4b2b      	ldr	r3, [pc, #172]	; (8002070 <main+0x218>)
 8001fc4:	851a      	strh	r2, [r3, #40]	; 0x28
	  		  SollMovDat.Count[3]=USB_RxData.Data[23];
 8001fc6:	4b29      	ldr	r3, [pc, #164]	; (800206c <main+0x214>)
 8001fc8:	8e5a      	ldrh	r2, [r3, #50]	; 0x32
 8001fca:	4b29      	ldr	r3, [pc, #164]	; (8002070 <main+0x218>)
 8001fcc:	865a      	strh	r2, [r3, #50]	; 0x32
	  		  SollMovDat.Delay[4]=USB_RxData.Data[24];
 8001fce:	4b27      	ldr	r3, [pc, #156]	; (800206c <main+0x214>)
 8001fd0:	8e9a      	ldrh	r2, [r3, #52]	; 0x34
 8001fd2:	4b27      	ldr	r3, [pc, #156]	; (8002070 <main+0x218>)
 8001fd4:	855a      	strh	r2, [r3, #42]	; 0x2a
	  		  SollMovDat.Count[4]=USB_RxData.Data[25];
 8001fd6:	4b25      	ldr	r3, [pc, #148]	; (800206c <main+0x214>)
 8001fd8:	8eda      	ldrh	r2, [r3, #54]	; 0x36
 8001fda:	4b25      	ldr	r3, [pc, #148]	; (8002070 <main+0x218>)
 8001fdc:	869a      	strh	r2, [r3, #52]	; 0x34
	  		  Ablauf_Auto();
 8001fde:	f7ff f89f 	bl	8001120 <Ablauf_Auto>
			  if(USB_Status == CONNECTED) Ablauf = STAT_STANDBY;
 8001fe2:	4b21      	ldr	r3, [pc, #132]	; (8002068 <main+0x210>)
 8001fe4:	781b      	ldrb	r3, [r3, #0]
 8001fe6:	b2db      	uxtb	r3, r3
 8001fe8:	2b01      	cmp	r3, #1
 8001fea:	d103      	bne.n	8001ff4 <main+0x19c>
 8001fec:	4b1b      	ldr	r3, [pc, #108]	; (800205c <main+0x204>)
 8001fee:	2201      	movs	r2, #1
 8001ff0:	701a      	strb	r2, [r3, #0]
			  else Ablauf = STAT_OFFLINE;
	  		  break;
 8001ff2:	e02e      	b.n	8002052 <main+0x1fa>
			  else Ablauf = STAT_OFFLINE;
 8001ff4:	4b19      	ldr	r3, [pc, #100]	; (800205c <main+0x204>)
 8001ff6:	2200      	movs	r2, #0
 8001ff8:	701a      	strb	r2, [r3, #0]
	  		  break;
 8001ffa:	e02a      	b.n	8002052 <main+0x1fa>

	  	  case STAT_MANU_NULL:
	  		  IHM01_MoveToNull(); //Nullpunkt suchen
 8001ffc:	f7ff f99e 	bl	800133c <IHM01_MoveToNull>
	  		  if(USB_Status == CONNECTED) Ablauf = STAT_STANDBY;
 8002000:	4b19      	ldr	r3, [pc, #100]	; (8002068 <main+0x210>)
 8002002:	781b      	ldrb	r3, [r3, #0]
 8002004:	b2db      	uxtb	r3, r3
 8002006:	2b01      	cmp	r3, #1
 8002008:	d103      	bne.n	8002012 <main+0x1ba>
 800200a:	4b14      	ldr	r3, [pc, #80]	; (800205c <main+0x204>)
 800200c:	2201      	movs	r2, #1
 800200e:	701a      	strb	r2, [r3, #0]
	  		  else Ablauf = STAT_OFFLINE;
	  		  break;
 8002010:	e01f      	b.n	8002052 <main+0x1fa>
	  		  else Ablauf = STAT_OFFLINE;
 8002012:	4b12      	ldr	r3, [pc, #72]	; (800205c <main+0x204>)
 8002014:	2200      	movs	r2, #0
 8002016:	701a      	strb	r2, [r3, #0]
	  		  break;
 8002018:	e01b      	b.n	8002052 <main+0x1fa>

	  	  case STAT_MANU_RUN:
	  		  IHM01_MoveTo(USB_RxData.Data[0], USB_RxData.Data[1], USB_RxData.Data[2], USB_RxData.Data[2], USB_RxData.Unit);
 800201a:	4b14      	ldr	r3, [pc, #80]	; (800206c <main+0x214>)
 800201c:	8898      	ldrh	r0, [r3, #4]
 800201e:	4b13      	ldr	r3, [pc, #76]	; (800206c <main+0x214>)
 8002020:	88d9      	ldrh	r1, [r3, #6]
 8002022:	4b12      	ldr	r3, [pc, #72]	; (800206c <main+0x214>)
 8002024:	891a      	ldrh	r2, [r3, #8]
 8002026:	4b11      	ldr	r3, [pc, #68]	; (800206c <main+0x214>)
 8002028:	891c      	ldrh	r4, [r3, #8]
 800202a:	4b10      	ldr	r3, [pc, #64]	; (800206c <main+0x214>)
 800202c:	789b      	ldrb	r3, [r3, #2]
 800202e:	9300      	str	r3, [sp, #0]
 8002030:	4623      	mov	r3, r4
 8002032:	f7ff f9d9 	bl	80013e8 <IHM01_MoveTo>
	  		  if(USB_Status == CONNECTED) Ablauf = STAT_STANDBY;
 8002036:	4b0c      	ldr	r3, [pc, #48]	; (8002068 <main+0x210>)
 8002038:	781b      	ldrb	r3, [r3, #0]
 800203a:	b2db      	uxtb	r3, r3
 800203c:	2b01      	cmp	r3, #1
 800203e:	d103      	bne.n	8002048 <main+0x1f0>
 8002040:	4b06      	ldr	r3, [pc, #24]	; (800205c <main+0x204>)
 8002042:	2201      	movs	r2, #1
 8002044:	701a      	strb	r2, [r3, #0]
	  		  else Ablauf = STAT_OFFLINE;
	  		  break;
 8002046:	e004      	b.n	8002052 <main+0x1fa>
	  		  else Ablauf = STAT_OFFLINE;
 8002048:	4b04      	ldr	r3, [pc, #16]	; (800205c <main+0x204>)
 800204a:	2200      	movs	r2, #0
 800204c:	701a      	strb	r2, [r3, #0]
	  		  break;
 800204e:	e000      	b.n	8002052 <main+0x1fa>
	  		  break;
 8002050:	bf00      	nop
	  	  case STAT_ERROR_TW: break;
	  	  case STAT_ERROR_UV: break;
	  	  case STAT_ERROR_UK: break;
	  	  }

	  IBEX_Delay(100);
 8002052:	2064      	movs	r0, #100	; 0x64
 8002054:	f7ff f84c 	bl	80010f0 <IBEX_Delay>
	  switch(Ablauf)
 8002058:	e71f      	b.n	8001e9a <main+0x42>
 800205a:	bf00      	nop
 800205c:	200003ed 	.word	0x200003ed
 8002060:	200004fc 	.word	0x200004fc
 8002064:	000f4240 	.word	0x000f4240
 8002068:	200003d2 	.word	0x200003d2
 800206c:	20000458 	.word	0x20000458
 8002070:	2000039c 	.word	0x2000039c

08002074 <SystemClock_Config>:
/**
  * @brief System Clock Configuration
  * @retval None
  */
void SystemClock_Config(void)
{
 8002074:	b580      	push	{r7, lr}
 8002076:	b0ac      	sub	sp, #176	; 0xb0
 8002078:	af00      	add	r7, sp, #0
  RCC_OscInitTypeDef RCC_OscInitStruct = {0};
 800207a:	f107 037c 	add.w	r3, r7, #124	; 0x7c
 800207e:	2234      	movs	r2, #52	; 0x34
 8002080:	2100      	movs	r1, #0
 8002082:	4618      	mov	r0, r3
 8002084:	f008 fae4 	bl	800a650 <memset>
  RCC_ClkInitTypeDef RCC_ClkInitStruct = {0};
 8002088:	f107 0368 	add.w	r3, r7, #104	; 0x68
 800208c:	2200      	movs	r2, #0
 800208e:	601a      	str	r2, [r3, #0]
 8002090:	605a      	str	r2, [r3, #4]
 8002092:	609a      	str	r2, [r3, #8]
 8002094:	60da      	str	r2, [r3, #12]
 8002096:	611a      	str	r2, [r3, #16]
  RCC_PeriphCLKInitTypeDef PeriphClkInitStruct = {0};
 8002098:	f107 030c 	add.w	r3, r7, #12
 800209c:	225c      	movs	r2, #92	; 0x5c
 800209e:	2100      	movs	r1, #0
 80020a0:	4618      	mov	r0, r3
 80020a2:	f008 fad5 	bl	800a650 <memset>

  /** Configure the main internal regulator output voltage 
  */
  __HAL_RCC_PWR_CLK_ENABLE();
 80020a6:	2300      	movs	r3, #0
 80020a8:	60bb      	str	r3, [r7, #8]
 80020aa:	4b3b      	ldr	r3, [pc, #236]	; (8002198 <SystemClock_Config+0x124>)
 80020ac:	6c1b      	ldr	r3, [r3, #64]	; 0x40
 80020ae:	4a3a      	ldr	r2, [pc, #232]	; (8002198 <SystemClock_Config+0x124>)
 80020b0:	f043 5380 	orr.w	r3, r3, #268435456	; 0x10000000
 80020b4:	6413      	str	r3, [r2, #64]	; 0x40
 80020b6:	4b38      	ldr	r3, [pc, #224]	; (8002198 <SystemClock_Config+0x124>)
 80020b8:	6c1b      	ldr	r3, [r3, #64]	; 0x40
 80020ba:	f003 5380 	and.w	r3, r3, #268435456	; 0x10000000
 80020be:	60bb      	str	r3, [r7, #8]
 80020c0:	68bb      	ldr	r3, [r7, #8]
  __HAL_PWR_VOLTAGESCALING_CONFIG(PWR_REGULATOR_VOLTAGE_SCALE3);
 80020c2:	2300      	movs	r3, #0
 80020c4:	607b      	str	r3, [r7, #4]
 80020c6:	4b35      	ldr	r3, [pc, #212]	; (800219c <SystemClock_Config+0x128>)
 80020c8:	681b      	ldr	r3, [r3, #0]
 80020ca:	f423 4340 	bic.w	r3, r3, #49152	; 0xc000
 80020ce:	4a33      	ldr	r2, [pc, #204]	; (800219c <SystemClock_Config+0x128>)
 80020d0:	f443 4380 	orr.w	r3, r3, #16384	; 0x4000
 80020d4:	6013      	str	r3, [r2, #0]
 80020d6:	4b31      	ldr	r3, [pc, #196]	; (800219c <SystemClock_Config+0x128>)
 80020d8:	681b      	ldr	r3, [r3, #0]
 80020da:	f403 4340 	and.w	r3, r3, #49152	; 0xc000
 80020de:	607b      	str	r3, [r7, #4]
 80020e0:	687b      	ldr	r3, [r7, #4]
  /** Initializes the CPU, AHB and APB busses clocks 
  */
  RCC_OscInitStruct.OscillatorType = RCC_OSCILLATORTYPE_HSI;
 80020e2:	2302      	movs	r3, #2
 80020e4:	67fb      	str	r3, [r7, #124]	; 0x7c
  RCC_OscInitStruct.HSIState = RCC_HSI_ON;
 80020e6:	2301      	movs	r3, #1
 80020e8:	f8c7 3088 	str.w	r3, [r7, #136]	; 0x88
  RCC_OscInitStruct.HSICalibrationValue = RCC_HSICALIBRATION_DEFAULT;
 80020ec:	2310      	movs	r3, #16
 80020ee:	f8c7 308c 	str.w	r3, [r7, #140]	; 0x8c
  RCC_OscInitStruct.PLL.PLLState = RCC_PLL_ON;
 80020f2:	2302      	movs	r3, #2
 80020f4:	f8c7 3094 	str.w	r3, [r7, #148]	; 0x94
  RCC_OscInitStruct.PLL.PLLSource = RCC_PLLSOURCE_HSI;
 80020f8:	2300      	movs	r3, #0
 80020fa:	f8c7 3098 	str.w	r3, [r7, #152]	; 0x98
  RCC_OscInitStruct.PLL.PLLM = 16;
 80020fe:	2310      	movs	r3, #16
 8002100:	f8c7 309c 	str.w	r3, [r7, #156]	; 0x9c
  RCC_OscInitStruct.PLL.PLLN = 180;
 8002104:	23b4      	movs	r3, #180	; 0xb4
 8002106:	f8c7 30a0 	str.w	r3, [r7, #160]	; 0xa0
  RCC_OscInitStruct.PLL.PLLP = RCC_PLLP_DIV2;
 800210a:	2302      	movs	r3, #2
 800210c:	f8c7 30a4 	str.w	r3, [r7, #164]	; 0xa4
  RCC_OscInitStruct.PLL.PLLQ = 4;
 8002110:	2304      	movs	r3, #4
 8002112:	f8c7 30a8 	str.w	r3, [r7, #168]	; 0xa8
  RCC_OscInitStruct.PLL.PLLR = 2;
 8002116:	2302      	movs	r3, #2
 8002118:	f8c7 30ac 	str.w	r3, [r7, #172]	; 0xac
  if (HAL_RCC_OscConfig(&RCC_OscInitStruct) != HAL_OK)
 800211c:	f107 037c 	add.w	r3, r7, #124	; 0x7c
 8002120:	4618      	mov	r0, r3
 8002122:	f002 ffbf 	bl	80050a4 <HAL_RCC_OscConfig>
 8002126:	4603      	mov	r3, r0
 8002128:	2b00      	cmp	r3, #0
 800212a:	d001      	beq.n	8002130 <SystemClock_Config+0xbc>
  {
    Error_Handler();
 800212c:	f000 f83f 	bl	80021ae <Error_Handler>
  }
  /** Initializes the CPU, AHB and APB busses clocks 
  */
  RCC_ClkInitStruct.ClockType = RCC_CLOCKTYPE_HCLK|RCC_CLOCKTYPE_SYSCLK
 8002130:	230f      	movs	r3, #15
 8002132:	66bb      	str	r3, [r7, #104]	; 0x68
                              |RCC_CLOCKTYPE_PCLK1|RCC_CLOCKTYPE_PCLK2;
  RCC_ClkInitStruct.SYSCLKSource = RCC_SYSCLKSOURCE_PLLCLK;
 8002134:	2302      	movs	r3, #2
 8002136:	66fb      	str	r3, [r7, #108]	; 0x6c
  RCC_ClkInitStruct.AHBCLKDivider = RCC_SYSCLK_DIV1;
 8002138:	2300      	movs	r3, #0
 800213a:	673b      	str	r3, [r7, #112]	; 0x70
  RCC_ClkInitStruct.APB1CLKDivider = RCC_HCLK_DIV2;
 800213c:	f44f 5380 	mov.w	r3, #4096	; 0x1000
 8002140:	677b      	str	r3, [r7, #116]	; 0x74
  RCC_ClkInitStruct.APB2CLKDivider = RCC_HCLK_DIV1;
 8002142:	2300      	movs	r3, #0
 8002144:	67bb      	str	r3, [r7, #120]	; 0x78

  if (HAL_RCC_ClockConfig(&RCC_ClkInitStruct, FLASH_LATENCY_2) != HAL_OK)
 8002146:	f107 0368 	add.w	r3, r7, #104	; 0x68
 800214a:	2102      	movs	r1, #2
 800214c:	4618      	mov	r0, r3
 800214e:	f002 f9ed 	bl	800452c <HAL_RCC_ClockConfig>
 8002152:	4603      	mov	r3, r0
 8002154:	2b00      	cmp	r3, #0
 8002156:	d001      	beq.n	800215c <SystemClock_Config+0xe8>
  {
    Error_Handler();
 8002158:	f000 f829 	bl	80021ae <Error_Handler>
  }
  PeriphClkInitStruct.PeriphClockSelection = RCC_PERIPHCLK_CLK48;
 800215c:	f44f 7380 	mov.w	r3, #256	; 0x100
 8002160:	60fb      	str	r3, [r7, #12]
  PeriphClkInitStruct.PLLSAI.PLLSAIM = 16;
 8002162:	2310      	movs	r3, #16
 8002164:	627b      	str	r3, [r7, #36]	; 0x24
  PeriphClkInitStruct.PLLSAI.PLLSAIN = 192;
 8002166:	23c0      	movs	r3, #192	; 0xc0
 8002168:	62bb      	str	r3, [r7, #40]	; 0x28
  PeriphClkInitStruct.PLLSAI.PLLSAIQ = 2;
 800216a:	2302      	movs	r3, #2
 800216c:	633b      	str	r3, [r7, #48]	; 0x30
  PeriphClkInitStruct.PLLSAI.PLLSAIP = RCC_PLLSAIP_DIV4;
 800216e:	2304      	movs	r3, #4
 8002170:	62fb      	str	r3, [r7, #44]	; 0x2c
  PeriphClkInitStruct.PLLSAIDivQ = 1;
 8002172:	2301      	movs	r3, #1
 8002174:	63bb      	str	r3, [r7, #56]	; 0x38
  PeriphClkInitStruct.Clk48ClockSelection = RCC_CLK48CLKSOURCE_PLLSAIP;
 8002176:	f04f 6300 	mov.w	r3, #134217728	; 0x8000000
 800217a:	663b      	str	r3, [r7, #96]	; 0x60
  if (HAL_RCCEx_PeriphCLKConfig(&PeriphClkInitStruct) != HAL_OK)
 800217c:	f107 030c 	add.w	r3, r7, #12
 8002180:	4618      	mov	r0, r3
 8002182:	f002 fac5 	bl	8004710 <HAL_RCCEx_PeriphCLKConfig>
 8002186:	4603      	mov	r3, r0
 8002188:	2b00      	cmp	r3, #0
 800218a:	d001      	beq.n	8002190 <SystemClock_Config+0x11c>
  {
    Error_Handler();
 800218c:	f000 f80f 	bl	80021ae <Error_Handler>
  }
}
 8002190:	bf00      	nop
 8002192:	37b0      	adds	r7, #176	; 0xb0
 8002194:	46bd      	mov	sp, r7
 8002196:	bd80      	pop	{r7, pc}
 8002198:	40023800 	.word	0x40023800
 800219c:	40007000 	.word	0x40007000

080021a0 <Ablauf_Init>:

/* USER CODE BEGIN 4 */
void Ablauf_Init()
{
 80021a0:	b480      	push	{r7}
 80021a2:	af00      	add	r7, sp, #0


}
 80021a4:	bf00      	nop
 80021a6:	46bd      	mov	sp, r7
 80021a8:	f85d 7b04 	ldr.w	r7, [sp], #4
 80021ac:	4770      	bx	lr

080021ae <Error_Handler>:
/**
  * @brief  This function is executed in case of error occurrence.
  * @retval None
  */
void Error_Handler(void)
{
 80021ae:	b480      	push	{r7}
 80021b0:	af00      	add	r7, sp, #0
  /* USER CODE BEGIN Error_Handler_Debug */
  /* User can add his own implementation to report the HAL error return state */

  /* USER CODE END Error_Handler_Debug */
}
 80021b2:	bf00      	nop
 80021b4:	46bd      	mov	sp, r7
 80021b6:	f85d 7b04 	ldr.w	r7, [sp], #4
 80021ba:	4770      	bx	lr

080021bc <MX_SPI1_Init>:

SPI_HandleTypeDef hspi1;

/* SPI1 init function */
void MX_SPI1_Init(void)
{
 80021bc:	b580      	push	{r7, lr}
 80021be:	af00      	add	r7, sp, #0

  hspi1.Instance = SPI1;
 80021c0:	4b17      	ldr	r3, [pc, #92]	; (8002220 <MX_SPI1_Init+0x64>)
 80021c2:	4a18      	ldr	r2, [pc, #96]	; (8002224 <MX_SPI1_Init+0x68>)
 80021c4:	601a      	str	r2, [r3, #0]
  hspi1.Init.Mode = SPI_MODE_MASTER;
 80021c6:	4b16      	ldr	r3, [pc, #88]	; (8002220 <MX_SPI1_Init+0x64>)
 80021c8:	f44f 7282 	mov.w	r2, #260	; 0x104
 80021cc:	605a      	str	r2, [r3, #4]
  hspi1.Init.Direction = SPI_DIRECTION_2LINES;
 80021ce:	4b14      	ldr	r3, [pc, #80]	; (8002220 <MX_SPI1_Init+0x64>)
 80021d0:	2200      	movs	r2, #0
 80021d2:	609a      	str	r2, [r3, #8]
  hspi1.Init.DataSize = SPI_DATASIZE_8BIT;
 80021d4:	4b12      	ldr	r3, [pc, #72]	; (8002220 <MX_SPI1_Init+0x64>)
 80021d6:	2200      	movs	r2, #0
 80021d8:	60da      	str	r2, [r3, #12]
  hspi1.Init.CLKPolarity = SPI_POLARITY_HIGH;
 80021da:	4b11      	ldr	r3, [pc, #68]	; (8002220 <MX_SPI1_Init+0x64>)
 80021dc:	2202      	movs	r2, #2
 80021de:	611a      	str	r2, [r3, #16]
  hspi1.Init.CLKPhase = SPI_PHASE_2EDGE;
 80021e0:	4b0f      	ldr	r3, [pc, #60]	; (8002220 <MX_SPI1_Init+0x64>)
 80021e2:	2201      	movs	r2, #1
 80021e4:	615a      	str	r2, [r3, #20]
  hspi1.Init.NSS = SPI_NSS_SOFT;
 80021e6:	4b0e      	ldr	r3, [pc, #56]	; (8002220 <MX_SPI1_Init+0x64>)
 80021e8:	f44f 7200 	mov.w	r2, #512	; 0x200
 80021ec:	619a      	str	r2, [r3, #24]
  hspi1.Init.BaudRatePrescaler = SPI_BAUDRATEPRESCALER_64;
 80021ee:	4b0c      	ldr	r3, [pc, #48]	; (8002220 <MX_SPI1_Init+0x64>)
 80021f0:	2228      	movs	r2, #40	; 0x28
 80021f2:	61da      	str	r2, [r3, #28]
  hspi1.Init.FirstBit = SPI_FIRSTBIT_MSB;
 80021f4:	4b0a      	ldr	r3, [pc, #40]	; (8002220 <MX_SPI1_Init+0x64>)
 80021f6:	2200      	movs	r2, #0
 80021f8:	621a      	str	r2, [r3, #32]
  hspi1.Init.TIMode = SPI_TIMODE_DISABLE;
 80021fa:	4b09      	ldr	r3, [pc, #36]	; (8002220 <MX_SPI1_Init+0x64>)
 80021fc:	2200      	movs	r2, #0
 80021fe:	625a      	str	r2, [r3, #36]	; 0x24
  hspi1.Init.CRCCalculation = SPI_CRCCALCULATION_DISABLE;
 8002200:	4b07      	ldr	r3, [pc, #28]	; (8002220 <MX_SPI1_Init+0x64>)
 8002202:	2200      	movs	r2, #0
 8002204:	629a      	str	r2, [r3, #40]	; 0x28
  hspi1.Init.CRCPolynomial = 10;
 8002206:	4b06      	ldr	r3, [pc, #24]	; (8002220 <MX_SPI1_Init+0x64>)
 8002208:	220a      	movs	r2, #10
 800220a:	62da      	str	r2, [r3, #44]	; 0x2c
  if (HAL_SPI_Init(&hspi1) != HAL_OK)
 800220c:	4804      	ldr	r0, [pc, #16]	; (8002220 <MX_SPI1_Init+0x64>)
 800220e:	f003 f9a3 	bl	8005558 <HAL_SPI_Init>
 8002212:	4603      	mov	r3, r0
 8002214:	2b00      	cmp	r3, #0
 8002216:	d001      	beq.n	800221c <MX_SPI1_Init+0x60>
  {
    Error_Handler();
 8002218:	f7ff ffc9 	bl	80021ae <Error_Handler>
  }

}
 800221c:	bf00      	nop
 800221e:	bd80      	pop	{r7, pc}
 8002220:	200004a4 	.word	0x200004a4
 8002224:	40013000 	.word	0x40013000

08002228 <HAL_SPI_MspInit>:

void HAL_SPI_MspInit(SPI_HandleTypeDef* spiHandle)
{
 8002228:	b580      	push	{r7, lr}
 800222a:	b08a      	sub	sp, #40	; 0x28
 800222c:	af00      	add	r7, sp, #0
 800222e:	6078      	str	r0, [r7, #4]

  GPIO_InitTypeDef GPIO_InitStruct = {0};
 8002230:	f107 0314 	add.w	r3, r7, #20
 8002234:	2200      	movs	r2, #0
 8002236:	601a      	str	r2, [r3, #0]
 8002238:	605a      	str	r2, [r3, #4]
 800223a:	609a      	str	r2, [r3, #8]
 800223c:	60da      	str	r2, [r3, #12]
 800223e:	611a      	str	r2, [r3, #16]
  if(spiHandle->Instance==SPI1)
 8002240:	687b      	ldr	r3, [r7, #4]
 8002242:	681b      	ldr	r3, [r3, #0]
 8002244:	4a19      	ldr	r2, [pc, #100]	; (80022ac <HAL_SPI_MspInit+0x84>)
 8002246:	4293      	cmp	r3, r2
 8002248:	d12b      	bne.n	80022a2 <HAL_SPI_MspInit+0x7a>
  {
  /* USER CODE BEGIN SPI1_MspInit 0 */

  /* USER CODE END SPI1_MspInit 0 */
    /* SPI1 clock enable */
    __HAL_RCC_SPI1_CLK_ENABLE();
 800224a:	2300      	movs	r3, #0
 800224c:	613b      	str	r3, [r7, #16]
 800224e:	4b18      	ldr	r3, [pc, #96]	; (80022b0 <HAL_SPI_MspInit+0x88>)
 8002250:	6c5b      	ldr	r3, [r3, #68]	; 0x44
 8002252:	4a17      	ldr	r2, [pc, #92]	; (80022b0 <HAL_SPI_MspInit+0x88>)
 8002254:	f443 5380 	orr.w	r3, r3, #4096	; 0x1000
 8002258:	6453      	str	r3, [r2, #68]	; 0x44
 800225a:	4b15      	ldr	r3, [pc, #84]	; (80022b0 <HAL_SPI_MspInit+0x88>)
 800225c:	6c5b      	ldr	r3, [r3, #68]	; 0x44
 800225e:	f403 5380 	and.w	r3, r3, #4096	; 0x1000
 8002262:	613b      	str	r3, [r7, #16]
 8002264:	693b      	ldr	r3, [r7, #16]
  
    __HAL_RCC_GPIOA_CLK_ENABLE();
 8002266:	2300      	movs	r3, #0
 8002268:	60fb      	str	r3, [r7, #12]
 800226a:	4b11      	ldr	r3, [pc, #68]	; (80022b0 <HAL_SPI_MspInit+0x88>)
 800226c:	6b1b      	ldr	r3, [r3, #48]	; 0x30
 800226e:	4a10      	ldr	r2, [pc, #64]	; (80022b0 <HAL_SPI_MspInit+0x88>)
 8002270:	f043 0301 	orr.w	r3, r3, #1
 8002274:	6313      	str	r3, [r2, #48]	; 0x30
 8002276:	4b0e      	ldr	r3, [pc, #56]	; (80022b0 <HAL_SPI_MspInit+0x88>)
 8002278:	6b1b      	ldr	r3, [r3, #48]	; 0x30
 800227a:	f003 0301 	and.w	r3, r3, #1
 800227e:	60fb      	str	r3, [r7, #12]
 8002280:	68fb      	ldr	r3, [r7, #12]
    /**SPI1 GPIO Configuration    
    PA5     ------> SPI1_SCK
    PA6     ------> SPI1_MISO
    PA7     ------> SPI1_MOSI 
    */
    GPIO_InitStruct.Pin = IHM01_SPI_SCK_Pin|IHM01_SPI_MISO_Pin|IHM01_SPI_MOSI_Pin;
 8002282:	23e0      	movs	r3, #224	; 0xe0
 8002284:	617b      	str	r3, [r7, #20]
    GPIO_InitStruct.Mode = GPIO_MODE_AF_PP;
 8002286:	2302      	movs	r3, #2
 8002288:	61bb      	str	r3, [r7, #24]
    GPIO_InitStruct.Pull = GPIO_NOPULL;
 800228a:	2300      	movs	r3, #0
 800228c:	61fb      	str	r3, [r7, #28]
    GPIO_InitStruct.Speed = GPIO_SPEED_FREQ_VERY_HIGH;
 800228e:	2303      	movs	r3, #3
 8002290:	623b      	str	r3, [r7, #32]
    GPIO_InitStruct.Alternate = GPIO_AF5_SPI1;
 8002292:	2305      	movs	r3, #5
 8002294:	627b      	str	r3, [r7, #36]	; 0x24
    HAL_GPIO_Init(GPIOA, &GPIO_InitStruct);
 8002296:	f107 0314 	add.w	r3, r7, #20
 800229a:	4619      	mov	r1, r3
 800229c:	4805      	ldr	r0, [pc, #20]	; (80022b4 <HAL_SPI_MspInit+0x8c>)
 800229e:	f000 fd99 	bl	8002dd4 <HAL_GPIO_Init>

  /* USER CODE BEGIN SPI1_MspInit 1 */

  /* USER CODE END SPI1_MspInit 1 */
  }
}
 80022a2:	bf00      	nop
 80022a4:	3728      	adds	r7, #40	; 0x28
 80022a6:	46bd      	mov	sp, r7
 80022a8:	bd80      	pop	{r7, pc}
 80022aa:	bf00      	nop
 80022ac:	40013000 	.word	0x40013000
 80022b0:	40023800 	.word	0x40023800
 80022b4:	40020000 	.word	0x40020000

080022b8 <SPI_TXRX>:
/* USER CODE BEGIN 1 */

//################
//### Paket senden
void SPI_TXRX(uint8_t len)
{
 80022b8:	b580      	push	{r7, lr}
 80022ba:	b086      	sub	sp, #24
 80022bc:	af02      	add	r7, sp, #8
 80022be:	4603      	mov	r3, r0
 80022c0:	71fb      	strb	r3, [r7, #7]

	for (uint8_t i=0 ; i<len ; i++)
 80022c2:	2300      	movs	r3, #0
 80022c4:	73fb      	strb	r3, [r7, #15]
 80022c6:	e027      	b.n	8002318 <SPI_TXRX+0x60>
		{
		IHM01_SPI_TX_Byte[0] = IHM01_SPI_TX_Data[i];
 80022c8:	7bfb      	ldrb	r3, [r7, #15]
 80022ca:	4a17      	ldr	r2, [pc, #92]	; (8002328 <SPI_TXRX+0x70>)
 80022cc:	5cd2      	ldrb	r2, [r2, r3]
 80022ce:	4b17      	ldr	r3, [pc, #92]	; (800232c <SPI_TXRX+0x74>)
 80022d0:	701a      	strb	r2, [r3, #0]

		HAL_GPIO_WritePin(IHM01_SPI_CS_GPIO_Port, IHM01_SPI_CS_Pin, GPIO_PIN_RESET);
 80022d2:	2200      	movs	r2, #0
 80022d4:	2140      	movs	r1, #64	; 0x40
 80022d6:	4816      	ldr	r0, [pc, #88]	; (8002330 <SPI_TXRX+0x78>)
 80022d8:	f000 ff26 	bl	8003128 <HAL_GPIO_WritePin>
		HAL_SPI_TransmitReceive(&hspi1, IHM01_SPI_TX_Byte, IHM01_SPI_RX_Byte, 1, 1);
 80022dc:	2301      	movs	r3, #1
 80022de:	9300      	str	r3, [sp, #0]
 80022e0:	2301      	movs	r3, #1
 80022e2:	4a14      	ldr	r2, [pc, #80]	; (8002334 <SPI_TXRX+0x7c>)
 80022e4:	4911      	ldr	r1, [pc, #68]	; (800232c <SPI_TXRX+0x74>)
 80022e6:	4814      	ldr	r0, [pc, #80]	; (8002338 <SPI_TXRX+0x80>)
 80022e8:	f003 f99a 	bl	8005620 <HAL_SPI_TransmitReceive>
		HAL_GPIO_WritePin(IHM01_SPI_CS_GPIO_Port, IHM01_SPI_CS_Pin, GPIO_PIN_SET);
 80022ec:	2201      	movs	r2, #1
 80022ee:	2140      	movs	r1, #64	; 0x40
 80022f0:	480f      	ldr	r0, [pc, #60]	; (8002330 <SPI_TXRX+0x78>)
 80022f2:	f000 ff19 	bl	8003128 <HAL_GPIO_WritePin>

		IHM01_SPI_RX_Data[i] = IHM01_SPI_RX_Byte[0];
 80022f6:	7bfb      	ldrb	r3, [r7, #15]
 80022f8:	4a0e      	ldr	r2, [pc, #56]	; (8002334 <SPI_TXRX+0x7c>)
 80022fa:	7811      	ldrb	r1, [r2, #0]
 80022fc:	4a0f      	ldr	r2, [pc, #60]	; (800233c <SPI_TXRX+0x84>)
 80022fe:	54d1      	strb	r1, [r2, r3]

		for(uint16_t Delay=0; Delay<=3; Delay++);  // ca 1µs Pause für minimum 800ns CS = High !!! Delay funktioniert hier nicht
 8002300:	2300      	movs	r3, #0
 8002302:	81bb      	strh	r3, [r7, #12]
 8002304:	e002      	b.n	800230c <SPI_TXRX+0x54>
 8002306:	89bb      	ldrh	r3, [r7, #12]
 8002308:	3301      	adds	r3, #1
 800230a:	81bb      	strh	r3, [r7, #12]
 800230c:	89bb      	ldrh	r3, [r7, #12]
 800230e:	2b03      	cmp	r3, #3
 8002310:	d9f9      	bls.n	8002306 <SPI_TXRX+0x4e>
	for (uint8_t i=0 ; i<len ; i++)
 8002312:	7bfb      	ldrb	r3, [r7, #15]
 8002314:	3301      	adds	r3, #1
 8002316:	73fb      	strb	r3, [r7, #15]
 8002318:	7bfa      	ldrb	r2, [r7, #15]
 800231a:	79fb      	ldrb	r3, [r7, #7]
 800231c:	429a      	cmp	r2, r3
 800231e:	d3d3      	bcc.n	80022c8 <SPI_TXRX+0x10>
		//IBEX_Delay(1);
		}


}
 8002320:	bf00      	nop
 8002322:	3710      	adds	r7, #16
 8002324:	46bd      	mov	sp, r7
 8002326:	bd80      	pop	{r7, pc}
 8002328:	20000428 	.word	0x20000428
 800232c:	200003ec 	.word	0x200003ec
 8002330:	40020400 	.word	0x40020400
 8002334:	200003e8 	.word	0x200003e8
 8002338:	200004a4 	.word	0x200004a4
 800233c:	200003d4 	.word	0x200003d4

08002340 <HAL_MspInit>:
/* USER CODE END 0 */
/**
  * Initializes the Global MSP.
  */
void HAL_MspInit(void)
{
 8002340:	b580      	push	{r7, lr}
 8002342:	b082      	sub	sp, #8
 8002344:	af00      	add	r7, sp, #0
  /* USER CODE BEGIN MspInit 0 */

  /* USER CODE END MspInit 0 */

  __HAL_RCC_SYSCFG_CLK_ENABLE();
 8002346:	2300      	movs	r3, #0
 8002348:	607b      	str	r3, [r7, #4]
 800234a:	4b10      	ldr	r3, [pc, #64]	; (800238c <HAL_MspInit+0x4c>)
 800234c:	6c5b      	ldr	r3, [r3, #68]	; 0x44
 800234e:	4a0f      	ldr	r2, [pc, #60]	; (800238c <HAL_MspInit+0x4c>)
 8002350:	f443 4380 	orr.w	r3, r3, #16384	; 0x4000
 8002354:	6453      	str	r3, [r2, #68]	; 0x44
 8002356:	4b0d      	ldr	r3, [pc, #52]	; (800238c <HAL_MspInit+0x4c>)
 8002358:	6c5b      	ldr	r3, [r3, #68]	; 0x44
 800235a:	f403 4380 	and.w	r3, r3, #16384	; 0x4000
 800235e:	607b      	str	r3, [r7, #4]
 8002360:	687b      	ldr	r3, [r7, #4]
  __HAL_RCC_PWR_CLK_ENABLE();
 8002362:	2300      	movs	r3, #0
 8002364:	603b      	str	r3, [r7, #0]
 8002366:	4b09      	ldr	r3, [pc, #36]	; (800238c <HAL_MspInit+0x4c>)
 8002368:	6c1b      	ldr	r3, [r3, #64]	; 0x40
 800236a:	4a08      	ldr	r2, [pc, #32]	; (800238c <HAL_MspInit+0x4c>)
 800236c:	f043 5380 	orr.w	r3, r3, #268435456	; 0x10000000
 8002370:	6413      	str	r3, [r2, #64]	; 0x40
 8002372:	4b06      	ldr	r3, [pc, #24]	; (800238c <HAL_MspInit+0x4c>)
 8002374:	6c1b      	ldr	r3, [r3, #64]	; 0x40
 8002376:	f003 5380 	and.w	r3, r3, #268435456	; 0x10000000
 800237a:	603b      	str	r3, [r7, #0]
 800237c:	683b      	ldr	r3, [r7, #0]

  HAL_NVIC_SetPriorityGrouping(NVIC_PRIORITYGROUP_0);
 800237e:	2007      	movs	r0, #7
 8002380:	f000 fcd8 	bl	8002d34 <HAL_NVIC_SetPriorityGrouping>
  /* System interrupt init*/

  /* USER CODE BEGIN MspInit 1 */

  /* USER CODE END MspInit 1 */
}
 8002384:	bf00      	nop
 8002386:	3708      	adds	r7, #8
 8002388:	46bd      	mov	sp, r7
 800238a:	bd80      	pop	{r7, pc}
 800238c:	40023800 	.word	0x40023800

08002390 <NMI_Handler>:
/******************************************************************************/
/**
  * @brief This function handles Non maskable interrupt.
  */
void NMI_Handler(void)
{
 8002390:	b480      	push	{r7}
 8002392:	af00      	add	r7, sp, #0

  /* USER CODE END NonMaskableInt_IRQn 0 */
  /* USER CODE BEGIN NonMaskableInt_IRQn 1 */

  /* USER CODE END NonMaskableInt_IRQn 1 */
}
 8002394:	bf00      	nop
 8002396:	46bd      	mov	sp, r7
 8002398:	f85d 7b04 	ldr.w	r7, [sp], #4
 800239c:	4770      	bx	lr

0800239e <HardFault_Handler>:

/**
  * @brief This function handles Hard fault interrupt.
  */
void HardFault_Handler(void)
{
 800239e:	b480      	push	{r7}
 80023a0:	af00      	add	r7, sp, #0
  /* USER CODE BEGIN HardFault_IRQn 0 */

  /* USER CODE END HardFault_IRQn 0 */
  while (1)
 80023a2:	e7fe      	b.n	80023a2 <HardFault_Handler+0x4>

080023a4 <MemManage_Handler>:

/**
  * @brief This function handles Memory management fault.
  */
void MemManage_Handler(void)
{
 80023a4:	b480      	push	{r7}
 80023a6:	af00      	add	r7, sp, #0
  /* USER CODE BEGIN MemoryManagement_IRQn 0 */

  /* USER CODE END MemoryManagement_IRQn 0 */
  while (1)
 80023a8:	e7fe      	b.n	80023a8 <MemManage_Handler+0x4>

080023aa <BusFault_Handler>:

/**
  * @brief This function handles Pre-fetch fault, memory access fault.
  */
void BusFault_Handler(void)
{
 80023aa:	b480      	push	{r7}
 80023ac:	af00      	add	r7, sp, #0
  /* USER CODE BEGIN BusFault_IRQn 0 */

  /* USER CODE END BusFault_IRQn 0 */
  while (1)
 80023ae:	e7fe      	b.n	80023ae <BusFault_Handler+0x4>

080023b0 <UsageFault_Handler>:

/**
  * @brief This function handles Undefined instruction or illegal state.
  */
void UsageFault_Handler(void)
{
 80023b0:	b480      	push	{r7}
 80023b2:	af00      	add	r7, sp, #0
  /* USER CODE BEGIN UsageFault_IRQn 0 */

  /* USER CODE END UsageFault_IRQn 0 */
  while (1)
 80023b4:	e7fe      	b.n	80023b4 <UsageFault_Handler+0x4>

080023b6 <SVC_Handler>:

/**
  * @brief This function handles System service call via SWI instruction.
  */
void SVC_Handler(void)
{
 80023b6:	b480      	push	{r7}
 80023b8:	af00      	add	r7, sp, #0

  /* USER CODE END SVCall_IRQn 0 */
  /* USER CODE BEGIN SVCall_IRQn 1 */

  /* USER CODE END SVCall_IRQn 1 */
}
 80023ba:	bf00      	nop
 80023bc:	46bd      	mov	sp, r7
 80023be:	f85d 7b04 	ldr.w	r7, [sp], #4
 80023c2:	4770      	bx	lr

080023c4 <DebugMon_Handler>:

/**
  * @brief This function handles Debug monitor.
  */
void DebugMon_Handler(void)
{
 80023c4:	b480      	push	{r7}
 80023c6:	af00      	add	r7, sp, #0

  /* USER CODE END DebugMonitor_IRQn 0 */
  /* USER CODE BEGIN DebugMonitor_IRQn 1 */

  /* USER CODE END DebugMonitor_IRQn 1 */
}
 80023c8:	bf00      	nop
 80023ca:	46bd      	mov	sp, r7
 80023cc:	f85d 7b04 	ldr.w	r7, [sp], #4
 80023d0:	4770      	bx	lr

080023d2 <PendSV_Handler>:

/**
  * @brief This function handles Pendable request for system service.
  */
void PendSV_Handler(void)
{
 80023d2:	b480      	push	{r7}
 80023d4:	af00      	add	r7, sp, #0

  /* USER CODE END PendSV_IRQn 0 */
  /* USER CODE BEGIN PendSV_IRQn 1 */

  /* USER CODE END PendSV_IRQn 1 */
}
 80023d6:	bf00      	nop
 80023d8:	46bd      	mov	sp, r7
 80023da:	f85d 7b04 	ldr.w	r7, [sp], #4
 80023de:	4770      	bx	lr

080023e0 <SysTick_Handler>:

/**
  * @brief This function handles System tick timer.
  */
void SysTick_Handler(void)
{
 80023e0:	b580      	push	{r7, lr}
 80023e2:	af00      	add	r7, sp, #0
  /* USER CODE BEGIN SysTick_IRQn 0 */

  /* USER CODE END SysTick_IRQn 0 */
  HAL_IncTick();
 80023e4:	f000 fb72 	bl	8002acc <HAL_IncTick>
  /* USER CODE BEGIN SysTick_IRQn 1 */

  /* USER CODE END SysTick_IRQn 1 */
}
 80023e8:	bf00      	nop
 80023ea:	bd80      	pop	{r7, pc}

080023ec <EXTI1_IRQHandler>:

/**
  * @brief This function handles EXTI line 1 interrupt.
  */
void EXTI1_IRQHandler(void)
{
 80023ec:	b580      	push	{r7, lr}
 80023ee:	af00      	add	r7, sp, #0
  /* USER CODE BEGIN EXTI1_IRQn 0 */

  /* USER CODE END EXTI1_IRQn 0 */
  HAL_GPIO_EXTI_IRQHandler(GPIO_PIN_1);
 80023f0:	2002      	movs	r0, #2
 80023f2:	f000 feb3 	bl	800315c <HAL_GPIO_EXTI_IRQHandler>
  /* USER CODE BEGIN EXTI1_IRQn 1 */

  /* USER CODE END EXTI1_IRQn 1 */
}
 80023f6:	bf00      	nop
 80023f8:	bd80      	pop	{r7, pc}
	...

080023fc <TIM2_IRQHandler>:

/**
  * @brief This function handles TIM2 global interrupt.
  */
void TIM2_IRQHandler(void)
{
 80023fc:	b580      	push	{r7, lr}
 80023fe:	af00      	add	r7, sp, #0
  /* USER CODE BEGIN TIM2_IRQn 0 */

  /* USER CODE END TIM2_IRQn 0 */
  HAL_TIM_IRQHandler(&htim2);
 8002400:	4802      	ldr	r0, [pc, #8]	; (800240c <TIM2_IRQHandler+0x10>)
 8002402:	f003 fcfd 	bl	8005e00 <HAL_TIM_IRQHandler>
  /* USER CODE BEGIN TIM2_IRQn 1 */

  /* USER CODE END TIM2_IRQn 1 */
}
 8002406:	bf00      	nop
 8002408:	bd80      	pop	{r7, pc}
 800240a:	bf00      	nop
 800240c:	2000053c 	.word	0x2000053c

08002410 <EXTI15_10_IRQHandler>:

/**
  * @brief This function handles EXTI line[15:10] interrupts.
  */
void EXTI15_10_IRQHandler(void)
{
 8002410:	b580      	push	{r7, lr}
 8002412:	af00      	add	r7, sp, #0
  /* USER CODE BEGIN EXTI15_10_IRQn 0 */

  /* USER CODE END EXTI15_10_IRQn 0 */
  HAL_GPIO_EXTI_IRQHandler(GPIO_PIN_10);
 8002414:	f44f 6080 	mov.w	r0, #1024	; 0x400
 8002418:	f000 fea0 	bl	800315c <HAL_GPIO_EXTI_IRQHandler>
  HAL_GPIO_EXTI_IRQHandler(GPIO_PIN_13);
 800241c:	f44f 5000 	mov.w	r0, #8192	; 0x2000
 8002420:	f000 fe9c 	bl	800315c <HAL_GPIO_EXTI_IRQHandler>
  /* USER CODE BEGIN EXTI15_10_IRQn 1 */

  /* USER CODE END EXTI15_10_IRQn 1 */
}
 8002424:	bf00      	nop
 8002426:	bd80      	pop	{r7, pc}

08002428 <OTG_FS_IRQHandler>:

/**
  * @brief This function handles USB On The Go FS global interrupt.
  */
void OTG_FS_IRQHandler(void)
{
 8002428:	b580      	push	{r7, lr}
 800242a:	af00      	add	r7, sp, #0
  /* USER CODE BEGIN OTG_FS_IRQn 0 */

  /* USER CODE END OTG_FS_IRQn 0 */
  HAL_PCD_IRQHandler(&hpcd_USB_OTG_FS);
 800242c:	4802      	ldr	r0, [pc, #8]	; (8002438 <OTG_FS_IRQHandler+0x10>)
 800242e:	f001 f804 	bl	800343a <HAL_PCD_IRQHandler>
  /* USER CODE BEGIN OTG_FS_IRQn 1 */

  /* USER CODE END OTG_FS_IRQn 1 */
}
 8002432:	bf00      	nop
 8002434:	bd80      	pop	{r7, pc}
 8002436:	bf00      	nop
 8002438:	20000e58 	.word	0x20000e58

0800243c <_sbrk>:
/**
 _sbrk
 Increase program data space. Malloc and related functions depend on this
**/
caddr_t _sbrk(int incr)
{
 800243c:	b580      	push	{r7, lr}
 800243e:	b084      	sub	sp, #16
 8002440:	af00      	add	r7, sp, #0
 8002442:	6078      	str	r0, [r7, #4]
	extern char end asm("end");
	static char *heap_end;
	char *prev_heap_end;

	if (heap_end == 0)
 8002444:	4b11      	ldr	r3, [pc, #68]	; (800248c <_sbrk+0x50>)
 8002446:	681b      	ldr	r3, [r3, #0]
 8002448:	2b00      	cmp	r3, #0
 800244a:	d102      	bne.n	8002452 <_sbrk+0x16>
		heap_end = &end;
 800244c:	4b0f      	ldr	r3, [pc, #60]	; (800248c <_sbrk+0x50>)
 800244e:	4a10      	ldr	r2, [pc, #64]	; (8002490 <_sbrk+0x54>)
 8002450:	601a      	str	r2, [r3, #0]

	prev_heap_end = heap_end;
 8002452:	4b0e      	ldr	r3, [pc, #56]	; (800248c <_sbrk+0x50>)
 8002454:	681b      	ldr	r3, [r3, #0]
 8002456:	60fb      	str	r3, [r7, #12]
	if (heap_end + incr > stack_ptr)
 8002458:	4b0c      	ldr	r3, [pc, #48]	; (800248c <_sbrk+0x50>)
 800245a:	681a      	ldr	r2, [r3, #0]
 800245c:	687b      	ldr	r3, [r7, #4]
 800245e:	4413      	add	r3, r2
 8002460:	466a      	mov	r2, sp
 8002462:	4293      	cmp	r3, r2
 8002464:	d907      	bls.n	8002476 <_sbrk+0x3a>
	{
		errno = ENOMEM;
 8002466:	f008 f8b9 	bl	800a5dc <__errno>
 800246a:	4602      	mov	r2, r0
 800246c:	230c      	movs	r3, #12
 800246e:	6013      	str	r3, [r2, #0]
		return (caddr_t) -1;
 8002470:	f04f 33ff 	mov.w	r3, #4294967295
 8002474:	e006      	b.n	8002484 <_sbrk+0x48>
	}

	heap_end += incr;
 8002476:	4b05      	ldr	r3, [pc, #20]	; (800248c <_sbrk+0x50>)
 8002478:	681a      	ldr	r2, [r3, #0]
 800247a:	687b      	ldr	r3, [r7, #4]
 800247c:	4413      	add	r3, r2
 800247e:	4a03      	ldr	r2, [pc, #12]	; (800248c <_sbrk+0x50>)
 8002480:	6013      	str	r3, [r2, #0]

	return (caddr_t) prev_heap_end;
 8002482:	68fb      	ldr	r3, [r7, #12]
}
 8002484:	4618      	mov	r0, r3
 8002486:	3710      	adds	r7, #16
 8002488:	46bd      	mov	sp, r7
 800248a:	bd80      	pop	{r7, pc}
 800248c:	20000380 	.word	0x20000380
 8002490:	20001268 	.word	0x20001268

08002494 <SystemInit>:
  *         configuration.
  * @param  None
  * @retval None
  */
void SystemInit(void)
{
 8002494:	b480      	push	{r7}
 8002496:	af00      	add	r7, sp, #0
  /* FPU settings ------------------------------------------------------------*/
  #if (__FPU_PRESENT == 1) && (__FPU_USED == 1)
    SCB->CPACR |= ((3UL << 10*2)|(3UL << 11*2));  /* set CP10 and CP11 Full Access */
 8002498:	4b08      	ldr	r3, [pc, #32]	; (80024bc <SystemInit+0x28>)
 800249a:	f8d3 3088 	ldr.w	r3, [r3, #136]	; 0x88
 800249e:	4a07      	ldr	r2, [pc, #28]	; (80024bc <SystemInit+0x28>)
 80024a0:	f443 0370 	orr.w	r3, r3, #15728640	; 0xf00000
 80024a4:	f8c2 3088 	str.w	r3, [r2, #136]	; 0x88

  /* Configure the Vector Table location add offset address ------------------*/
#ifdef VECT_TAB_SRAM
  SCB->VTOR = SRAM_BASE | VECT_TAB_OFFSET; /* Vector Table Relocation in Internal SRAM */
#else
  SCB->VTOR = FLASH_BASE | VECT_TAB_OFFSET; /* Vector Table Relocation in Internal FLASH */
 80024a8:	4b04      	ldr	r3, [pc, #16]	; (80024bc <SystemInit+0x28>)
 80024aa:	f04f 6200 	mov.w	r2, #134217728	; 0x8000000
 80024ae:	609a      	str	r2, [r3, #8]
#endif
}
 80024b0:	bf00      	nop
 80024b2:	46bd      	mov	sp, r7
 80024b4:	f85d 7b04 	ldr.w	r7, [sp], #4
 80024b8:	4770      	bx	lr
 80024ba:	bf00      	nop
 80024bc:	e000ed00 	.word	0xe000ed00

080024c0 <MX_TIM2_Init>:
TIM_HandleTypeDef htim2;
TIM_HandleTypeDef htim5;

/* TIM2 init function */
void MX_TIM2_Init(void)
{
 80024c0:	b580      	push	{r7, lr}
 80024c2:	b08e      	sub	sp, #56	; 0x38
 80024c4:	af00      	add	r7, sp, #0
  TIM_ClockConfigTypeDef sClockSourceConfig = {0};
 80024c6:	f107 0328 	add.w	r3, r7, #40	; 0x28
 80024ca:	2200      	movs	r2, #0
 80024cc:	601a      	str	r2, [r3, #0]
 80024ce:	605a      	str	r2, [r3, #4]
 80024d0:	609a      	str	r2, [r3, #8]
 80024d2:	60da      	str	r2, [r3, #12]
  TIM_MasterConfigTypeDef sMasterConfig = {0};
 80024d4:	f107 0320 	add.w	r3, r7, #32
 80024d8:	2200      	movs	r2, #0
 80024da:	601a      	str	r2, [r3, #0]
 80024dc:	605a      	str	r2, [r3, #4]
  TIM_OC_InitTypeDef sConfigOC = {0};
 80024de:	1d3b      	adds	r3, r7, #4
 80024e0:	2200      	movs	r2, #0
 80024e2:	601a      	str	r2, [r3, #0]
 80024e4:	605a      	str	r2, [r3, #4]
 80024e6:	609a      	str	r2, [r3, #8]
 80024e8:	60da      	str	r2, [r3, #12]
 80024ea:	611a      	str	r2, [r3, #16]
 80024ec:	615a      	str	r2, [r3, #20]
 80024ee:	619a      	str	r2, [r3, #24]

  htim2.Instance = TIM2;
 80024f0:	4b2d      	ldr	r3, [pc, #180]	; (80025a8 <MX_TIM2_Init+0xe8>)
 80024f2:	f04f 4280 	mov.w	r2, #1073741824	; 0x40000000
 80024f6:	601a      	str	r2, [r3, #0]
  htim2.Init.Prescaler = 90;
 80024f8:	4b2b      	ldr	r3, [pc, #172]	; (80025a8 <MX_TIM2_Init+0xe8>)
 80024fa:	225a      	movs	r2, #90	; 0x5a
 80024fc:	605a      	str	r2, [r3, #4]
  htim2.Init.CounterMode = TIM_COUNTERMODE_UP;
 80024fe:	4b2a      	ldr	r3, [pc, #168]	; (80025a8 <MX_TIM2_Init+0xe8>)
 8002500:	2200      	movs	r2, #0
 8002502:	609a      	str	r2, [r3, #8]
  htim2.Init.Period = 1000;
 8002504:	4b28      	ldr	r3, [pc, #160]	; (80025a8 <MX_TIM2_Init+0xe8>)
 8002506:	f44f 727a 	mov.w	r2, #1000	; 0x3e8
 800250a:	60da      	str	r2, [r3, #12]
  htim2.Init.ClockDivision = TIM_CLOCKDIVISION_DIV1;
 800250c:	4b26      	ldr	r3, [pc, #152]	; (80025a8 <MX_TIM2_Init+0xe8>)
 800250e:	2200      	movs	r2, #0
 8002510:	611a      	str	r2, [r3, #16]
  htim2.Init.AutoReloadPreload = TIM_AUTORELOAD_PRELOAD_ENABLE;
 8002512:	4b25      	ldr	r3, [pc, #148]	; (80025a8 <MX_TIM2_Init+0xe8>)
 8002514:	2280      	movs	r2, #128	; 0x80
 8002516:	619a      	str	r2, [r3, #24]
  if (HAL_TIM_Base_Init(&htim2) != HAL_OK)
 8002518:	4823      	ldr	r0, [pc, #140]	; (80025a8 <MX_TIM2_Init+0xe8>)
 800251a:	f003 facf 	bl	8005abc <HAL_TIM_Base_Init>
 800251e:	4603      	mov	r3, r0
 8002520:	2b00      	cmp	r3, #0
 8002522:	d001      	beq.n	8002528 <MX_TIM2_Init+0x68>
  {
    Error_Handler();
 8002524:	f7ff fe43 	bl	80021ae <Error_Handler>
  }
  sClockSourceConfig.ClockSource = TIM_CLOCKSOURCE_INTERNAL;
 8002528:	f44f 5380 	mov.w	r3, #4096	; 0x1000
 800252c:	62bb      	str	r3, [r7, #40]	; 0x28
  if (HAL_TIM_ConfigClockSource(&htim2, &sClockSourceConfig) != HAL_OK)
 800252e:	f107 0328 	add.w	r3, r7, #40	; 0x28
 8002532:	4619      	mov	r1, r3
 8002534:	481c      	ldr	r0, [pc, #112]	; (80025a8 <MX_TIM2_Init+0xe8>)
 8002536:	f003 fe31 	bl	800619c <HAL_TIM_ConfigClockSource>
 800253a:	4603      	mov	r3, r0
 800253c:	2b00      	cmp	r3, #0
 800253e:	d001      	beq.n	8002544 <MX_TIM2_Init+0x84>
  {
    Error_Handler();
 8002540:	f7ff fe35 	bl	80021ae <Error_Handler>
  }
  if (HAL_TIM_PWM_Init(&htim2) != HAL_OK)
 8002544:	4818      	ldr	r0, [pc, #96]	; (80025a8 <MX_TIM2_Init+0xe8>)
 8002546:	f003 fb08 	bl	8005b5a <HAL_TIM_PWM_Init>
 800254a:	4603      	mov	r3, r0
 800254c:	2b00      	cmp	r3, #0
 800254e:	d001      	beq.n	8002554 <MX_TIM2_Init+0x94>
  {
    Error_Handler();
 8002550:	f7ff fe2d 	bl	80021ae <Error_Handler>
  }
  sMasterConfig.MasterOutputTrigger = TIM_TRGO_RESET;
 8002554:	2300      	movs	r3, #0
 8002556:	623b      	str	r3, [r7, #32]
  sMasterConfig.MasterSlaveMode = TIM_MASTERSLAVEMODE_DISABLE;
 8002558:	2300      	movs	r3, #0
 800255a:	627b      	str	r3, [r7, #36]	; 0x24
  if (HAL_TIMEx_MasterConfigSynchronization(&htim2, &sMasterConfig) != HAL_OK)
 800255c:	f107 0320 	add.w	r3, r7, #32
 8002560:	4619      	mov	r1, r3
 8002562:	4811      	ldr	r0, [pc, #68]	; (80025a8 <MX_TIM2_Init+0xe8>)
 8002564:	f004 fa00 	bl	8006968 <HAL_TIMEx_MasterConfigSynchronization>
 8002568:	4603      	mov	r3, r0
 800256a:	2b00      	cmp	r3, #0
 800256c:	d001      	beq.n	8002572 <MX_TIM2_Init+0xb2>
  {
    Error_Handler();
 800256e:	f7ff fe1e 	bl	80021ae <Error_Handler>
  }
  sConfigOC.OCMode = TIM_OCMODE_PWM1;
 8002572:	2360      	movs	r3, #96	; 0x60
 8002574:	607b      	str	r3, [r7, #4]
  sConfigOC.Pulse = 500;
 8002576:	f44f 73fa 	mov.w	r3, #500	; 0x1f4
 800257a:	60bb      	str	r3, [r7, #8]
  sConfigOC.OCPolarity = TIM_OCPOLARITY_HIGH;
 800257c:	2300      	movs	r3, #0
 800257e:	60fb      	str	r3, [r7, #12]
  sConfigOC.OCFastMode = TIM_OCFAST_DISABLE;
 8002580:	2300      	movs	r3, #0
 8002582:	617b      	str	r3, [r7, #20]
  if (HAL_TIM_PWM_ConfigChannel(&htim2, &sConfigOC, TIM_CHANNEL_3) != HAL_OK)
 8002584:	1d3b      	adds	r3, r7, #4
 8002586:	2208      	movs	r2, #8
 8002588:	4619      	mov	r1, r3
 800258a:	4807      	ldr	r0, [pc, #28]	; (80025a8 <MX_TIM2_Init+0xe8>)
 800258c:	f003 fd40 	bl	8006010 <HAL_TIM_PWM_ConfigChannel>
 8002590:	4603      	mov	r3, r0
 8002592:	2b00      	cmp	r3, #0
 8002594:	d001      	beq.n	800259a <MX_TIM2_Init+0xda>
  {
    Error_Handler();
 8002596:	f7ff fe0a 	bl	80021ae <Error_Handler>
  }
  HAL_TIM_MspPostInit(&htim2);
 800259a:	4803      	ldr	r0, [pc, #12]	; (80025a8 <MX_TIM2_Init+0xe8>)
 800259c:	f000 f890 	bl	80026c0 <HAL_TIM_MspPostInit>

}
 80025a0:	bf00      	nop
 80025a2:	3738      	adds	r7, #56	; 0x38
 80025a4:	46bd      	mov	sp, r7
 80025a6:	bd80      	pop	{r7, pc}
 80025a8:	2000053c 	.word	0x2000053c

080025ac <MX_TIM5_Init>:
/* TIM5 init function */
void MX_TIM5_Init(void)
{
 80025ac:	b580      	push	{r7, lr}
 80025ae:	b086      	sub	sp, #24
 80025b0:	af00      	add	r7, sp, #0
  TIM_ClockConfigTypeDef sClockSourceConfig = {0};
 80025b2:	f107 0308 	add.w	r3, r7, #8
 80025b6:	2200      	movs	r2, #0
 80025b8:	601a      	str	r2, [r3, #0]
 80025ba:	605a      	str	r2, [r3, #4]
 80025bc:	609a      	str	r2, [r3, #8]
 80025be:	60da      	str	r2, [r3, #12]
  TIM_MasterConfigTypeDef sMasterConfig = {0};
 80025c0:	463b      	mov	r3, r7
 80025c2:	2200      	movs	r2, #0
 80025c4:	601a      	str	r2, [r3, #0]
 80025c6:	605a      	str	r2, [r3, #4]

  htim5.Instance = TIM5;
 80025c8:	4b1d      	ldr	r3, [pc, #116]	; (8002640 <MX_TIM5_Init+0x94>)
 80025ca:	4a1e      	ldr	r2, [pc, #120]	; (8002644 <MX_TIM5_Init+0x98>)
 80025cc:	601a      	str	r2, [r3, #0]
  htim5.Init.Prescaler = 90;
 80025ce:	4b1c      	ldr	r3, [pc, #112]	; (8002640 <MX_TIM5_Init+0x94>)
 80025d0:	225a      	movs	r2, #90	; 0x5a
 80025d2:	605a      	str	r2, [r3, #4]
  htim5.Init.CounterMode = TIM_COUNTERMODE_UP;
 80025d4:	4b1a      	ldr	r3, [pc, #104]	; (8002640 <MX_TIM5_Init+0x94>)
 80025d6:	2200      	movs	r2, #0
 80025d8:	609a      	str	r2, [r3, #8]
  htim5.Init.Period = 4294967295;
 80025da:	4b19      	ldr	r3, [pc, #100]	; (8002640 <MX_TIM5_Init+0x94>)
 80025dc:	f04f 32ff 	mov.w	r2, #4294967295
 80025e0:	60da      	str	r2, [r3, #12]
  htim5.Init.ClockDivision = TIM_CLOCKDIVISION_DIV1;
 80025e2:	4b17      	ldr	r3, [pc, #92]	; (8002640 <MX_TIM5_Init+0x94>)
 80025e4:	2200      	movs	r2, #0
 80025e6:	611a      	str	r2, [r3, #16]
  htim5.Init.AutoReloadPreload = TIM_AUTORELOAD_PRELOAD_DISABLE;
 80025e8:	4b15      	ldr	r3, [pc, #84]	; (8002640 <MX_TIM5_Init+0x94>)
 80025ea:	2200      	movs	r2, #0
 80025ec:	619a      	str	r2, [r3, #24]
  if (HAL_TIM_Base_Init(&htim5) != HAL_OK)
 80025ee:	4814      	ldr	r0, [pc, #80]	; (8002640 <MX_TIM5_Init+0x94>)
 80025f0:	f003 fa64 	bl	8005abc <HAL_TIM_Base_Init>
 80025f4:	4603      	mov	r3, r0
 80025f6:	2b00      	cmp	r3, #0
 80025f8:	d001      	beq.n	80025fe <MX_TIM5_Init+0x52>
  {
    Error_Handler();
 80025fa:	f7ff fdd8 	bl	80021ae <Error_Handler>
  }
  sClockSourceConfig.ClockSource = TIM_CLOCKSOURCE_INTERNAL;
 80025fe:	f44f 5380 	mov.w	r3, #4096	; 0x1000
 8002602:	60bb      	str	r3, [r7, #8]
  if (HAL_TIM_ConfigClockSource(&htim5, &sClockSourceConfig) != HAL_OK)
 8002604:	f107 0308 	add.w	r3, r7, #8
 8002608:	4619      	mov	r1, r3
 800260a:	480d      	ldr	r0, [pc, #52]	; (8002640 <MX_TIM5_Init+0x94>)
 800260c:	f003 fdc6 	bl	800619c <HAL_TIM_ConfigClockSource>
 8002610:	4603      	mov	r3, r0
 8002612:	2b00      	cmp	r3, #0
 8002614:	d001      	beq.n	800261a <MX_TIM5_Init+0x6e>
  {
    Error_Handler();
 8002616:	f7ff fdca 	bl	80021ae <Error_Handler>
  }
  sMasterConfig.MasterOutputTrigger = TIM_TRGO_RESET;
 800261a:	2300      	movs	r3, #0
 800261c:	603b      	str	r3, [r7, #0]
  sMasterConfig.MasterSlaveMode = TIM_MASTERSLAVEMODE_DISABLE;
 800261e:	2300      	movs	r3, #0
 8002620:	607b      	str	r3, [r7, #4]
  if (HAL_TIMEx_MasterConfigSynchronization(&htim5, &sMasterConfig) != HAL_OK)
 8002622:	463b      	mov	r3, r7
 8002624:	4619      	mov	r1, r3
 8002626:	4806      	ldr	r0, [pc, #24]	; (8002640 <MX_TIM5_Init+0x94>)
 8002628:	f004 f99e 	bl	8006968 <HAL_TIMEx_MasterConfigSynchronization>
 800262c:	4603      	mov	r3, r0
 800262e:	2b00      	cmp	r3, #0
 8002630:	d001      	beq.n	8002636 <MX_TIM5_Init+0x8a>
  {
    Error_Handler();
 8002632:	f7ff fdbc 	bl	80021ae <Error_Handler>
  }

}
 8002636:	bf00      	nop
 8002638:	3718      	adds	r7, #24
 800263a:	46bd      	mov	sp, r7
 800263c:	bd80      	pop	{r7, pc}
 800263e:	bf00      	nop
 8002640:	200004fc 	.word	0x200004fc
 8002644:	40000c00 	.word	0x40000c00

08002648 <HAL_TIM_Base_MspInit>:

void HAL_TIM_Base_MspInit(TIM_HandleTypeDef* tim_baseHandle)
{
 8002648:	b580      	push	{r7, lr}
 800264a:	b084      	sub	sp, #16
 800264c:	af00      	add	r7, sp, #0
 800264e:	6078      	str	r0, [r7, #4]

  if(tim_baseHandle->Instance==TIM2)
 8002650:	687b      	ldr	r3, [r7, #4]
 8002652:	681b      	ldr	r3, [r3, #0]
 8002654:	f1b3 4f80 	cmp.w	r3, #1073741824	; 0x40000000
 8002658:	d116      	bne.n	8002688 <HAL_TIM_Base_MspInit+0x40>
  {
  /* USER CODE BEGIN TIM2_MspInit 0 */

  /* USER CODE END TIM2_MspInit 0 */
    /* TIM2 clock enable */
    __HAL_RCC_TIM2_CLK_ENABLE();
 800265a:	2300      	movs	r3, #0
 800265c:	60fb      	str	r3, [r7, #12]
 800265e:	4b16      	ldr	r3, [pc, #88]	; (80026b8 <HAL_TIM_Base_MspInit+0x70>)
 8002660:	6c1b      	ldr	r3, [r3, #64]	; 0x40
 8002662:	4a15      	ldr	r2, [pc, #84]	; (80026b8 <HAL_TIM_Base_MspInit+0x70>)
 8002664:	f043 0301 	orr.w	r3, r3, #1
 8002668:	6413      	str	r3, [r2, #64]	; 0x40
 800266a:	4b13      	ldr	r3, [pc, #76]	; (80026b8 <HAL_TIM_Base_MspInit+0x70>)
 800266c:	6c1b      	ldr	r3, [r3, #64]	; 0x40
 800266e:	f003 0301 	and.w	r3, r3, #1
 8002672:	60fb      	str	r3, [r7, #12]
 8002674:	68fb      	ldr	r3, [r7, #12]

    /* TIM2 interrupt Init */
    HAL_NVIC_SetPriority(TIM2_IRQn, 0, 0);
 8002676:	2200      	movs	r2, #0
 8002678:	2100      	movs	r1, #0
 800267a:	201c      	movs	r0, #28
 800267c:	f000 fb65 	bl	8002d4a <HAL_NVIC_SetPriority>
    HAL_NVIC_EnableIRQ(TIM2_IRQn);
 8002680:	201c      	movs	r0, #28
 8002682:	f000 fb7e 	bl	8002d82 <HAL_NVIC_EnableIRQ>
    __HAL_RCC_TIM5_CLK_ENABLE();
  /* USER CODE BEGIN TIM5_MspInit 1 */

  /* USER CODE END TIM5_MspInit 1 */
  }
}
 8002686:	e012      	b.n	80026ae <HAL_TIM_Base_MspInit+0x66>
  else if(tim_baseHandle->Instance==TIM5)
 8002688:	687b      	ldr	r3, [r7, #4]
 800268a:	681b      	ldr	r3, [r3, #0]
 800268c:	4a0b      	ldr	r2, [pc, #44]	; (80026bc <HAL_TIM_Base_MspInit+0x74>)
 800268e:	4293      	cmp	r3, r2
 8002690:	d10d      	bne.n	80026ae <HAL_TIM_Base_MspInit+0x66>
    __HAL_RCC_TIM5_CLK_ENABLE();
 8002692:	2300      	movs	r3, #0
 8002694:	60bb      	str	r3, [r7, #8]
 8002696:	4b08      	ldr	r3, [pc, #32]	; (80026b8 <HAL_TIM_Base_MspInit+0x70>)
 8002698:	6c1b      	ldr	r3, [r3, #64]	; 0x40
 800269a:	4a07      	ldr	r2, [pc, #28]	; (80026b8 <HAL_TIM_Base_MspInit+0x70>)
 800269c:	f043 0308 	orr.w	r3, r3, #8
 80026a0:	6413      	str	r3, [r2, #64]	; 0x40
 80026a2:	4b05      	ldr	r3, [pc, #20]	; (80026b8 <HAL_TIM_Base_MspInit+0x70>)
 80026a4:	6c1b      	ldr	r3, [r3, #64]	; 0x40
 80026a6:	f003 0308 	and.w	r3, r3, #8
 80026aa:	60bb      	str	r3, [r7, #8]
 80026ac:	68bb      	ldr	r3, [r7, #8]
}
 80026ae:	bf00      	nop
 80026b0:	3710      	adds	r7, #16
 80026b2:	46bd      	mov	sp, r7
 80026b4:	bd80      	pop	{r7, pc}
 80026b6:	bf00      	nop
 80026b8:	40023800 	.word	0x40023800
 80026bc:	40000c00 	.word	0x40000c00

080026c0 <HAL_TIM_MspPostInit>:
void HAL_TIM_MspPostInit(TIM_HandleTypeDef* timHandle)
{
 80026c0:	b580      	push	{r7, lr}
 80026c2:	b088      	sub	sp, #32
 80026c4:	af00      	add	r7, sp, #0
 80026c6:	6078      	str	r0, [r7, #4]

  GPIO_InitTypeDef GPIO_InitStruct = {0};
 80026c8:	f107 030c 	add.w	r3, r7, #12
 80026cc:	2200      	movs	r2, #0
 80026ce:	601a      	str	r2, [r3, #0]
 80026d0:	605a      	str	r2, [r3, #4]
 80026d2:	609a      	str	r2, [r3, #8]
 80026d4:	60da      	str	r2, [r3, #12]
 80026d6:	611a      	str	r2, [r3, #16]
  if(timHandle->Instance==TIM2)
 80026d8:	687b      	ldr	r3, [r7, #4]
 80026da:	681b      	ldr	r3, [r3, #0]
 80026dc:	f1b3 4f80 	cmp.w	r3, #1073741824	; 0x40000000
 80026e0:	d11e      	bne.n	8002720 <HAL_TIM_MspPostInit+0x60>
  {
  /* USER CODE BEGIN TIM2_MspPostInit 0 */

  /* USER CODE END TIM2_MspPostInit 0 */
  
    __HAL_RCC_GPIOB_CLK_ENABLE();
 80026e2:	2300      	movs	r3, #0
 80026e4:	60bb      	str	r3, [r7, #8]
 80026e6:	4b10      	ldr	r3, [pc, #64]	; (8002728 <HAL_TIM_MspPostInit+0x68>)
 80026e8:	6b1b      	ldr	r3, [r3, #48]	; 0x30
 80026ea:	4a0f      	ldr	r2, [pc, #60]	; (8002728 <HAL_TIM_MspPostInit+0x68>)
 80026ec:	f043 0302 	orr.w	r3, r3, #2
 80026f0:	6313      	str	r3, [r2, #48]	; 0x30
 80026f2:	4b0d      	ldr	r3, [pc, #52]	; (8002728 <HAL_TIM_MspPostInit+0x68>)
 80026f4:	6b1b      	ldr	r3, [r3, #48]	; 0x30
 80026f6:	f003 0302 	and.w	r3, r3, #2
 80026fa:	60bb      	str	r3, [r7, #8]
 80026fc:	68bb      	ldr	r3, [r7, #8]
    /**TIM2 GPIO Configuration    
    PB10     ------> TIM2_CH3 
    */
    GPIO_InitStruct.Pin = GPIO_PIN_10;
 80026fe:	f44f 6380 	mov.w	r3, #1024	; 0x400
 8002702:	60fb      	str	r3, [r7, #12]
    GPIO_InitStruct.Mode = GPIO_MODE_AF_PP;
 8002704:	2302      	movs	r3, #2
 8002706:	613b      	str	r3, [r7, #16]
    GPIO_InitStruct.Pull = GPIO_NOPULL;
 8002708:	2300      	movs	r3, #0
 800270a:	617b      	str	r3, [r7, #20]
    GPIO_InitStruct.Speed = GPIO_SPEED_FREQ_LOW;
 800270c:	2300      	movs	r3, #0
 800270e:	61bb      	str	r3, [r7, #24]
    GPIO_InitStruct.Alternate = GPIO_AF1_TIM2;
 8002710:	2301      	movs	r3, #1
 8002712:	61fb      	str	r3, [r7, #28]
    HAL_GPIO_Init(GPIOB, &GPIO_InitStruct);
 8002714:	f107 030c 	add.w	r3, r7, #12
 8002718:	4619      	mov	r1, r3
 800271a:	4804      	ldr	r0, [pc, #16]	; (800272c <HAL_TIM_MspPostInit+0x6c>)
 800271c:	f000 fb5a 	bl	8002dd4 <HAL_GPIO_Init>
  /* USER CODE BEGIN TIM2_MspPostInit 1 */

  /* USER CODE END TIM2_MspPostInit 1 */
  }

}
 8002720:	bf00      	nop
 8002722:	3720      	adds	r7, #32
 8002724:	46bd      	mov	sp, r7
 8002726:	bd80      	pop	{r7, pc}
 8002728:	40023800 	.word	0x40023800
 800272c:	40020400 	.word	0x40020400

08002730 <IHM01_SetPWMTimer>:

/* USER CODE BEGIN 1 */
//################################
//### Neue PWM-Frequenz einstellen
void IHM01_SetPWMTimer(uint32_t newValue)
{
 8002730:	b480      	push	{r7}
 8002732:	b083      	sub	sp, #12
 8002734:	af00      	add	r7, sp, #0
 8002736:	6078      	str	r0, [r7, #4]
  __HAL_TIM_SetAutoreload(&htim2, newValue);
 8002738:	4b08      	ldr	r3, [pc, #32]	; (800275c <IHM01_SetPWMTimer+0x2c>)
 800273a:	681b      	ldr	r3, [r3, #0]
 800273c:	687a      	ldr	r2, [r7, #4]
 800273e:	62da      	str	r2, [r3, #44]	; 0x2c
 8002740:	4a06      	ldr	r2, [pc, #24]	; (800275c <IHM01_SetPWMTimer+0x2c>)
 8002742:	687b      	ldr	r3, [r7, #4]
 8002744:	60d3      	str	r3, [r2, #12]
  __HAL_TIM_SetCompare(&htim2, TIM_CHANNEL_3, newValue >> 1);
 8002746:	4b05      	ldr	r3, [pc, #20]	; (800275c <IHM01_SetPWMTimer+0x2c>)
 8002748:	681b      	ldr	r3, [r3, #0]
 800274a:	687a      	ldr	r2, [r7, #4]
 800274c:	0852      	lsrs	r2, r2, #1
 800274e:	63da      	str	r2, [r3, #60]	; 0x3c
}
 8002750:	bf00      	nop
 8002752:	370c      	adds	r7, #12
 8002754:	46bd      	mov	sp, r7
 8002756:	f85d 7b04 	ldr.w	r7, [sp], #4
 800275a:	4770      	bx	lr
 800275c:	2000053c 	.word	0x2000053c

08002760 <IHM01_StartPwm>:

//#####################
//### PWM-Timer starten
void IHM01_StartPwm() {	HAL_TIM_PWM_Start_IT(&htim2,TIM_CHANNEL_3); }
 8002760:	b580      	push	{r7, lr}
 8002762:	af00      	add	r7, sp, #0
 8002764:	2108      	movs	r1, #8
 8002766:	4802      	ldr	r0, [pc, #8]	; (8002770 <IHM01_StartPwm+0x10>)
 8002768:	f003 fa2c 	bl	8005bc4 <HAL_TIM_PWM_Start_IT>
 800276c:	bf00      	nop
 800276e:	bd80      	pop	{r7, pc}
 8002770:	2000053c 	.word	0x2000053c

08002774 <IHM01_StopPwm>:

//#####################
//### PWM-Timer stoppen
void IHM01_StopPwm() { HAL_TIM_PWM_Stop_IT(&htim2,TIM_CHANNEL_3); }
 8002774:	b580      	push	{r7, lr}
 8002776:	af00      	add	r7, sp, #0
 8002778:	2108      	movs	r1, #8
 800277a:	4802      	ldr	r0, [pc, #8]	; (8002784 <IHM01_StopPwm+0x10>)
 800277c:	f003 faa6 	bl	8005ccc <HAL_TIM_PWM_Stop_IT>
 8002780:	bf00      	nop
 8002782:	bd80      	pop	{r7, pc}
 8002784:	2000053c 	.word	0x2000053c

08002788 <HAL_TIM_PWM_PulseFinishedCallback>:
 *  The \ref step_delay defines the period of this interrupt
 *  and controls the speed of the stepper motor.
 *  A new step delay is calculated to follow wanted speed profile
 *  on basis of accel/decel parameters.*/
void HAL_TIM_PWM_PulseFinishedCallback(TIM_HandleTypeDef *htim)
{
 8002788:	b580      	push	{r7, lr}
 800278a:	b084      	sub	sp, #16
 800278c:	af00      	add	r7, sp, #0
 800278e:	6078      	str	r0, [r7, #4]

	if(htim->Instance == TIM2)
 8002790:	687b      	ldr	r3, [r7, #4]
 8002792:	681b      	ldr	r3, [r3, #0]
 8002794:	f1b3 4f80 	cmp.w	r3, #1073741824	; 0x40000000
 8002798:	f040 8102 	bne.w	80029a0 <HAL_TIM_PWM_PulseFinishedCallback+0x218>
		uint32_t new_step_delay; 		// Holds next delay period.
		static int last_accel_delay; 		// Remember the last step delay used when accelerating.
		static unsigned int step_count = 0;	// Counting steps when moving.
		static unsigned int rest = 0;		// Keep track of remainder from new_step-delay calculation to increase accuracy

		IHM01_SetPWMTimer(srd.Next_Step_Delay);
 800279c:	4b82      	ldr	r3, [pc, #520]	; (80029a8 <HAL_TIM_PWM_PulseFinishedCallback+0x220>)
 800279e:	685b      	ldr	r3, [r3, #4]
 80027a0:	4618      	mov	r0, r3
 80027a2:	f7ff ffc5 	bl	8002730 <IHM01_SetPWMTimer>

		//STATE MACHINE
		switch(srd.Run_State)
 80027a6:	4b80      	ldr	r3, [pc, #512]	; (80029a8 <HAL_TIM_PWM_PulseFinishedCallback+0x220>)
 80027a8:	781b      	ldrb	r3, [r3, #0]
 80027aa:	2b03      	cmp	r3, #3
 80027ac:	f200 80dd 	bhi.w	800296a <HAL_TIM_PWM_PulseFinishedCallback+0x1e2>
 80027b0:	a201      	add	r2, pc, #4	; (adr r2, 80027b8 <HAL_TIM_PWM_PulseFinishedCallback+0x30>)
 80027b2:	f852 f023 	ldr.w	pc, [r2, r3, lsl #2]
 80027b6:	bf00      	nop
 80027b8:	080027c9 	.word	0x080027c9
 80027bc:	080027e5 	.word	0x080027e5
 80027c0:	080028cd 	.word	0x080028cd
 80027c4:	08002891 	.word	0x08002891
			{
			case STOP:
				step_count = 0;
 80027c8:	4b78      	ldr	r3, [pc, #480]	; (80029ac <HAL_TIM_PWM_PulseFinishedCallback+0x224>)
 80027ca:	2200      	movs	r2, #0
 80027cc:	601a      	str	r2, [r3, #0]
				rest = 0;
 80027ce:	4b78      	ldr	r3, [pc, #480]	; (80029b0 <HAL_TIM_PWM_PulseFinishedCallback+0x228>)
 80027d0:	2200      	movs	r2, #0
 80027d2:	601a      	str	r2, [r3, #0]
				HAL_GPIO_WritePin(GPIOC, IHM01_STATEOUT_Pin, GPIO_PIN_RESET);
 80027d4:	2200      	movs	r2, #0
 80027d6:	2101      	movs	r1, #1
 80027d8:	4876      	ldr	r0, [pc, #472]	; (80029b4 <HAL_TIM_PWM_PulseFinishedCallback+0x22c>)
 80027da:	f000 fca5 	bl	8003128 <HAL_GPIO_WritePin>
				IHM01_MotorOff(); // Endstufe, PWM & Flags = OFF
 80027de:	f7fe fda0 	bl	8001322 <IHM01_MotorOff>
				break;
 80027e2:	e0c2      	b.n	800296a <HAL_TIM_PWM_PulseFinishedCallback+0x1e2>

			case ACCEL:
				HAL_GPIO_WritePin(GPIOC, IHM01_STATEOUT_Pin, GPIO_PIN_SET);
 80027e4:	2201      	movs	r2, #1
 80027e6:	2101      	movs	r1, #1
 80027e8:	4872      	ldr	r0, [pc, #456]	; (80029b4 <HAL_TIM_PWM_PulseFinishedCallback+0x22c>)
 80027ea:	f000 fc9d 	bl	8003128 <HAL_GPIO_WritePin>
				step_count++;
 80027ee:	4b6f      	ldr	r3, [pc, #444]	; (80029ac <HAL_TIM_PWM_PulseFinishedCallback+0x224>)
 80027f0:	681b      	ldr	r3, [r3, #0]
 80027f2:	3301      	adds	r3, #1
 80027f4:	4a6d      	ldr	r2, [pc, #436]	; (80029ac <HAL_TIM_PWM_PulseFinishedCallback+0x224>)
 80027f6:	6013      	str	r3, [r2, #0]
				srd.AccelDecel_Count++;
 80027f8:	4b6b      	ldr	r3, [pc, #428]	; (80029a8 <HAL_TIM_PWM_PulseFinishedCallback+0x220>)
 80027fa:	695b      	ldr	r3, [r3, #20]
 80027fc:	3301      	adds	r3, #1
 80027fe:	4a6a      	ldr	r2, [pc, #424]	; (80029a8 <HAL_TIM_PWM_PulseFinishedCallback+0x220>)
 8002800:	6153      	str	r3, [r2, #20]

				new_step_delay = (uint32_t) (srd.Next_Step_Delay - ((int32_t)((2 * (int32_t)srd.Next_Step_Delay) + rest)/(4 * srd.AccelDecel_Count + 1)));
 8002802:	4b69      	ldr	r3, [pc, #420]	; (80029a8 <HAL_TIM_PWM_PulseFinishedCallback+0x220>)
 8002804:	685b      	ldr	r3, [r3, #4]
 8002806:	4a68      	ldr	r2, [pc, #416]	; (80029a8 <HAL_TIM_PWM_PulseFinishedCallback+0x220>)
 8002808:	6852      	ldr	r2, [r2, #4]
 800280a:	0052      	lsls	r2, r2, #1
 800280c:	4611      	mov	r1, r2
 800280e:	4a68      	ldr	r2, [pc, #416]	; (80029b0 <HAL_TIM_PWM_PulseFinishedCallback+0x228>)
 8002810:	6812      	ldr	r2, [r2, #0]
 8002812:	440a      	add	r2, r1
 8002814:	4611      	mov	r1, r2
 8002816:	4a64      	ldr	r2, [pc, #400]	; (80029a8 <HAL_TIM_PWM_PulseFinishedCallback+0x220>)
 8002818:	6952      	ldr	r2, [r2, #20]
 800281a:	0092      	lsls	r2, r2, #2
 800281c:	3201      	adds	r2, #1
 800281e:	fb91 f2f2 	sdiv	r2, r1, r2
 8002822:	1a9b      	subs	r3, r3, r2
 8002824:	60fb      	str	r3, [r7, #12]
				rest =           (uint32_t) (                      ((int32_t)((2 * (int32_t)srd.Next_Step_Delay) + rest)%(4 * srd.AccelDecel_Count + 1)));
 8002826:	4b60      	ldr	r3, [pc, #384]	; (80029a8 <HAL_TIM_PWM_PulseFinishedCallback+0x220>)
 8002828:	685b      	ldr	r3, [r3, #4]
 800282a:	005b      	lsls	r3, r3, #1
 800282c:	461a      	mov	r2, r3
 800282e:	4b60      	ldr	r3, [pc, #384]	; (80029b0 <HAL_TIM_PWM_PulseFinishedCallback+0x228>)
 8002830:	681b      	ldr	r3, [r3, #0]
 8002832:	4413      	add	r3, r2
 8002834:	461a      	mov	r2, r3
 8002836:	4b5c      	ldr	r3, [pc, #368]	; (80029a8 <HAL_TIM_PWM_PulseFinishedCallback+0x220>)
 8002838:	695b      	ldr	r3, [r3, #20]
 800283a:	009b      	lsls	r3, r3, #2
 800283c:	3301      	adds	r3, #1
 800283e:	fb92 f1f3 	sdiv	r1, r2, r3
 8002842:	fb03 f301 	mul.w	r3, r3, r1
 8002846:	1ad3      	subs	r3, r2, r3
 8002848:	461a      	mov	r2, r3
 800284a:	4b59      	ldr	r3, [pc, #356]	; (80029b0 <HAL_TIM_PWM_PulseFinishedCallback+0x228>)
 800284c:	601a      	str	r2, [r3, #0]

				if(step_count >= srd.Decel_Start_Pos) // Wenn schon im Bereich des Bremsens ...
 800284e:	4b56      	ldr	r3, [pc, #344]	; (80029a8 <HAL_TIM_PWM_PulseFinishedCallback+0x220>)
 8002850:	689a      	ldr	r2, [r3, #8]
 8002852:	4b56      	ldr	r3, [pc, #344]	; (80029ac <HAL_TIM_PWM_PulseFinishedCallback+0x224>)
 8002854:	681b      	ldr	r3, [r3, #0]
 8002856:	429a      	cmp	r2, r3
 8002858:	d807      	bhi.n	800286a <HAL_TIM_PWM_PulseFinishedCallback+0xe2>
					{
					srd.AccelDecel_Count = srd.Decel_Val;
 800285a:	4b53      	ldr	r3, [pc, #332]	; (80029a8 <HAL_TIM_PWM_PulseFinishedCallback+0x220>)
 800285c:	68db      	ldr	r3, [r3, #12]
 800285e:	4a52      	ldr	r2, [pc, #328]	; (80029a8 <HAL_TIM_PWM_PulseFinishedCallback+0x220>)
 8002860:	6153      	str	r3, [r2, #20]
					srd.Run_State = DECEL;
 8002862:	4b51      	ldr	r3, [pc, #324]	; (80029a8 <HAL_TIM_PWM_PulseFinishedCallback+0x220>)
 8002864:	2202      	movs	r2, #2
 8002866:	701a      	strb	r2, [r3, #0]
					last_accel_delay = new_step_delay;
					new_step_delay = srd.Min_Delay;
					rest = 0;
					srd.Run_State = MOVE;
					}
				break;
 8002868:	e07a      	b.n	8002960 <HAL_TIM_PWM_PulseFinishedCallback+0x1d8>
				else if(new_step_delay <= srd.Min_Delay) //... oder die Maximalgeschwindigkeit erreicht haben
 800286a:	4b4f      	ldr	r3, [pc, #316]	; (80029a8 <HAL_TIM_PWM_PulseFinishedCallback+0x220>)
 800286c:	691b      	ldr	r3, [r3, #16]
 800286e:	461a      	mov	r2, r3
 8002870:	68fb      	ldr	r3, [r7, #12]
 8002872:	4293      	cmp	r3, r2
 8002874:	d874      	bhi.n	8002960 <HAL_TIM_PWM_PulseFinishedCallback+0x1d8>
